01REMESSA01COBRANCA       661600062425        ANEXO TECNOLOGIA E SISTEMAS EM341BANCO ITAU SA  050215                                                                                                                                                                                                                                                                                                      000001
10209442991000137661600062425    00004566                     000045660000000000000109                     I01ORC001271/20021500000000079003410000001N050215000000000000000050000000000000000000000000000000000000000000000212664100000100AFONSO FERNANDES DE OLIVEIRA            PRACA RUI BARBOSA 220                   CENTRO HISTO90030100PORTO ALEGRE   RS                                  00000000 000002
10209442991000137661600062425    00004673                     000046730000000000000109                     I01ORC001272/20021500000000085193410000001N050215000000000000000060000000000000000000000000000000000000000000000209481746000139AJ DIESEL COM PECAS E ACESS PA          AV ELY CORREA 1040                      PRQ DOS ANJO94185352GRAVATAI       RS                                  00000000 000003
10209442991000137661600062425    00004569                     000045690000000000000109                     I01ORC001273/20021500000000066003410000001N050215000000000000000040000000000000000000000000000000000000000000000201321540000210ALCIONE DE ARAUJO MUNIZ                 AV. ELY CORREA 2553                     PARQUE DOS A94010972GRAVATAI       RS                                  00000000 000004
10209442991000137661600062425    00004570                     000045700000000000000109                     I01ORC001274/20021500000000083943410000001N050215000000000000000060000000000000000000000000000000000000000000000208628149000121AMF DISTRIB DE ACESS AUTOMOTIV          AV BERLIM 147                           SAO GERALDO 90240581PORTO ALEGRE   RS                                  00000000 000005
10209442991000137661600062425    00004571                     000045710000000000000109                     I01ORC001275/20021500000000075373410000001N050215000000000000000050000000000000000000000000000000000000000000000290403700000110ANA MARIA SILVEIRA                      RUA LAJES 162                           PARQUE DOS A94180590GRAVATAI       RS                                  00000000 000006
10209442991000137661600062425    00004572                     000045720000000000000109                     I01ORC001276/20021500000000075023410000001N050215000000000000000050000000000000000000000000000000000000000000000273221301000119AUTO ELETRICA BRAUN LTDA                RUA BERNARDINO T. FONSECA 196           CACA E PESCA94190110GRAVATAI       RS                                  00000000 000007
10209442991000137661600062425    00004573                     000045730000000000000109                     I01ORC001277/20021500000000089003410000001N050215000000000000000060000000000000000000000000000000000000000000000206058292000108AUTO ELETRICA E LOCACOES AJS L          RUA CONSELHEIRO TRAVASSOS 368           SAO GERALDO 90230140PORTO ALEGRE   RS                                  00000000 000008
10209442991000137661600062425    00004575                     000045750000000000000109                     I01ORC001279/20021500000000074953410000001N050215000000000000000050000000000000000000000000000000000000000000000201894407000172BOMBAS SINOS IND. E COM. LTDA           RUA ATILIO FORTES 30                    BOA SAUDE   93340000NOVO HAMBURGO  RS                                  00000000 000009
10209442991000137661600062425    00004576                     000045760000000000000109                     I01ORC001280/20021500000000089003410000001N050215000000000000000060000000000000000000000000000000000000000000000216906777000150BRECHO CHIC LTDA - ME                   R CORONEL BORDINI 169                   AUXILIADORA 90440000PORTO ALEGRE   RS                                  00000000 000010
10209442991000137661600062425    00004577                     000045770000000000000109                     I01ORC001281/20021500000000077183410000001N050215000000000000000050000000000000000000000000000000000000000000000213278006000177CANTECH EQUIPAMENTOS LTDA               AVENIDA AVELINO MACIEL NETO 2955        DISTRITO IND94380000GLORINHA       RS                                  00000000 000011
10209442991000137661600062425    00004578                     000045780000000000000109                     I01ORC001282/20021500000000083563410000001N050215000000000000000060000000000000000000000000000000000000000000000293678423000146CARLOS ROBERTO COUTINHO FOLTZ           RUA CURITIBA 791                        VILA FATIMA 94955130CACHOEIRINHA   RS                                  00000000 000012
10209442991000137661600062425    00004579                     000045790000000000000109                     I01ORC001283/20021500000000085193410000001N050215000000000000000060000000000000000000000000000000000000000000000274903808000115CC CENTROCAR CENTRO AUTOMOTIVO          AV. GENERAL OSORIO 105                  SALGADO FILH94020000GRAVATAI       RS                                  00000000 000013
10209442991000137661600062425    00004580                     000045800000000000000109                     I01ORC001284/20021500000000055933410000001N050215000000000000000040000000000000000000000000000000000000000000000288844030000125CERAMICA ATLETICO CLUBE                 AVENIDA JOSE LOUREIRO DA SILVA          CENTRO      94010001GRAVATAI       RS                                  00000000 000014
10209442991000137661600062425    00004559                     000045590000000000000109                     I01NFSE00013402031500000000566003410000001N290115000000000000000380000000000000000000000000000000000000000000000213689621000176CLEDSON DUTRA RODRIGUES - ME            ROD RS 020 2795                         PLANALTINA  94090720GRAVATAI       RS                                  00000000 000015
10209442991000137661600062425    00004560                     000045600000000000000109                     I01NFSE00013402051500000000566003410000001N290115000000000000000380000000000000000000000000000000000000000000000213689621000176CLEDSON DUTRA RODRIGUES - ME            ROD RS 020 2795                         PLANALTINA  94090720GRAVATAI       RS                                  00000000 000016
10209442991000137661600062425    00004561                     000045610000000000000109                     I01NFSE00013402061500000000566003410000001N290115000000000000000380000000000000000000000000000000000000000000000213689621000176CLEDSON DUTRA RODRIGUES - ME            ROD RS 020 2795                         PLANALTINA  94090720GRAVATAI       RS                                  00000000 000017
10209442991000137661600062425    00004562                     000045620000000000000109                     I01NFSE00013402071500000000566003410000001N290115000000000000000380000000000000000000000000000000000000000000000213689621000176CLEDSON DUTRA RODRIGUES - ME            ROD RS 020 2795                         PLANALTINA  94090720GRAVATAI       RS                                  00000000 000018
10209442991000137661600062425    00004563                     000045630000000000000109                     I01NFSE00013402081500000000570003410000001N290115000000000000000380000000000000000000000000000000000000000000000213689621000176CLEDSON DUTRA RODRIGUES - ME            ROD RS 020 2795                         PLANALTINA  94090720GRAVATAI       RS                                  00000000 000019
10209442991000137661600062425    00004564                     000045640000000000000109                     I01NFSE00013402041500000000566003410000001N290115000000000000000380000000000000000000000000000000000000000000000213689621000176CLEDSON DUTRA RODRIGUES - ME            ROD RS 020 2795                         PLANALTINA  94090720GRAVATAI       RS                                  00000000 000020
10209442991000137661600062425    00004581                     000045810000000000000109                     I01ORC001285/20021500000000083213410000001N050215000000000000000060000000000000000000000000000000000000000000000214885861000109COM DE TINTAS E FERRAGENS FONI          AV DORIVAL CANDIDO LUZ DE OLIVEIRA 364  CENTRO      94030000GRAVATAI       RS                                  00000000 000021
10209442991000137661600062425    00004582                     000045820000000000000109                     I01ORC001286/20021500000000083743410000001N050215000000000000000060000000000000000000000000000000000000000000000210486493000175COMERCIAL POHLFER LTDA.                 AV. ASSIS BRASIL 115                    SAO JOAO    91010004PORTO ALEGRE   RS                                  00000000 000022
10209442991000137661600062425    00004583                     000045830000000000000109                     I01ORC001287/20021500000000089003410000001N050215000000000000000060000000000000000000000000000000000000000000000219837271000124CONFIANCA CENTRO AUTOMOTIVO LT          RUA MAJOR ALBERTO BINS 221              VILA PARQUE 94935440CACHOEIRINHA   RS                                  00000000 000023
10209442991000137661600062425    00004584                     000045840000000000000109                     I01ORC001288/20021500000000089003410000001N050215000000000000000060000000000000000000000000000000000000000000000208935632000159COPCESKI CHAPEACAO E PINTURA L          AV DORIVAL CANDIDO LUZ DE OLIVEIRA 7328 BOM PRINCIPI94070000GRAVATAI       RS                                  00000000 000024
10209442991000137661600062425    00004585                     000045850000000000000109                     I01ORC001289/20021500000000083743410000001N050215000000000000000060000000000000000000000000000000000000000000000208381912000162CSP AUTO CENTER LTDA                    AV JOSE LOUREIRO DA SILVA 2484          SANTA LUZIA 94010000GRAVATAI       RS                                  00000000 000025
10209442991000137661600062425    00004586                     000045860000000000000109                     I01ORC001290/20021500000000088363410000001N050215000000000000000060000000000000000000000000000000000000000000000211929978000159CVB PECAS E ACESSORIOS LTDA             RUA ITAPININGA 635                      PQ. DA MATRI94950430CACHOEIRINHA   RS                                  00000000 000026
10209442991000137661600062425    00004587                     000045870000000000000109                     I01ORC001291/20021500000000071443410000001N050215000000000000000050000000000000000000000000000000000000000000000205000283000195DALLA NORA E SOUZA LTDA                 RUA 7 DE SETEMBRO 80                    CENTRO      95520000OSORIO         RS                                  00000000 000027
10209442991000137661600062425    00004588                     000045880000000000000109                     I01ORC001292/20021500000000054803410000001N050215000000000000000040000000000000000000000000000000000000000000000207698408000128DANIEL CELULARES                        RUA ANAPIO GOMES 1668                   CENTRO      94035330GRAVATAI       RS                                  00000000 000028
10209442991000137661600062425    00004589                     000045890000000000000109                     I01ORC001293/20021500000000088363410000001N050215000000000000000060000000000000000000000000000000000000000000000214118093000168DANIEL MARTINS R. E CIA LTDA -          RUA ESTREMOSA 169                       PARQUE GRANJ94960577CACHOEIRINHA   RS                                  00000000 000029
10209442991000137661600062425    00004590                     000045900000000000000109                     I01ORC001294/20021500000000088363410000001N050215000000000000000060000000000000000000000000000000000000000000000288210166000183DISPLAYS IND. E COM. DE ETIQUE          AVENIDA SALVADOR LEAO 756               SARANDI     91130700PORTO ALEGRE   RS                                  00000000 000030
10209442991000137661600062425    00004591                     000045910000000000000109                     I01ORC001295/20021500000000132803410000001N050215000000000000000090000000000000000000000000000000000000000000000213247845000128DISTRIBUIDORA DE ALIMENTOS BIL          RUA MARQUES DO POMBAL 460               SAO LUIS    93800000SAPIRANGA      RS                                  00000000 000031
10209442991000137661600062425    00004592                     000045920000000000000109                     I01ORC001296/20021500000000089003410000001N050215000000000000000060000000000000000000000000000000000000000000000212664100000100DOUGLAS DIHL KLEIN                      RUA JORGE AMADO 647                     SANTA CRUZ  94155030GRAVATAI       RS                                  00000000 000032
10209442991000137661600062425    00004593                     000045930000000000000109                     I01ORC001297/20021500000000083563410000001N050215000000000000000060000000000000000000000000000000000000000000000204678387000190D’CAPA INDUSTRIA E COMERCIO DE          RS 020 8083                                         94175170GRAVATAI       RS                                  00000000 000033
10209442991000137661600062425    00004594                     000045940000000000000109                     I01ORC001298/20021500000000120003410000001N050215000000000000000080000000000000000000000000000000000000000000000211384828000107E M R CONFECCOES LTDA - EPP             R SALVADOR CANELAS SOBRINHO 150         CENTRO      94015010GRAVATAI       RS                                  00000000 000034
10209442991000137661600062425    00004595                     000045950000000000000109                     I01ORC001299/20021500000000083213410000001N050215000000000000000060000000000000000000000000000000000000000000000211467006000190ELIANE GALON MARTINS                    AVENIDA DA AZENHA 580                   AZENHA      90160005PORTO ALEGRE   RS                                  00000000 000035
10209442991000137661600062425    00004596                     000045960000000000000109                     I01ORC001300/20021500000000120003410000001N050215000000000000000080000000000000000000000000000000000000000000000216949616000143ENGLERT E SZINVELSKI AUTO-ELET          RUA CONSELHIEIRO TRAVASSOS 368          SAO GERALDO 90230140PORTO ALEGRE   RS                                  00000000 000036
10209442991000137661600062425    00004597                     000045970000000000000109                     I01ORC001302/20021500000000083213410000001N050215000000000000000060000000000000000000000000000000000000000000000218508573000196EVA E MARLICE DE ROUPAS LTDA M          RUA PREFEITO ARY TUBBS 659              CENTRO      94010180GRAVATAI       RS                                  00000000 000037
10209442991000137661600062425    00004598                     000045980000000000000109                     I01ORC001303/20021500000000089003410000001N050215000000000000000060000000000000000000000000000000000000000000000205474930000109EVERTON LUIS RAMOS PINTO                AVENIDA FERNANDO FERRARI 1001           ANCHIETA    90200041PORTO ALEGRE   RS                                  00000000 000038
10209442991000137661600062425    00004599                     000045990000000000000109                     I01ORC001304/20021500000000089003410000001N050215000000000000000060000000000000000000000000000000000000000000000208512218000137FABIANO CARDOSO CIECIELSKI - M          R BONIFACIO CARVALHO BERNARDES 110      BR. CARLOS W94930030CACHOEIRINHA   RS                                  00000000 000039
10209442991000137661600062425    00004600                     000046000000000000000109                     I01ORC001305/20021500000000089003410000001N050215000000000000000060000000000000000000000000000000000000000000000214290943000100FAGNER DA SILVA COIMBRA - ME            AV DO NAZARIO 274                       OLARIA      92035000CANOAS         RS                                  00000000 000040
10209442991000137661600062425    00004601                     000046010000000000000109                     I01ORC001306/20021500000000089003410000001N050215000000000000000060000000000000000000000000000000000000000000000209375693000171FERRAGEM ORSO LTDA                      RUA DR JORGE DA COSTA 275               SAO GERALDO 94150140GRAVATAI       RS                                  00000000 000041
10209442991000137661600062425    00004602                     000046020000000000000109                     I01ORC001307/20021500000000081333410000001N050215000000000000000050000000000000000000000000000000000000000000000205369972000171FUSE TECNOLOGIA LTDA                    AV SERGIPE 314                          GLORIA      91720110PORTO ALEGRE   RS                                  00000000 000042
10209442991000137661600062425    00004603                     000046030000000000000109                     I01ORC001308/20021500000000120703410000001N050215000000000000000080000000000000000000000000000000000000000000000291239897000166GG DIMELLO DOS SANTOS EPP               RUA VANIO ABILIO DOS SANTOS 4155        SANTO ANTONI94170303GRAVATAI       RS                                  00000000 000043
10209442991000137661600062425    00004604                     000046040000000000000109                     I01ORC001309/20021500000000085193410000001N050215000000000000000060000000000000000000000000000000000000000000000210686199000107GIOVANE ALGAYER DO NASCIMENTO           RUA HORACIO LADICEU DUTRA 148           PARQUE DOS A94190080GRAVATAI       RS                                  00000000 000044
10209442991000137661600062425    00004605                     000046050000000000000109                     I01ORC001310/20021500000000054803410000001N050215000000000000000040000000000000000000000000000000000000000000000206192960000187GRAFICA VERFLEX LTDA - ME               RUA JOSE PINHEIRO BORBA 38              PIRATINI    94838320ALVORADA       RS                                  00000000 000045
10209442991000137661600062425    00004606                     000046060000000000000109                     I01ORC001311/20021500000000083743410000001N050215000000000000000060000000000000000000000000000000000000000000000210856289000107GUILHERME HENRIQUE BITENCOURT           RUA NUTRELA 105                         NOVO MUNDO  94075500GRAVATAI       RS                                  00000000 000046
10209442991000137661600062425    00004607                     000046070000000000000109                     I01ORC001312/20021500000000088363410000001N050215000000000000000060000000000000000000000000000000000000000000000204809012000112HELDT DESIGNER IND. E COM LTDA          RUA FRANCELINO SCHIMITZ 73              CRUZEIRO    94065340GRAVATAI       RS                                  00000000 000047
10209442991000137661600062425    00004608                     000046080000000000000109                     I01ORC001313/20021500000000120003410000001N050215000000000000000080000000000000000000000000000000000000000000000203551607000158HELPRINTERS RECICLAGEM DE CART          RUA BOA VISTA 158                       BOM PRINCIPI94950070CACHOEIRINHA   RS                                  00000000 000048
10209442991000137661600062425    00004609                     000046090000000000000109                     I01ORC001314/20021500000000065313410000001N050215000000000000000040000000000000000000000000000000000000000000000293387546000128HOSP. CLINICAS VETRINARIAS RS           RUA DOUTOR MURTINHO 324                 BOM JESUS   91420070PORTO ALEGRE   RS                                  00000000 000049
10209442991000137661600062425    00004610                     000046100000000000000109                     I01ORC001315/20021500000000145003410000001N050215000000000000000100000000000000000000000000000000000000000000000210562113000134ILUMY FLEX LTDA                         RUA MONTEIRO LOBATO 847                 PARQUE DA MA94940110CACHOEIRINHA   RS                                  00000000 000050
10209442991000137661600062425    00004611                     000046110000000000000109                     I01ORC001316/20021500000000073313410000001N050215000000000000000050000000000000000000000000000000000000000000000210274734000112INSTALEMOS MANUTENCOES E INSTA          RUA OSORIO RAMOS CORREIA 350            CENTRO      94010280GRAVATAI       RS                                  00000000 000051
10209442991000137661600062425    00004612                     000046120000000000000109                     I01ORC001316/20021500000000073313410000001N050215000000000000000050000000000000000000000000000000000000000000000210274734000112INSTALEMOS MANUTENCOES E INSTA          RUA OSORIO RAMOS CORREIA 350            CENTRO      94010280GRAVATAI       RS                                  00000000 000052
10209442991000137661600062425    00004614                     000046140000000000000109                     I01ORC001318/20021500000000085193410000001N050215000000000000000060000000000000000000000000000000000000000000000210958923000104JANAINA AZEVEDO DA ROCHA                RUA MARIA CUNHA BUENO 452               SITIO GAUCHO94180290GRAVATAI       RS                                  00000000 000053
10209442991000137661600062425    00004615                     000046150000000000000109                     I01ORC001319/20021500000000083563410000001N050215000000000000000060000000000000000000000000000000000000000000000294166204000140JLC COM DE VEICULOS LTDA                AV ROCCO ALOISE 30                      SARANDI     91110000PORTO ALEGRE   RS                                  00000000 000054
10209442991000137661600062425    00004616                     000046160000000000000109                     I01ORC001320/20021500000000120003410000001N050215000000000000000080000000000000000000000000000000000000000000000205054785000107JOAO DA SILVA PEREIRA - ME              EST RS 040 KM 47 28200                  CAPAO DA POR94770000VIAMAO         RS                                  00000000 000055
10209442991000137661600062425    00004617                     000046170000000000000109                     I01ORC001321/20021500000000085193410000001N050215000000000000000060000000000000000000000000000000000000000000000208440204000155JTC ENGRENAGENS E SERVICOS LTD          AV TIRADENTES 162                       FONTOURA    94850000ALVORADA       RS                                  00000000 000056
10209442991000137661600062425    00004618                     000046180000000000000109                     I01ORC001322/20021500000000085193410000001N050215000000000000000060000000000000000000000000000000000000000000000200119995000104K G INDUSTRIA DE ESTOJOS E EXP          RUA DOS TAPUIAS 175                     SAO GERALDO 94150420GRAVATAI       RS                                  00000000 000057
10209442991000137661600062425    00004619                     000046190000000000000109                     I01ORC001323/20021500000000054803410000001N050215000000000000000040000000000000000000000000000000000000000000000204190295000167KALLANGO LTDA                           RUA VILA MONJOLO 7849                   PRIMEIRO DIS95500000SANTO ANTONIO DRS                                  00000000 000058
10209442991000137661600062425    00004620                     000046200000000000000109                     I01ORC001324/20021500000000134223410000001N050215000000000000000090000000000000000000000000000000000000000000000209154124000104KEC PROCESSAMENTO DE DADOS              RUA CORONEL SARMENTO 1704               CENTRO      94010030GRAVATAI       RS                                  00000000 000059
10209442991000137661600062425    00004621                     000046210000000000000109                     I01ORC001325/20021500000000089003410000001N050215000000000000000060000000000000000000000000000000000000000000000204030976000168KONTOR MOVEIS DE ESCRITORIO LT          AVENIDA DORIVAL CANDIDO LUIZ DE OLIVEIRAEVEREST     94030000GRAVATAI       RS                                  00000000 000060
10209442991000137661600062425    00004622                     000046220000000000000109                     I01ORC001326/20021500000000085193410000001N050215000000000000000060000000000000000000000000000000000000000000000209564221000167LANA CALIBRACAO DE INSTRUMENTO          AV BRASIL 1660                          SAO GERALDO 94150000GRAVATAI       RS                                  00000000 000061
10209442991000137661600062425    00004623                     000046230000000000000109                     I01ORC001327/20021500000000082863410000001N050215000000000000000060000000000000000000000000000000000000000000000209247054000120LEANDRO BATISTA DE FRAGA                AVENIDA DORIVAL CANDIDO LUIZ DE OLIVEIRASAO VICENTE 94060000GRAVATAI       RS                                  00000000 000062
10209442991000137661600062425    00004624                     000046240000000000000109                     I01ORC001328/20021500000000081803410000001N050215000000000000000050000000000000000000000000000000000000000000000294064631000118LUCIA'S CONFECCOES LTDA ME              RUA ELVIS PRESLEY 195                   PARQUE GARIB94090050GRAVATAI       RS                                  00000000 000063
10209442991000137661600062425    00004625                     000046250000000000000109                     I01ORC001329/20021500000000096193410000001N050215000000000000000060000000000000000000000000000000000000000000000206352958000209M M FIALHO                              AV FLORES DA CUNHA 4001                 BOM PRINCIPI94950001CACHOEIRINHA   RS                                  00000000 000064
10209442991000137661600062425    00004626                     000046260000000000000109                     I01ORC001330/20021500000000120003410000001N050215000000000000000080000000000000000000000000000000000000000000000209292283000167M. DA ROSA MICROCERVEJARIA - M          R JOAO MARIA DA FONSECA 505             PASSO DAS PE94035190GRAVATAI       RS                                  00000000 000065
10209442991000137661600062425    00004627                     000046270000000000000109                     I01ORC001331/20021500000000083743410000001N050215000000000000000060000000000000000000000000000000000000000000000207854908000101MACDIESEL SERVICOS EM MOTORES           RUA PEDRO MAIA 191                      SAO GERALDO 94150361GRAVATAI       RS                                  00000000 000066
10209442991000137661600062425    00004628                     000046280000000000000109                     I01ORC001332/20021500000000169553410000001N050215000000000000000110000000000000000000000000000000000000000000000205461000000102MADECASA COM DE MAT DE CONSTRU          RUA ADRIAO MONTEIRO DOS SANTOS 2838     CENTRO      95552000CAPIVARI DO SULRS                                  00000000 000067
10209442991000137661600062425    00004629                     000046290000000000000109                     I01ORC001332/20021500000000169553410000001N050215000000000000000110000000000000000000000000000000000000000000000205461000000102MADECASA COM DE MAT DE CONSTRU          RUA ADRIAO MONTEIRO DOS SANTOS 2838     CENTRO      95552000CAPIVARI DO SULRS                                  00000000 000068
10209442991000137661600062425    00004630                     000046300000000000000109                     I01ORC001333/20021500000000083473410000001N050215000000000000000060000000000000000000000000000000000000000000000208266347000192MAQ SERVICE ASS. TEC. E LOC. E          AV. DORIVAL CANDIDO LUZ DE OLIVEIRA 1919COHAB C     94030001GRAVATAI       RS                                  00000000 000069
10209442991000137661600062425    00004631                     000046310000000000000109                     I01ORC001334/20021500000000120003410000001N050215000000000000000080000000000000000000000000000000000000000000000207713905000158MARIA CAROLINA MARTINS - ME             AVENIDA DORIVAL CANDIDO DE OLIVEIRA 814 SALGADO FILH94030001GRAVATAI       RS                                  00000000 000070
10209442991000137661600062425    00004632                     000046320000000000000109                     I01ORC001335/20021500000000083563410000001N050215000000000000000060000000000000000000000000000000000000000000000201100468000110MARIA DO CARMO GONCALVES                RUA BORBA GATO 1208                     BOM SUCESSO 94150200GRAVATAI       RS                                  00000000 000071
10209442991000137661600062425    00004633                     000046330000000000000109                     I01ORC001336/20021500000000083943410000001N050215000000000000000060000000000000000000000000000000000000000000000218378820000187MARIA E SILVEIRA DA SILVA E CI          RUA DR LUIZ BASTOS DO PRADO 1685        CENTRO      94010020GRAVATAI       RS                                  00000000 000072
10209442991000137661600062425    00004634                     000046340000000000000109                     I01ORC001337/20021500000000089003410000001N050215000000000000000060000000000000000000000000000000000000000000000219603070000162MAURICIO POCHARSKI HAUBERT 025          AV GENERAL FLORES DA CUNHA 903          VILA VERANOP94910001CACHOEIRINHA   RS                                  00000000 000073
10209442991000137661600062425    00004635                     000046350000000000000109                     I01ORC001338/20021500000000089003410000001N050215000000000000000060000000000000000000000000000000000000000000000203529707000188MAXIBOMBAS COMERCIO DE BOMBAS           RUA ROCHA POMBO 18                      SANTA TEREZA93037100SAO LEOPOLDO   RS                                  00000000 000074
10209442991000137661600062425    00004636                     000046360000000000000109                     I01ORC001339/20021500000000078953410000001N050215000000000000000050000000000000000000000000000000000000000000000204816321000110MD IND E COM DE MATRIZES LTDA           RUA LATERAL RS-020 1800                 MORADA DO VA94100250GRAVATAI       RS                                  00000000 000075
10209442991000137661600062425    00004637                     000046370000000000000109                     I01ORC001340/20021500000000054803410000001N050215000000000000000040000000000000000000000000000000000000000000000209285612000142METAL GRAVA LTDA                        RUA JOAO RIBEIRO 115                    RONDONIA    93420410NOVO HAMBURGO  RS                                  00000000 000076
10209442991000137661600062425    00004638                     000046380000000000000109                     I01ORC001341/20021500000000085353410000001N050215000000000000000060000000000000000000000000000000000000000000000200712325000105MK MONTAGEM DE KITS ELETRONICO          RUA BERNARDO JOAQUIM FERREIRA 735       CACA E PESCA94190000GRAVATAI       RS                                  00000000 000077
10209442991000137661600062425    00004639                     000046390000000000000109                     I01ORC001342/20021500000000105163410000001N050215000000000000000070000000000000000000000000000000000000000000000209022322000106MULTIMOBILE BRASIL SOLUCOES EM          ESTRADA MUNICIPAL 645                   NEOPOLIS    94100000GRAVATAI       RS                                  00000000 000078
10209442991000137661600062425    00004640                     000046400000000000000109                     I01ORC001343/20021500000000083473410000001N050215000000000000000060000000000000000000000000000000000000000000000217353713000131NEOCOR TINTAS LTDA                      RUA AMAPA 525                           VL PONTA POR94935050CACHOEIRINHA   RS                                  00000000 000079
10209442991000137661600062425    00004641                     000046410000000000000109                     I01ORC001344/20021500000000083563410000001N050215000000000000000060000000000000000000000000000000000000000000000202138738000145NERON MENGER                            AVENIDA PRESIDENTE GETULIO VARGAS 452   BELA VISTA  94810000ALVORADA       RS                                  00000000 000080
10209442991000137661600062425    00004642                     000046420000000000000109                     I01ORC001345/20021500000000081403410000001N050215000000000000000050000000000000000000000000000000000000000000000203314686000183NEW TECK EQUIPAMENTOS E SISTEM          RUA ELOI MACHADO 247                    CONCEICAO   94170370GRAVATAI       RS                                  00000000 000081
10209442991000137661600062425    00004643                     000046430000000000000109                     I01ORC001346/20021500000000084773410000001N050215000000000000000060000000000000000000000000000000000000000000000200614935000168NOGARE DIESEL MECANICA E AUTOP          RUA MACHADINHO 1320                     RIO BRANCO  92200440CANOAS         RS                                  00000000 000082
10209442991000137661600062425    00004644                     000046440000000000000109                     I01ORC001346/20021500000000084773410000001N050215000000000000000060000000000000000000000000000000000000000000000200614935000168NOGARE DIESEL MECANICA E AUTOP          RUA MACHADINHO 1320                     RIO BRANCO  92200440CANOAS         RS                                  00000000 000083
10209442991000137661600062425    00004645                     000046450000000000000109                     I01ORC001347/20021500000000085193410000001N050215000000000000000060000000000000000000000000000000000000000000000217765646000162OMX E CRISTIANE FERNANDES LTDA          AVENIDA ALEXANDRINO DE ALENCAR 157      MORADA DO VA94085120GRAVATAI       RS                                  00000000 000084
10209442991000137661600062425    00004646                     000046460000000000000109                     I01ORC001348/20021500000000082863410000001N050215000000000000000060000000000000000000000000000000000000000000000208390159000171PADRONIZA UNIFORMES IND E COM           RUA ZEFERINO DIAS 997                   SARANDI     91130480PORTO ALEGRE   RS                                  00000000 000085
10209442991000137661600062425    00004647                     000046470000000000000109                     I01ORC001349/20021500000000076693410000001N050215000000000000000050000000000000000000000000000000000000000000000293013217000117PAULO CESAR CORREA RIBEIRO              RUA INTENDENTE ALFREDO AZEVEDO 515      GLORIA      91710010PORTO ALEGRE   RS                                  00000000 000086
10209442991000137661600062425    00004648                     000046480000000000000109                     I01ORC001350/20021500000000089003410000001N050215000000000000000060000000000000000000000000000000000000000000000216658271000179PITBULL PECAS E ACESSORIOS AUT          RUA GUILHERME SCHMITZ 385               PARQUE OLIND94065200GRAVATAI       RS                                  00000000 000087
10209442991000137661600062425    00004649                     000046490000000000000109                     I01ORC001350/20021500000000089003410000001N050215000000000000000060000000000000000000000000000000000000000000000216658271000179PITBULL PECAS E ACESSORIOS AUT          RUA GUILHERME SCHMITZ 385               PARQUE OLIND94065200GRAVATAI       RS                                  00000000 000088
10209442991000137661600062425    00004650                     000046500000000000000109                     I01ORC001351/20021500000000089003410000001N050215000000000000000060000000000000000000000000000000000000000000000200084455000132PLASTICOS SCHMIDT LTDA                  RUA PEDRO ALVARES CABRAL 209            RIO BRANCO  93310330NOVO HAMBURGO  RS                                  00000000 000089
10209442991000137661600062425    00004651                     000046510000000000000109                     I01ORC001352/20021500000000081403410000001N050215000000000000000050000000000000000000000000000000000000000000000291688119000154PLASTICOS VAPA LTDA                     AVENIDA GENERAL FLORES DA CUNHA 4519    BOM PRINCIPI94950001CACHOEIRINHA   RS                                  00000000 000090
10209442991000137661600062425    00004652                     000046520000000000000109                     I01ORC001353/20021500000000088363410000001N050215000000000000000060000000000000000000000000000000000000000000000208964494000136POLYTEXTIL IND. E COM. LTDA             RUA VINTE DE SETEMBRO 1143              BARNABE     94150010GRAVATAI       RS                                  00000000 000091
10209442991000137661600062425    00004653                     000046530000000000000109                     I01ORC001354/20021500000000120003410000001N050215000000000000000080000000000000000000000000000000000000000000000214758149000220PPA3 COMERCIO E DISTRIBUICAO D          RUA ANGELO CHIARELLO 3246               PIO X       95032460CAXIAS DO SUL  RS                                  00000000 000092
10209442991000137661600062425    00004654                     000046540000000000000109                     I01ORC001355/20021500000000084773410000001N050215000000000000000060000000000000000000000000000000000000000000000214758149000149PPA3 COMERCIO E DISTRIBUICAO D          RUA OTAVIO SCHEMES 815                  BARNABE     94155000GRAVATAI       RS                                  00000000 000093
10209442991000137661600062425    00004655                     000046550000000000000109                     I01ORC001356/20021500000000089003410000001N050215000000000000000060000000000000000000000000000000000000000000000206970918000140QUALIPAR EQUIPAMENTOS INDUSTRI          RUA JOSE GOMES 82                       PASSAO DAS P94035220GRAVATAI       RS                                  00000000 000094
10209442991000137661600062425    00004656                     000046560000000000000109                     I01ORC001357/20021500000000060003410000001N050215000000000000000040000000000000000000000000000000000000000000000207025776000105RENOTEC MANUTENCAO INDUSTRIA E          R GUARULHOS 146                         PARQUE JARDI94075310GRAVATAI       RS                                  00000000 000095
10209442991000137661600062425    00004657                     000046570000000000000109                     I01ORC001358/20021500000000072913410000001N050215000000000000000050000000000000000000000000000000000000000000000207354219000138RL COM DE FERRAMENTAS LTDA              RUA BRACO DO NORTE 36                   COHAB A     00000000GRAVATAI       RS                                  00000000 000096
10209442991000137661600062425    00004658                     000046580000000000000109                     I01ORC001359/20021500000000088363410000001N050215000000000000000060000000000000000000000000000000000000000000000206971699000113RODRIGO DE CAMPOS PEREIRA               RUA EDMAR BORBA ARAUJO 31               CHACARA VELH95540000PALMARES DO SULRS                                  00000000 000097
10209442991000137661600062425    00004659                     000046590000000000000109                     I01ORC001360/20021500000000077183410000001N050215000000000000000050000000000000000000000000000000000000000000000214502624000111RODRIGO NUNES GOULART                   AV. SENADOR SALGADO FILHO 6235          SAO LUCAS   94450000VIAMAO         RS                                  00000000 000098
10209442991000137661600062425    00004660                     000046600000000000000109                     I01ORC001361/20021500000000089003410000001N050215000000000000000060000000000000000000000000000000000000000000000210423779000101RTI LOCACOES EIRELI - EPP               AVENIDA CENTENARIO 1101                 VARZEA      94010050GRAVATAI       RS                                  00000000 000099
10209442991000137661600062425    00004661                     000046610000000000000109                     I01ORC001362/20021500000000088363410000001N050215000000000000000060000000000000000000000000000000000000000000000211436427000153SAO PEDRO LIVRARIA E PAPELARIA          AV SAO PEDRO 1951                       SAO GERALDO 90230120PORTO ALEGRE   RS                                  00000000 000100
10209442991000137661600062425    00004662                     000046620000000000000109                     I01ORC001363/20021500000000088363410000001N050215000000000000000060000000000000000000000000000000000000000000000274008459000178SERVICO E. ELETRO. PROLAR LTDA          RUA REVERENDO AMERICO VESPUCIO CABRAL 26CENTRO      94410300VIAMAO         RS                                  00000000 000101
10209442991000137661600062425    00004663                     000046630000000000000109                     I01ORC001364/20021500000000085823410000001N050215000000000000000060000000000000000000000000000000000000000000000291338624000179SINDICATO DOS TRAB. NAS IND. Q          AV. JOSE LOUREIRO DA SILVA 2358         SANTA LUZIA 94030001GRAVATAI       RS                                  00000000 000102
10209442991000137661600062425    00004664                     000046640000000000000109                     I01ORC001364/20021500000000085823410000001N050215000000000000000060000000000000000000000000000000000000000000000291338624000179SINDICATO DOS TRAB. NAS IND. Q          AV. JOSE LOUREIRO DA SILVA 2358         SANTA LUZIA 94030001GRAVATAI       RS                                  00000000 000103
10209442991000137661600062425    00004665                     000046650000000000000109                     I01ORC001365/20021500000000088363410000001N050215000000000000000060000000000000000000000000000000000000000000000200515927000164STTILO ARTE REPRESENTACOES LTD          RUA JUVENAL GARCIA 75                   CENTRO      88302040ITAJAI         SC                                  00000000 000104
10209442991000137661600062425    00004666                     000046660000000000000109                     I01ORC001366/20021500000000089003410000001N050215000000000000000060000000000000000000000000000000000000000000000294860541000133THEC FER IND MET LTDA                   RUA JOAO BATISTA, SAO 681               PRQ DOS ANJO94190210GRAVATAI       RS                                  00000000 000105
10209442991000137661600062425    00004667                     000046670000000000000109                     I01ORC001367/20021500000000085193410000001N050215000000000000000060000000000000000000000000000000000000000000000210458626000108TOQUE PELE COM COSM LTDA                RUA LIBERDADE 42                        RIO BRANCO  90420090PORTO ALEGRE   RS                                  00000000 000106
10209442991000137661600062425    00004668                     000046680000000000000109                     I01ORC001368/20021500000000083473410000001N050215000000000000000060000000000000000000000000000000000000000000000203095532000148UBIRAJARA MOACIR BRAUN                  VILA PASSO DO ADAO 985                  MORUNGAVA   94000000GRAVATAI       RS                                  00000000 000107
10209442991000137661600062425    00004669                     000046690000000000000109                     I01ORC001369/20021500000000089003410000001N050215000000000000000060000000000000000000000000000000000000000000000297544043000170URBAN DOORS IMP, EXP E COM LTD          RUA FRANCISCO SILVEIRA BITTENCOURT 1400 SARANDI     91150010PORTO ALEGRE   RS                                  00000000 000108
10209442991000137661600062425    00004670                     000046700000000000000109                     I01ORC001370/20021500000000099543410000001N050215000000000000000070000000000000000000000000000000000000000000000221020213000155VANESSA GANDOLF                         RUA GALILEU 71                          CANUDOS     93544120NOVO HAMBURGO  RS                                  00000000 000109
10209442991000137661600062425    00004671                     000046710000000000000109                     I01ORC001371/20021500000000085193410000001N050215000000000000000060000000000000000000000000000000000000000000000219431575000197VIVIANE PASQUALIN EIRELI                RUA CATURRITA 921                       JARDIM ALGAR94858530ALVORADA       RS                                  00000000 000110
10209442991000137661600062425    00004672                     000046720000000000000109                     I01ORC001372/20021500000000120003410000001N050215000000000000000080000000000000000000000000000000000000000000000209623298000160ZANDONAI METALURGICA LTDA - ME          AV PRESIDENTE KENNEDY 1145              MARROCOS    94045160GRAVATAI       RS                                  00000000 000111
9                                                                                                                                                                                                                                                                                                                                                                                                         000112
