01REMESSA01COBRANCA       661600062425        ANEXO TECNOLOGIA E SISTEMAS EM341BANCO ITAU SA  070415                                                                                                                                                                                                                                                                                                      000001
10209442991000137661600062425    00004805                     000048050000000000000109                     I01ORC001473/20041500000000081403410000001N070415000000000000000050000000000000000000000000000000000000000000000207646678000195A SARMENTO DA SILVA DOCES               RUA PAULO CESAR BACH DE OLIVEIRA 53     ORICO       94010460GRAVATAI       RS                                  00000000 000002
10209442991000137661600062425    00004806                     000048060000000000000109                     I01ORC001474/20041500000000083743410000001N070415000000000000000060000000000000000000000000000000000000000000000212664100000100AFONSO FERNANDES DE OLIVEIRA            PRACA RUI BARBOSA 220                   CENTRO HISTO90030100PORTO ALEGRE   RS                                  00000000 000003
10209442991000137661600062425    00004807                     000048070000000000000109                     I01ORC001475/20041500000000085193410000001N070415000000000000000060000000000000000000000000000000000000000000000209481746000139AJ DIESEL COM PECAS E ACESS PA          AV ELY CORREA 1040                      PRQ DOS ANJO94185352GRAVATAI       RS                                  00000000 000004
10209442991000137661600062425    00004808                     000048080000000000000109                     I01ORC001476/20041500000000066003410000001N070415000000000000000040000000000000000000000000000000000000000000000201321540000210ALCIONE DE ARAUJO MUNIZ                 AV. ELY CORREA 2553                     PARQUE DOS A94010972GRAVATAI       RS                                  00000000 000005
10209442991000137661600062425    00004809                     000048090000000000000109                     I01ORC001477/20041500000000083943410000001N070415000000000000000060000000000000000000000000000000000000000000000208628149000121AMF DISTRIB DE ACESS AUTOMOTIV          AV BERLIM 147                           SAO GERALDO 90240581PORTO ALEGRE   RS                                  00000000 000006
10209442991000137661600062425    00004904                     000049040000000000000109                     I01ORC001573/20041500000000072813410000001N070415000000000000000050000000000000000000000000000000000000000000000289450811000106ANA MARIA FIGUEROA CORREA               RUA VOLUNTARIOS DA PATRIA 595           CENTRO      90030003PORTO ALEGRE   RS                                  00000000 000007
10209442991000137661600062425    00004810                     000048100000000000000109                     I01ORC001478/20041500000000075373410000001N070415000000000000000050000000000000000000000000000000000000000000000290403700000110ANA MARIA SILVEIRA                      RUA LAJES 162                           PARQUE DOS A94180590GRAVATAI       RS                                  00000000 000008
10209442991000137661600062425    00004811                     000048110000000000000109                     I01ORC001479/20041500000000075023410000001N070415000000000000000050000000000000000000000000000000000000000000000273221301000119AUTO ELETRICA BRAUN LTDA                RUA BERNARDINO T. FONSECA 196           CACA E PESCA94190110GRAVATAI       RS                                  00000000 000009
10209442991000137661600062425    00004812                     000048120000000000000109                     I01ORC001480/20041500000000089003410000001N070415000000000000000060000000000000000000000000000000000000000000000206058292000108AUTO ELETRICA E LOCACOES AJS L          RUA CONSELHEIRO TRAVASSOS 368           SAO GERALDO 90230140PORTO ALEGRE   RS                                  00000000 000010
10209442991000137661600062425    00004813                     000048130000000000000109                     I01ORC001481/20041500000000074953410000001N070415000000000000000050000000000000000000000000000000000000000000000201894407000172BOMBAS SINOS IND. E COM. LTDA           RUA ATILIO FORTES 30                    BOA SAUDE   93340000NOVO HAMBURGO  RS                                  00000000 000011
10209442991000137661600062425    00004814                     000048140000000000000109                     I01ORC001482/20041500000000089003410000001N070415000000000000000060000000000000000000000000000000000000000000000216906777000150BRECHO CHIC LTDA - ME                   R CORONEL BORDINI 169                   AUXILIADORA 90440000PORTO ALEGRE   RS                                  00000000 000012
10209442991000137661600062425    00004815                     000048150000000000000109                     I01ORC001483/20041500000000077183410000001N070415000000000000000050000000000000000000000000000000000000000000000213278006000177CANTECH EQUIPAMENTOS LTDA               AVENIDA AVELINO MACIEL NETO 2955        DISTRITO IND94380000GLORINHA       RS                                  00000000 000013
10209442991000137661600062425    00004816                     000048160000000000000109                     I01ORC001484/20041500000000088573410000001N070415000000000000000060000000000000000000000000000000000000000000000293678423000146CARLOS ROBERTO COUTINHO FOLTZ           RUA CURITIBA 791                        VILA FATIMA 94955130CACHOEIRINHA   RS                                  00000000 000014
10209442991000137661600062425    00004817                     000048170000000000000109                     I01ORC001485/20041500000000085193410000001N070415000000000000000060000000000000000000000000000000000000000000000274903808000115CC CENTROCAR CENTRO AUTOMOTIVO          AV. GENERAL OSORIO 105                  SALGADO FILH94020000GRAVATAI       RS                                  00000000 000015
10209442991000137661600062425    00004818                     000048180000000000000109                     I01ORC001486/20041500000000055933410000001N070415000000000000000040000000000000000000000000000000000000000000000288844030000125CERAMICA ATLETICO CLUBE                 AVENIDA JOSE LOUREIRO DA SILVA          CENTRO      94010001GRAVATAI       RS                                  00000000 000016
10209442991000137661600062425    00004819                     000048190000000000000109                     I01ORC001487/20041500000000083213410000001N070415000000000000000060000000000000000000000000000000000000000000000214885861000109COM DE TINTAS E FERRAGENS FONI          AV DORIVAL CANDIDO LUZ DE OLIVEIRA 364  CENTRO      94030000GRAVATAI       RS                                  00000000 000017
10209442991000137661600062425    00004820                     000048200000000000000109                     I01ORC001488/20041500000000083743410000001N070415000000000000000060000000000000000000000000000000000000000000000210486493000175COMERCIAL POHLFER LTDA.                 AV. ASSIS BRASIL 115                    SAO JOAO    91010004PORTO ALEGRE   RS                                  00000000 000018
10209442991000137661600062425    00004821                     000048210000000000000109                     I01ORC001489/20041500000000094343410000001N070415000000000000000060000000000000000000000000000000000000000000000219837271000124CONFIANCA CENTRO AUTOMOTIVO LT          RUA MAJOR ALBERTO BINS 221              VILA PARQUE 94935440CACHOEIRINHA   RS                                  00000000 000019
10209442991000137661600062425    00004905                     000049050000000000000109                     I01ORC001574/20041500000000094343410000001N070415000000000000000060000000000000000000000000000000000000000000000208935632000159COPCESKI CHAPEACAO E PINTURA L          AV DORIVAL CANDIDO LUZ DE OLIVEIRA 7328 BOM PRINCIPI94070000GRAVATAI       RS                                  00000000 000020
10209442991000137661600062425    00004822                     000048220000000000000109                     I01ORC001490/20041500000000083743410000001N070415000000000000000060000000000000000000000000000000000000000000000208381912000162CSP AUTO CENTER LTDA                    AV JOSE LOUREIRO DA SILVA 2484          SANTA LUZIA 94010000GRAVATAI       RS                                  00000000 000021
10209442991000137661600062425    00004823                     000048230000000000000109                     I01ORC001491/20041500000000088363410000001N070415000000000000000060000000000000000000000000000000000000000000000211929978000159CVB PECAS E ACESSORIOS LTDA             RUA ITAPININGA 635                      PQ. DA MATRI94950430CACHOEIRINHA   RS                                  00000000 000022
10209442991000137661600062425    00004824                     000048240000000000000109                     I01ORC001492/20041500000000071443410000001N070415000000000000000050000000000000000000000000000000000000000000000205000283000195DALLA NORA E SOUZA LTDA                 RUA 7 DE SETEMBRO 80                    CENTRO      95520000OSORIO         RS                                  00000000 000023
10209442991000137661600062425    00004825                     000048250000000000000109                     I01ORC001493/20041500000000054803410000001N070415000000000000000040000000000000000000000000000000000000000000000207698408000128DANIEL CELULARES                        RUA ANAPIO GOMES 1668                   CENTRO      94035330GRAVATAI       RS                                  00000000 000024
10209442991000137661600062425    00004826                     000048260000000000000109                     I01ORC001494/20041500000000088363410000001N070415000000000000000060000000000000000000000000000000000000000000000214118093000168DANIEL MARTINS R. E CIA LTDA -          RUA ESTREMOSA 169                       PARQUE GRANJ94960577CACHOEIRINHA   RS                                  00000000 000025
10209442991000137661600062425    00004827                     000048270000000000000109                     I01ORC001495/20041500000000088363410000001N070415000000000000000060000000000000000000000000000000000000000000000288210166000183DISPLAYS IND. E COM. DE ETIQUE          AVENIDA SALVADOR LEAO 756               SARANDI     91130700PORTO ALEGRE   RS                                  00000000 000026
10209442991000137661600062425    00004828                     000048280000000000000109                     I01ORC001496/20041500000000132803410000001N070415000000000000000090000000000000000000000000000000000000000000000213247845000128DISTRIBUIDORA DE ALIMENTOS BIL          RUA MARQUES DO POMBAL 460               SAO LUIS    93800000SAPIRANGA      RS                                  00000000 000027
10209442991000137661600062425    00004829                     000048290000000000000109                     I01ORC001497/20041500000000094343410000001N070415000000000000000060000000000000000000000000000000000000000000000212664100000100DOUGLAS DIHL KLEIN                      RUA JORGE AMADO 647                     SANTA CRUZ  94155030GRAVATAI       RS                                  00000000 000028
10209442991000137661600062425    00004830                     000048300000000000000109                     I01ORC001498/20041500000000088573410000001N070415000000000000000060000000000000000000000000000000000000000000000204678387000190D’CAPA INDUSTRIA E COMERCIO DE          RS 020 8083                                         94175170GRAVATAI       RS                                  00000000 000029
10209442991000137661600062425    00004831                     000048310000000000000109                     I01ORC001499/20041500000000120003410000001N070415000000000000000080000000000000000000000000000000000000000000000211384828000107E M R CONFECCOES LTDA - EPP             R SALVADOR CANELAS SOBRINHO 150         CENTRO      94015010GRAVATAI       RS                                  00000000 000030
10209442991000137661600062425    00004832                     000048320000000000000109                     I01ORC001500/20041500000000083213410000001N070415000000000000000060000000000000000000000000000000000000000000000211467006000190ELIANE GALON MARTINS                    AVENIDA DA AZENHA 580                   AZENHA      90160005PORTO ALEGRE   RS                                  00000000 000031
10209442991000137661600062425    00004833                     000048330000000000000109                     I01ORC001501/20041500000000120003410000001N070415000000000000000080000000000000000000000000000000000000000000000216949616000143ENGLERT E SZINVELSKI AUTO-ELET          RUA CONSELHIEIRO TRAVASSOS 368          SAO GERALDO 90230140PORTO ALEGRE   RS                                  00000000 000032
10209442991000137661600062425    00004834                     000048340000000000000109                     I01ORC001502/20041500000000083213410000001N070415000000000000000060000000000000000000000000000000000000000000000218508573000196EVA E MARLICE DE ROUPAS LTDA M          RUA PREFEITO ARY TUBBS 659              CENTRO      94010180GRAVATAI       RS                                  00000000 000033
10209442991000137661600062425    00004835                     000048350000000000000109                     I01ORC001503/20041500000000094343410000001N070415000000000000000060000000000000000000000000000000000000000000000205474930000109EVERTON LUIS RAMOS PINTO                AVENIDA FERNANDO FERRARI 1001           ANCHIETA    90200041PORTO ALEGRE   RS                                  00000000 000034
10209442991000137661600062425    00004836                     000048360000000000000109                     I01ORC001504/20041500000000089003410000001N070415000000000000000060000000000000000000000000000000000000000000000208512218000137FABIANO CARDOSO CIECIELSKI - M          R BONIFACIO CARVALHO BERNARDES 110      BR. CARLOS W94930030CACHOEIRINHA   RS                                  00000000 000035
10209442991000137661600062425    00004837                     000048370000000000000109                     I01ORC001505/20041500000000089003410000001N070415000000000000000060000000000000000000000000000000000000000000000214290943000100FAGNER DA SILVA COIMBRA - ME            AV DO NAZARIO 274                       OLARIA      92035000CANOAS         RS                                  00000000 000036
10209442991000137661600062425    00004838                     000048380000000000000109                     I01ORC001506/20041500000000089003410000001N070415000000000000000060000000000000000000000000000000000000000000000209375693000171FERRAGEM ORSO LTDA                      RUA DR JORGE DA COSTA 275               SAO GERALDO 94150140GRAVATAI       RS                                  00000000 000037
10209442991000137661600062425    00004839                     000048390000000000000109                     I01ORC001507/20041500000000089003410000001N070415000000000000000060000000000000000000000000000000000000000000000218366553000128FORTUNA E AGUIAR LTDA - ME              AV PRESIDENTE CASTELO BRANCO 235        CENTRO      95380000ESMERALDA      RS                                  00000000 000038
10209442991000137661600062425    00004840                     000048400000000000000109                     I01ORC001508/20041500000000081333410000001N070415000000000000000050000000000000000000000000000000000000000000000205369972000171FUSE TECNOLOGIA LTDA                    AV SERGIPE 314                          GLORIA      91720110PORTO ALEGRE   RS                                  00000000 000039
10209442991000137661600062425    00004841                     000048410000000000000109                     I01ORC001509/20041500000000120703410000001N070415000000000000000080000000000000000000000000000000000000000000000291239897000166GG DIMELLO DOS SANTOS EPP               RUA VANIO ABILIO DOS SANTOS 4155        SANTO ANTONI94170303GRAVATAI       RS                                  00000000 000040
10209442991000137661600062425    00004842                     000048420000000000000109                     I01ORC001510/20041500000000085193410000001N070415000000000000000060000000000000000000000000000000000000000000000210686199000107GIOVANE ALGAYER DO NASCIMENTO           RUA HORACIO LADICEU DUTRA 148           PARQUE DOS A94190080GRAVATAI       RS                                  00000000 000041
10209442991000137661600062425    00004843                     000048430000000000000109                     I01ORC001511/20041500000000054803410000001N070415000000000000000040000000000000000000000000000000000000000000000206192960000187GRAFICA VERFLEX LTDA - ME               RUA JOSE PINHEIRO BORBA 38              PIRATINI    94838320ALVORADA       RS                                  00000000 000042
10209442991000137661600062425    00004844                     000048440000000000000109                     I01ORC001512/20041500000000089003410000001N070415000000000000000060000000000000000000000000000000000000000000000221849038000103GTI COMERCIO LTDA - ME                  ROD ROD RS 020 17115                    MORUNGAVA   94360000GRAVATAI       RS                                  00000000 000043
10209442991000137661600062425    00004845                     000048450000000000000109                     I01ORC001513/20041500000000083743410000001N070415000000000000000060000000000000000000000000000000000000000000000210856289000107GUILHERME HENRIQUE BITENCOURT           RUA NUTRELA 105                         NOVO MUNDO  94075500GRAVATAI       RS                                  00000000 000044
10209442991000137661600062425    00004846                     000048460000000000000109                     I01ORC001514/20041500000000088363410000001N070415000000000000000060000000000000000000000000000000000000000000000204809012000112HELDT DESIGNER IND. E COM LTDA          RUA FRANCELINO SCHIMITZ 73              CRUZEIRO    94065340GRAVATAI       RS                                  00000000 000045
10209442991000137661600062425    00004847                     000048470000000000000109                     I01ORC001515/20041500000000120003410000001N070415000000000000000080000000000000000000000000000000000000000000000203551607000158HELPRINTERS RECICLAGEM DE CART          RUA BOA VISTA 158                       BOM PRINCIPI94950070CACHOEIRINHA   RS                                  00000000 000046
10209442991000137661600062425    00004848                     000048480000000000000109                     I01ORC001516/20041500000000065313410000001N070415000000000000000040000000000000000000000000000000000000000000000293387546000128HOSP. CLINICAS VETRINARIAS RS           RUA DOUTOR MURTINHO 324                 BOM JESUS   91420070PORTO ALEGRE   RS                                  00000000 000047
10209442991000137661600062425    00004849                     000048490000000000000109                     I01ORC001517/20041500000000145003410000001N070415000000000000000100000000000000000000000000000000000000000000000210562113000134ILUMY FLEX LTDA                         RUA MONTEIRO LOBATO 847                 PARQUE DA MA94940110CACHOEIRINHA   RS                                  00000000 000048
10209442991000137661600062425    00004850                     000048500000000000000109                     I01ORC001518/20041500000000073313410000001N070415000000000000000050000000000000000000000000000000000000000000000210274734000112INSTALEMOS MANUTENCOES E INSTA          JOAO MARIA DA FONSECA 686               PASSO DAS PE00094035GRAVATAI       RS                                  00000000 000049
10209442991000137661600062425    00004851                     000048510000000000000109                     I01ORC001520/20041500000000085193410000001N070415000000000000000060000000000000000000000000000000000000000000000210958923000104JANAINA AZEVEDO DA ROCHA                RUA MARIA CUNHA BUENO 452               SITIO GAUCHO94180290GRAVATAI       RS                                  00000000 000050
10209442991000137661600062425    00004852                     000048520000000000000109                     I01ORC001521/20041500000000088573410000001N070415000000000000000060000000000000000000000000000000000000000000000294166204000140JLC COM DE VEICULOS LTDA                AV ROCCO ALOISE 30                      SARANDI     91110000PORTO ALEGRE   RS                                  00000000 000051
10209442991000137661600062425    00004906                     000049060000000000000109                     I01ORC001575/20041500000000127163410000001N070415000000000000000080000000000000000000000000000000000000000000000221490186000184JLF MATERIAIS DE CONSTRUCAO LT          ESTRADA DO MONJOLO 5670                 MONJOLO     95500000SANTO ANTONIO DRS                                  00000000 000052
10209442991000137661600062425    00004853                     000048530000000000000109                     I01ORC001522/20041500000000120003410000001N070415000000000000000080000000000000000000000000000000000000000000000205054785000107JOAO DA SILVA PEREIRA - ME              EST RS 040 KM 47 28200                  CAPAO DA POR94770000VIAMAO         RS                                  00000000 000053
10209442991000137661600062425    00004854                     000048540000000000000109                     I01ORC001523/20041500000000085193410000001N070415000000000000000060000000000000000000000000000000000000000000000208440204000155JTC ENGRENAGENS E SERVICOS LTD          AV TIRADENTES 162                       FONTOURA    94850000ALVORADA       RS                                  00000000 000054
10209442991000137661600062425    00004855                     000048550000000000000109                     I01ORC001524/20041500000000085193410000001N070415000000000000000060000000000000000000000000000000000000000000000200119995000104K G INDUSTRIA DE ESTOJOS E EXP          RUA DOS TAPUIAS 175                     SAO GERALDO 94150420GRAVATAI       RS                                  00000000 000055
10209442991000137661600062425    00004856                     000048560000000000000109                     I01ORC001525/20041500000000154803410000001N070415000000000000000100000000000000000000000000000000000000000000000204190295000167KALLANGO LTDA                           RUA VILA MONJOLO 7849                   PRIMEIRO DIS95500000SANTO ANTONIO DRS                                  00000000 000056
10209442991000137661600062425    00004857                     000048570000000000000109                     I01ORC001526/20041500000000134223410000001N070415000000000000000090000000000000000000000000000000000000000000000209154124000104KEC PROCESSAMENTO DE DADOS              RUA CORONEL SARMENTO 1704               CENTRO      94010030GRAVATAI       RS                                  00000000 000057
10209442991000137661600062425    00004858                     000048580000000000000109                     I01ORC001527/20041500000000089003410000001N070415000000000000000060000000000000000000000000000000000000000000000204030976000168KONTOR MOVEIS DE ESCRITORIO LT          AVENIDA DORIVAL CANDIDO LUIZ DE OLIVEIRAEVEREST     94030000GRAVATAI       RS                                  00000000 000058
10209442991000137661600062425    00004859                     000048590000000000000109                     I01ORC001528/20041500000000085193410000001N070415000000000000000060000000000000000000000000000000000000000000000209564221000167LANA CALIBRACAO DE INSTRUMENTO          AV BRASIL 1660                          SAO GERALDO 94150000GRAVATAI       RS                                  00000000 000059
10209442991000137661600062425    00004860                     000048600000000000000109                     I01ORC001529/20041500000000082863410000001N070415000000000000000060000000000000000000000000000000000000000000000209247054000120LEANDRO BATISTA DE FRAGA                AVENIDA DORIVAL CANDIDO LUIZ DE OLIVEIRASAO VICENTE 94060000GRAVATAI       RS                                  00000000 000060
10209442991000137661600062425    00004861                     000048610000000000000109                     I01ORC001530/20041500000000081803410000001N070415000000000000000050000000000000000000000000000000000000000000000294064631000118LUCIA'S CONFECCOES LTDA ME              RUA ELVIS PRESLEY 195                   PARQUE GARIB94090050GRAVATAI       RS                                  00000000 000061
10209442991000137661600062425    00004862                     000048620000000000000109                     I01ORC001531/20041500000000096193410000001N070415000000000000000060000000000000000000000000000000000000000000000206352958000209M M FIALHO                              AV FLORES DA CUNHA 4001                 BOM PRINCIPI94950001CACHOEIRINHA   RS                                  00000000 000062
10209442991000137661600062425    00004863                     000048630000000000000109                     I01ORC001532/20041500000000120003410000001N070415000000000000000080000000000000000000000000000000000000000000000209292283000167M. DA ROSA MICROCERVEJARIA - M          R JOAO MARIA DA FONSECA 505             PASSO DAS PE94035190GRAVATAI       RS                                  00000000 000063
10209442991000137661600062425    00004864                     000048640000000000000109                     I01ORC001533/20041500000000083743410000001N070415000000000000000060000000000000000000000000000000000000000000000207854908000101MACDIESEL SERVICOS EM MOTORES           RUA PEDRO MAIA 191                      SAO GERALDO 94150361GRAVATAI       RS                                  00000000 000064
10209442991000137661600062425    00004865                     000048650000000000000109                     I01ORC001534/20041500000000169553410000001N070415000000000000000110000000000000000000000000000000000000000000000205461000000102MADECASA COM DE MAT DE CONSTRU          RUA ADRIAO MONTEIRO DOS SANTOS 2838     CENTRO      95552000CAPIVARI DO SULRS                                  00000000 000065
10209442991000137661600062425    00004866                     000048660000000000000109                     I01ORC001535/20041500000000088483410000001N070415000000000000000060000000000000000000000000000000000000000000000208266347000192MAQ SERVICE ASS. TEC. E LOC. E          AV. DORIVAL CANDIDO LUZ DE OLIVEIRA 1919COHAB C     94030001GRAVATAI       RS                                  00000000 000066
10209442991000137661600062425    00004867                     000048670000000000000109                     I01ORC001536/20041500000000120003410000001N070415000000000000000080000000000000000000000000000000000000000000000207713905000158MARIA CAROLINA MARTINS - ME             AVENIDA DORIVAL CANDIDO DE OLIVEIRA 814 SALGADO FILH94030001GRAVATAI       RS                                  00000000 000067
10209442991000137661600062425    00004868                     000048680000000000000109                     I01ORC001537/20041500000000088573410000001N070415000000000000000060000000000000000000000000000000000000000000000201100468000110MARIA DO CARMO GONCALVES                RUA BORBA GATO 1208                     BOM SUCESSO 94150200GRAVATAI       RS                                  00000000 000068
10209442991000137661600062425    00004869                     000048690000000000000109                     I01ORC001538/20041500000000083943410000001N070415000000000000000060000000000000000000000000000000000000000000000218378820000187MARIA E SILVEIRA DA SILVA E CI          RUA DR LUIZ BASTOS DO PRADO 1685        CENTRO      94010020GRAVATAI       RS                                  00000000 000069
10209442991000137661600062425    00004870                     000048700000000000000109                     I01ORC001539/20041500000000089003410000001N070415000000000000000060000000000000000000000000000000000000000000000219603070000162MAURICIO POCHARSKI HAUBERT 025          AV GENERAL FLORES DA CUNHA 903          VILA VERANOP94910001CACHOEIRINHA   RS                                  00000000 000070
10209442991000137661600062425    00004871                     000048710000000000000109                     I01ORC001540/20041500000000089003410000001N070415000000000000000060000000000000000000000000000000000000000000000203529707000188MAXIBOMBAS COMERCIO DE BOMBAS           RUA ROCHA POMBO 18                      SANTA TEREZA93037100SAO LEOPOLDO   RS                                  00000000 000071
10209442991000137661600062425    00004872                     000048720000000000000109                     I01ORC001541/20041500000000081323410000001N070415000000000000000050000000000000000000000000000000000000000000000204816321000110MD IND E COM DE MATRIZES LTDA           RUA LATERAL RS-020 1800                 MORADA DO VA94100250GRAVATAI       RS                                  00000000 000072
10209442991000137661600062425    00004873                     000048730000000000000109                     I01ORC001542/20041500000000054803410000001N070415000000000000000040000000000000000000000000000000000000000000000209285612000142METAL GRAVA LTDA                        RUA JOAO RIBEIRO 115                    RONDONIA    93420410NOVO HAMBURGO  RS                                  00000000 000073
10209442991000137661600062425    00004874                     000048740000000000000109                     I01ORC001543/20041500000000085353410000001N070415000000000000000060000000000000000000000000000000000000000000000200712325000105MK MONTAGEM DE KITS ELETRONICO          RUA BERNARDO JOAQUIM FERREIRA 735       CACA E PESCA94190000GRAVATAI       RS                                  00000000 000074
10209442991000137661600062425    00004875                     000048750000000000000109                     I01ORC001544/20041500000000111473410000001N070415000000000000000070000000000000000000000000000000000000000000000209022322000106MULTIMOBILE BRASIL SOLUCOES EM          ESTRADA MUNICIPAL 645                   NEOPOLIS    94100000GRAVATAI       RS                                  00000000 000075
10209442991000137661600062425    00004907                     000049070000000000000109                     I01ORC001576/20041500000000088483410000001N070415000000000000000060000000000000000000000000000000000000000000000217353713000131NEOCOR TINTAS LTDA                      RUA AMAPA 525                           VL PONTA POR94935050CACHOEIRINHA   RS                                  00000000 000076
10209442991000137661600062425    00004876                     000048760000000000000109                     I01ORC001545/20041500000000088573410000001N070415000000000000000060000000000000000000000000000000000000000000000202138738000145NERON MENGER                            AVENIDA PRESIDENTE GETULIO VARGAS 452   BELA VISTA  94810000ALVORADA       RS                                  00000000 000077
10209442991000137661600062425    00004877                     000048770000000000000109                     I01ORC001546/20041500000000081403410000001N070415000000000000000050000000000000000000000000000000000000000000000203314686000183NEW TECK EQUIPAMENTOS E SISTEM          RUA ELOI MACHADO 247                    CONCEICAO   94170370GRAVATAI       RS                                  00000000 000078
10209442991000137661600062425    00004878                     000048780000000000000109                     I01ORC001547/20041500000000084773410000001N070415000000000000000060000000000000000000000000000000000000000000000200614935000168NOGARE DIESEL MECANICA E AUTOP          RUA MACHADINHO 1320                     RIO BRANCO  92200440CANOAS         RS                                  00000000 000079
10209442991000137661600062425    00004879                     000048790000000000000109                     I01ORC001548/20041500000000085193410000001N070415000000000000000060000000000000000000000000000000000000000000000217765646000162OMX E CRISTIANE FERNANDES LTDA          AVENIDA ALEXANDRINO DE ALENCAR 157      MORADA DO VA94085120GRAVATAI       RS                                  00000000 000080
10209442991000137661600062425    00004880                     000048800000000000000109                     I01ORC001549/20041500000000082863410000001N070415000000000000000060000000000000000000000000000000000000000000000208390159000171PADRONIZA UNIFORMES IND E COM           RUA ZEFERINO DIAS 997                   SARANDI     91130480PORTO ALEGRE   RS                                  00000000 000081
10209442991000137661600062425    00004881                     000048810000000000000109                     I01ORC001550/20041500000000076693410000001N070415000000000000000050000000000000000000000000000000000000000000000293013217000117PAULO CESAR CORREA RIBEIRO              RUA INTENDENTE ALFREDO AZEVEDO 515      GLORIA      91710010PORTO ALEGRE   RS                                  00000000 000082
10209442991000137661600062425    00004882                     000048820000000000000109                     I01ORC001551/20041500000000089003410000001N070415000000000000000060000000000000000000000000000000000000000000000216658271000179PITBULL PECAS E ACESSORIOS AUT          RUA GUILHERME SCHMITZ 385               PARQUE OLIND94065200GRAVATAI       RS                                  00000000 000083
10209442991000137661600062425    00004883                     000048830000000000000109                     I01ORC001552/20041500000000094343410000001N070415000000000000000060000000000000000000000000000000000000000000000200084455000132PLASTICOS SCHMIDT LTDA                  RUA PEDRO ALVARES CABRAL 209            RIO BRANCO  93310330NOVO HAMBURGO  RS                                  00000000 000084
10209442991000137661600062425    00004884                     000048840000000000000109                     I01ORC001553/20041500000000081403410000001N070415000000000000000050000000000000000000000000000000000000000000000291688119000154PLASTICOS VAPA LTDA                     AVENIDA GENERAL FLORES DA CUNHA 4519    BOM PRINCIPI94950001CACHOEIRINHA   RS                                  00000000 000085
10209442991000137661600062425    00004885                     000048850000000000000109                     I01ORC001554/20041500000000088363410000001N070415000000000000000060000000000000000000000000000000000000000000000208964494000136POLYTEXTIL IND. E COM. LTDA             RUA VINTE DE SETEMBRO 1143              BARNABE     94150010GRAVATAI       RS                                  00000000 000086
10209442991000137661600062425    00004886                     000048860000000000000109                     I01ORC001555/20041500000000120003410000001N070415000000000000000080000000000000000000000000000000000000000000000214758149000220PPA3 COMERCIO E DISTRIBUICAO D          RUA ANGELO CHIARELLO 3246               PIO X       95032460CAXIAS DO SUL  RS                                  00000000 000087
10209442991000137661600062425    00004887                     000048870000000000000109                     I01ORC001556/20041500000000089863410000001N070415000000000000000060000000000000000000000000000000000000000000000214758149000149PPA3 COMERCIO E DISTRIBUICAO D          RUA OTAVIO SCHEMES 815                  BARNABE     94155000GRAVATAI       RS                                  00000000 000088
10209442991000137661600062425    00004888                     000048880000000000000109                     I01ORC001557/20041500000000089003410000001N070415000000000000000060000000000000000000000000000000000000000000000206970918000140QUALIPAR EQUIPAMENTOS INDUSTRI          RUA JOSE GOMES 82                       PASSAO DAS P94035220GRAVATAI       RS                                  00000000 000089
10209442991000137661600062425    00004889                     000048890000000000000109                     I01ORC001558/20041500000000120003410000001N070415000000000000000080000000000000000000000000000000000000000000000207025776000105RENOTEC MANUTENCAO INDUSTRIA E          R GUARULHOS 146                         PARQUE JARDI94075310GRAVATAI       RS                                  00000000 000090
10209442991000137661600062425    00004908                     000049080000000000000109                     I01ORC001577/20041500000000077283410000001N070415000000000000000050000000000000000000000000000000000000000000000207354219000138RL COM DE FERRAMENTAS LTDA              RUA BRACO DO NORTE 36                   COHAB A     00000000GRAVATAI       RS                                  00000000 000091
10209442991000137661600062425    00004890                     000048900000000000000109                     I01ORC001559/20041500000000088363410000001N070415000000000000000060000000000000000000000000000000000000000000000206971699000113RODRIGO DE CAMPOS PEREIRA               RUA EDMAR BORBA ARAUJO 31               CHACARA VELH95540000PALMARES DO SULRS                                  00000000 000092
10209442991000137661600062425    00004891                     000048910000000000000109                     I01ORC001560/20041500000000077183410000001N070415000000000000000050000000000000000000000000000000000000000000000214502624000111RODRIGO NUNES GOULART                   AV. SENADOR SALGADO FILHO 6235          SAO LUCAS   94450000VIAMAO         RS                                  00000000 000093
10209442991000137661600062425    00004892                     000048920000000000000109                     I01ORC001561/20041500000000094343410000001N070415000000000000000060000000000000000000000000000000000000000000000210423779000101RTI LOCACOES EIRELI - EPP               AVENIDA CENTENARIO 1101                 VARZEA      94010050GRAVATAI       RS                                  00000000 000094
10209442991000137661600062425    00004893                     000048930000000000000109                     I01ORC001562/20041500000000088363410000001N070415000000000000000060000000000000000000000000000000000000000000000211436427000153SAO PEDRO LIVRARIA E PAPELARIA          AV SAO PEDRO 1951                       SAO GERALDO 90230120PORTO ALEGRE   RS                                  00000000 000095
10209442991000137661600062425    00004894                     000048940000000000000109                     I01ORC001563/20041500000000088363410000001N070415000000000000000060000000000000000000000000000000000000000000000274008459000178SERVICO E. ELETRO. PROLAR LTDA          RUA REVERENDO AMERICO VESPUCIO CABRAL 26CENTRO      94410300VIAMAO         RS                                  00000000 000096
10209442991000137661600062425    00004895                     000048950000000000000109                     I01ORC001564/20041500000000085823410000001N070415000000000000000060000000000000000000000000000000000000000000000291338624000179SINDICATO DOS TRAB. NAS IND. Q          AV. JOSE LOUREIRO DA SILVA 2358         SANTA LUZIA 94030001GRAVATAI       RS                                  00000000 000097
10209442991000137661600062425    00004909                     000049090000000000000109                     I01ORC001578/20041500000000120003410000001N070415000000000000000080000000000000000000000000000000000000000000000272425960000104SPORTMANIA INSDUSTRIAL E COM.           AV. VICTOR HUGO KUNZ 2295               HAMBURGO VEL93534000NOVO HAMBURGO  RS                                  00000000 000098
10209442991000137661600062425    00004896                     000048960000000000000109                     I01ORC001565/20041500000000088363410000001N070415000000000000000060000000000000000000000000000000000000000000000200515927000164STTILO ARTE REPRESENTACOES LTD          RUA JUVENAL GARCIA 75                   CENTRO      88302040ITAJAI         SC                                  00000000 000099
10209442991000137661600062425    00004897                     000048970000000000000109                     I01ORC001566/20041500000000094343410000001N070415000000000000000060000000000000000000000000000000000000000000000294860541000133THEC FER IND MET LTDA                   RUA JOAO BATISTA, SAO 681               PRQ DOS ANJO94190210GRAVATAI       RS                                  00000000 000100
10209442991000137661600062425    00004910                     000049100000000000000109                     I01ORC001579/20041500000000091503410000001N070415000000000000000060000000000000000000000000000000000000000000000208073457000138TONIA HAYDER COLLAZIOL                  AVENIDA GENERAL FLORES DA CUNHA 204     VILA SANTO A94910000CACHOEIRINHA   RS                                  00000000 000101
10209442991000137661600062425    00004898                     000048980000000000000109                     I01ORC001567/20041500000000085193410000001N070415000000000000000060000000000000000000000000000000000000000000000210458626000108TOQUE PELE COM COSM LTDA                RUA LIBERDADE 42                        RIO BRANCO  90420090PORTO ALEGRE   RS                                  00000000 000102
10209442991000137661600062425    00004899                     000048990000000000000109                     I01ORC001568/20041500000000088483410000001N070415000000000000000060000000000000000000000000000000000000000000000203095532000148UBIRAJARA MOACIR BRAUN                  VILA PASSO DO ADAO 985                  MORUNGAVA   94000000GRAVATAI       RS                                  00000000 000103
10209442991000137661600062425    00004900                     000049000000000000000109                     I01ORC001569/20041500000000094343410000001N070415000000000000000060000000000000000000000000000000000000000000000297544043000170URBAN DOORS IMP, EXP E COM LTD          RUA FRANCISCO SILVEIRA BITTENCOURT 1400 SARANDI     91150010PORTO ALEGRE   RS                                  00000000 000104
10209442991000137661600062425    00004901                     000049010000000000000109                     I01ORC001570/20041500000000099543410000001N070415000000000000000070000000000000000000000000000000000000000000000221020213000155VANESSA GANDOLF                         RUA GALILEU 71                          CANUDOS     93544120NOVO HAMBURGO  RS                                  00000000 000105
10209442991000137661600062425    00004902                     000049020000000000000109                     I01ORC001571/20041500000000085193410000001N070415000000000000000060000000000000000000000000000000000000000000000219431575000197VIVIANE PASQUALIN EIRELI                RUA CATURRITA 921                       JARDIM ALGAR94858530ALVORADA       RS                                  00000000 000106
10209442991000137661600062425    00004903                     000049030000000000000109                     I01ORC001572/20041500000000120003410000001N070415000000000000000080000000000000000000000000000000000000000000000209623298000160ZANDONAI METALURGICA LTDA - ME          AV PRESIDENTE KENNEDY 1145              MARROCOS    94045160GRAVATAI       RS                                  00000000 000107
9                                                                                                                                                                                                                                                                                                                                                                                                         000108
