01REMESSA01COBRANCA       661600062425        ANEXO TECNOLOGIA E SISTEMAS EM341BANCO ITAU SA  100315                                                                                                                                                                                                                                                                                                      000001
10209442991000137661600062425    00004692                     000046920000000000000109                     I01ORC001374/20031500000000081403410000001N100315000000000000000050000000000000000000000000000000000000000000000207646678000195A SARMENTO DA SILVA DOCES               RUA PAULO CESAR BACH DE OLIVEIRA 53     ORICO       94010460GRAVATAI       RS                                  00000000 000002
10209442991000137661600062425    00004693                     000046930000000000000109                     I01ORC001375/20031500000000083743410000001N100315000000000000000060000000000000000000000000000000000000000000000212664100000100AFONSO FERNANDES DE OLIVEIRA            PRACA RUI BARBOSA 220                   CENTRO HISTO90030100PORTO ALEGRE   RS                                  00000000 000003
10209442991000137661600062425    00004694                     000046940000000000000109                     I01ORC001376/20031500000000085193410000001N100315000000000000000060000000000000000000000000000000000000000000000209481746000139AJ DIESEL COM PECAS E ACESS PA          AV ELY CORREA 1040                      PRQ DOS ANJO94185352GRAVATAI       RS                                  00000000 000004
10209442991000137661600062425    00004695                     000046950000000000000109                     I01ORC001377/20031500000000066003410000001N100315000000000000000040000000000000000000000000000000000000000000000201321540000210ALCIONE DE ARAUJO MUNIZ                 AV. ELY CORREA 2553                     PARQUE DOS A94010972GRAVATAI       RS                                  00000000 000005
10209442991000137661600062425    00004696                     000046960000000000000109                     I01ORC001378/20031500000000083943410000001N100315000000000000000060000000000000000000000000000000000000000000000208628149000121AMF DISTRIB DE ACESS AUTOMOTIV          AV BERLIM 147                           SAO GERALDO 90240581PORTO ALEGRE   RS                                  00000000 000006
10209442991000137661600062425    00004697                     000046970000000000000109                     I01ORC001379/20031500000000075373410000001N100315000000000000000050000000000000000000000000000000000000000000000290403700000110ANA MARIA SILVEIRA                      RUA LAJES 162                           PARQUE DOS A94180590GRAVATAI       RS                                  00000000 000007
10209442991000137661600062425    00004698                     000046980000000000000109                     I01ORC001380/20031500000000075023410000001N100315000000000000000050000000000000000000000000000000000000000000000273221301000119AUTO ELETRICA BRAUN LTDA                RUA BERNARDINO T. FONSECA 196           CACA E PESCA94190110GRAVATAI       RS                                  00000000 000008
10209442991000137661600062425    00004699                     000046990000000000000109                     I01ORC001381/20031500000000089003410000001N100315000000000000000060000000000000000000000000000000000000000000000206058292000108AUTO ELETRICA E LOCACOES AJS L          RUA CONSELHEIRO TRAVASSOS 368           SAO GERALDO 90230140PORTO ALEGRE   RS                                  00000000 000009
10209442991000137661600062425    00004700                     000047000000000000000109                     I01ORC001382/20031500000000074953410000001N100315000000000000000050000000000000000000000000000000000000000000000201894407000172BOMBAS SINOS IND. E COM. LTDA           RUA ATILIO FORTES 30                    BOA SAUDE   93340000NOVO HAMBURGO  RS                                  00000000 000010
10209442991000137661600062425    00004701                     000047010000000000000109                     I01ORC001383/20031500000000044503410000001N100315000000000000000030000000000000000000000000000000000000000000000216906777000150BRECHO CHIC LTDA - ME                   R CORONEL BORDINI 169                   AUXILIADORA 90440000PORTO ALEGRE   RS                                  00000000 000011
10209442991000137661600062425    00004702                     000047020000000000000109                     I01ORC001384/20031500000000077183410000001N100315000000000000000050000000000000000000000000000000000000000000000213278006000177CANTECH EQUIPAMENTOS LTDA               AVENIDA AVELINO MACIEL NETO 2955        DISTRITO IND94380000GLORINHA       RS                                  00000000 000012
10209442991000137661600062425    00004703                     000047030000000000000109                     I01ORC001385/20031500000000088573410000001N100315000000000000000060000000000000000000000000000000000000000000000293678423000146CARLOS ROBERTO COUTINHO FOLTZ           RUA CURITIBA 791                        VILA FATIMA 94955130CACHOEIRINHA   RS                                  00000000 000013
10209442991000137661600062425    00004704                     000047040000000000000109                     I01ORC001386/20031500000000085193410000001N100315000000000000000060000000000000000000000000000000000000000000000274903808000115CC CENTROCAR CENTRO AUTOMOTIVO          AV. GENERAL OSORIO 105                  SALGADO FILH94020000GRAVATAI       RS                                  00000000 000014
10209442991000137661600062425    00004705                     000047050000000000000109                     I01ORC001387/20031500000000055933410000001N100315000000000000000040000000000000000000000000000000000000000000000288844030000125CERAMICA ATLETICO CLUBE                 AVENIDA JOSE LOUREIRO DA SILVA          CENTRO      94010001GRAVATAI       RS                                  00000000 000015
10209442991000137661600062425    00004706                     000047060000000000000109                     I01ORC001388/20031500000000083213410000001N100315000000000000000060000000000000000000000000000000000000000000000214885861000109COM DE TINTAS E FERRAGENS FONI          AV DORIVAL CANDIDO LUZ DE OLIVEIRA 364  CENTRO      94030000GRAVATAI       RS                                  00000000 000016
10209442991000137661600062425    00004707                     000047070000000000000109                     I01ORC001389/20031500000000083743410000001N100315000000000000000060000000000000000000000000000000000000000000000210486493000175COMERCIAL POHLFER LTDA.                 AV. ASSIS BRASIL 115                    SAO JOAO    91010004PORTO ALEGRE   RS                                  00000000 000017
10209442991000137661600062425    00004708                     000047080000000000000109                     I01ORC001390/20031500000000089003410000001N100315000000000000000060000000000000000000000000000000000000000000000219837271000124CONFIANCA CENTRO AUTOMOTIVO LT          RUA MAJOR ALBERTO BINS 221              VILA PARQUE 94935440CACHOEIRINHA   RS                                  00000000 000018
10209442991000137661600062425    00004709                     000047090000000000000109                     I01ORC001391/20031500000000089003410000001N100315000000000000000060000000000000000000000000000000000000000000000208935632000159COPCESKI CHAPEACAO E PINTURA L          AV DORIVAL CANDIDO LUZ DE OLIVEIRA 7328 BOM PRINCIPI94070000GRAVATAI       RS                                  00000000 000019
10209442991000137661600062425    00004710                     000047100000000000000109                     I01ORC001392/20031500000000083743410000001N100315000000000000000060000000000000000000000000000000000000000000000208381912000162CSP AUTO CENTER LTDA                    AV JOSE LOUREIRO DA SILVA 2484          SANTA LUZIA 94010000GRAVATAI       RS                                  00000000 000020
10209442991000137661600062425    00004711                     000047110000000000000109                     I01ORC001393/20031500000000088363410000001N100315000000000000000060000000000000000000000000000000000000000000000211929978000159CVB PECAS E ACESSORIOS LTDA             RUA ITAPININGA 635                      PQ. DA MATRI94950430CACHOEIRINHA   RS                                  00000000 000021
10209442991000137661600062425    00004712                     000047120000000000000109                     I01ORC001394/20031500000000071443410000001N100315000000000000000050000000000000000000000000000000000000000000000205000283000195DALLA NORA E SOUZA LTDA                 RUA 7 DE SETEMBRO 80                    CENTRO      95520000OSORIO         RS                                  00000000 000022
10209442991000137661600062425    00004713                     000047130000000000000109                     I01ORC001395/20031500000000054803410000001N100315000000000000000040000000000000000000000000000000000000000000000207698408000128DANIEL CELULARES                        RUA ANAPIO GOMES 1668                   CENTRO      94035330GRAVATAI       RS                                  00000000 000023
10209442991000137661600062425    00004714                     000047140000000000000109                     I01ORC001396/20031500000000088363410000001N100315000000000000000060000000000000000000000000000000000000000000000214118093000168DANIEL MARTINS R. E CIA LTDA -          RUA ESTREMOSA 169                       PARQUE GRANJ94960577CACHOEIRINHA   RS                                  00000000 000024
10209442991000137661600062425    00004715                     000047150000000000000109                     I01ORC001397/20031500000000088363410000001N100315000000000000000060000000000000000000000000000000000000000000000288210166000183DISPLAYS IND. E COM. DE ETIQUE          AVENIDA SALVADOR LEAO 756               SARANDI     91130700PORTO ALEGRE   RS                                  00000000 000025
10209442991000137661600062425    00004716                     000047160000000000000109                     I01ORC001398/20031500000000132803410000001N100315000000000000000090000000000000000000000000000000000000000000000213247845000128DISTRIBUIDORA DE ALIMENTOS BIL          RUA MARQUES DO POMBAL 460               SAO LUIS    93800000SAPIRANGA      RS                                  00000000 000026
10209442991000137661600062425    00004717                     000047170000000000000109                     I01ORC001399/20031500000000094343410000001N100315000000000000000060000000000000000000000000000000000000000000000212664100000100DOUGLAS DIHL KLEIN                      RUA JORGE AMADO 647                     SANTA CRUZ  94155030GRAVATAI       RS                                  00000000 000027
10209442991000137661600062425    00004718                     000047180000000000000109                     I01ORC001400/20031500000000088573410000001N100315000000000000000060000000000000000000000000000000000000000000000204678387000190D’CAPA INDUSTRIA E COMERCIO DE          RS 020 8083                                         94175170GRAVATAI       RS                                  00000000 000028
10209442991000137661600062425    00004719                     000047190000000000000109                     I01ORC001401/20031500000000120003410000001N100315000000000000000080000000000000000000000000000000000000000000000211384828000107E M R CONFECCOES LTDA - EPP             R SALVADOR CANELAS SOBRINHO 150         CENTRO      94015010GRAVATAI       RS                                  00000000 000029
10209442991000137661600062425    00004720                     000047200000000000000109                     I01ORC001402/20031500000000083213410000001N100315000000000000000060000000000000000000000000000000000000000000000211467006000190ELIANE GALON MARTINS                    AVENIDA DA AZENHA 580                   AZENHA      90160005PORTO ALEGRE   RS                                  00000000 000030
10209442991000137661600062425    00004721                     000047210000000000000109                     I01ORC001403/20031500000000120003410000001N100315000000000000000080000000000000000000000000000000000000000000000216949616000143ENGLERT E SZINVELSKI AUTO-ELET          RUA CONSELHIEIRO TRAVASSOS 368          SAO GERALDO 90230140PORTO ALEGRE   RS                                  00000000 000031
10209442991000137661600062425    00004722                     000047220000000000000109                     I01ORC001404/20031500000000083213410000001N100315000000000000000060000000000000000000000000000000000000000000000218508573000196EVA E MARLICE DE ROUPAS LTDA M          RUA PREFEITO ARY TUBBS 659              CENTRO      94010180GRAVATAI       RS                                  00000000 000032
10209442991000137661600062425    00004723                     000047230000000000000109                     I01ORC001405/20031500000000094343410000001N100315000000000000000060000000000000000000000000000000000000000000000205474930000109EVERTON LUIS RAMOS PINTO                AVENIDA FERNANDO FERRARI 1001           ANCHIETA    90200041PORTO ALEGRE   RS                                  00000000 000033
10209442991000137661600062425    00004724                     000047240000000000000109                     I01ORC001406/20031500000000089003410000001N100315000000000000000060000000000000000000000000000000000000000000000208512218000137FABIANO CARDOSO CIECIELSKI - M          R BONIFACIO CARVALHO BERNARDES 110      BR. CARLOS W94930030CACHOEIRINHA   RS                                  00000000 000034
10209442991000137661600062425    00004725                     000047250000000000000109                     I01ORC001407/20031500000000089003410000001N100315000000000000000060000000000000000000000000000000000000000000000214290943000100FAGNER DA SILVA COIMBRA - ME            AV DO NAZARIO 274                       OLARIA      92035000CANOAS         RS                                  00000000 000035
10209442991000137661600062425    00004726                     000047260000000000000109                     I01ORC001408/20031500000000089003410000001N100315000000000000000060000000000000000000000000000000000000000000000209375693000171FERRAGEM ORSO LTDA                      RUA DR JORGE DA COSTA 275               SAO GERALDO 94150140GRAVATAI       RS                                  00000000 000036
10209442991000137661600062425    00004727                     000047270000000000000109                     I01ORC001409/20031500000000109773410000001N100315000000000000000070000000000000000000000000000000000000000000000218366553000128FORTUNA E AGUIAR LTDA - ME              AV PRESIDENTE CASTELO BRANCO 235        CENTRO      95380000ESMERALDA      RS                                  00000000 000037
10209442991000137661600062425    00004728                     000047280000000000000109                     I01ORC001410/20031500000000081333410000001N100315000000000000000050000000000000000000000000000000000000000000000205369972000171FUSE TECNOLOGIA LTDA                    AV SERGIPE 314                          GLORIA      91720110PORTO ALEGRE   RS                                  00000000 000038
10209442991000137661600062425    00004729                     000047290000000000000109                     I01ORC001411/20031500000000120703410000001N100315000000000000000080000000000000000000000000000000000000000000000291239897000166GG DIMELLO DOS SANTOS EPP               RUA VANIO ABILIO DOS SANTOS 4155        SANTO ANTONI94170303GRAVATAI       RS                                  00000000 000039
10209442991000137661600062425    00004730                     000047300000000000000109                     I01ORC001412/20031500000000085193410000001N100315000000000000000060000000000000000000000000000000000000000000000210686199000107GIOVANE ALGAYER DO NASCIMENTO           RUA HORACIO LADICEU DUTRA 148           PARQUE DOS A94190080GRAVATAI       RS                                  00000000 000040
10209442991000137661600062425    00004731                     000047310000000000000109                     I01ORC001413/20031500000000054803410000001N100315000000000000000040000000000000000000000000000000000000000000000206192960000187GRAFICA VERFLEX LTDA - ME               RUA JOSE PINHEIRO BORBA 38              PIRATINI    94838320ALVORADA       RS                                  00000000 000041
10209442991000137661600062425    00004732                     000047320000000000000109                     I01ORC001414/20031500000000089003410000001N100315000000000000000060000000000000000000000000000000000000000000000221849038000103GTI COMERCIO LTDA - ME                  ROD ROD RS 020 17115                    MORUNGAVA   94360000GRAVATAI       RS                                  00000000 000042
10209442991000137661600062425    00004733                     000047330000000000000109                     I01ORC001415/20031500000000083743410000001N100315000000000000000060000000000000000000000000000000000000000000000210856289000107GUILHERME HENRIQUE BITENCOURT           RUA NUTRELA 105                         NOVO MUNDO  94075500GRAVATAI       RS                                  00000000 000043
10209442991000137661600062425    00004734                     000047340000000000000109                     I01ORC001416/20031500000000088363410000001N100315000000000000000060000000000000000000000000000000000000000000000204809012000112HELDT DESIGNER IND. E COM LTDA          RUA FRANCELINO SCHIMITZ 73              CRUZEIRO    94065340GRAVATAI       RS                                  00000000 000044
10209442991000137661600062425    00004735                     000047350000000000000109                     I01ORC001417/20031500000000120003410000001N100315000000000000000080000000000000000000000000000000000000000000000203551607000158HELPRINTERS RECICLAGEM DE CART          RUA BOA VISTA 158                       BOM PRINCIPI94950070CACHOEIRINHA   RS                                  00000000 000045
10209442991000137661600062425    00004736                     000047360000000000000109                     I01ORC001418/20031500000000065313410000001N100315000000000000000040000000000000000000000000000000000000000000000293387546000128HOSP. CLINICAS VETRINARIAS RS           RUA DOUTOR MURTINHO 324                 BOM JESUS   91420070PORTO ALEGRE   RS                                  00000000 000046
10209442991000137661600062425    00004737                     000047370000000000000109                     I01ORC001419/20031500000000145003410000001N100315000000000000000100000000000000000000000000000000000000000000000210562113000134ILUMY FLEX LTDA                         RUA MONTEIRO LOBATO 847                 PARQUE DA MA94940110CACHOEIRINHA   RS                                  00000000 000047
10209442991000137661600062425    00004738                     000047380000000000000109                     I01ORC001420/20031500000000073313410000001N100315000000000000000050000000000000000000000000000000000000000000000210274734000112INSTALEMOS MANUTENCOES E INSTA          JOAO MARIA DA FONSECA 686               PASSO DAS PE00094035GRAVATAI       RS                                  00000000 000048
10209442991000137661600062425    00004740                     000047400000000000000109                     I01ORC001422/20031500000000085193410000001N100315000000000000000060000000000000000000000000000000000000000000000210958923000104JANAINA AZEVEDO DA ROCHA                RUA MARIA CUNHA BUENO 452               SITIO GAUCHO94180290GRAVATAI       RS                                  00000000 000049
10209442991000137661600062425    00004739                     000047390000000000000109                     I01ORC001421/20031500000000082863410000001N100315000000000000000060000000000000000000000000000000000000000000000210958923000295JANAINA AZEVEDO DA ROCHA                RUA CORONEL FONSECA 696                 CENTRO      94010190GRAVATAI       RS                                  00000000 000050
10209442991000137661600062425    00004741                     000047410000000000000109                     I01ORC001423/20031500000000088573410000001N100315000000000000000060000000000000000000000000000000000000000000000294166204000140JLC COM DE VEICULOS LTDA                AV ROCCO ALOISE 30                      SARANDI     91110000PORTO ALEGRE   RS                                  00000000 000051
10209442991000137661600062425    00004742                     000047420000000000000109                     I01ORC001424/20031500000000120003410000001N100315000000000000000080000000000000000000000000000000000000000000000205054785000107JOAO DA SILVA PEREIRA - ME              EST RS 040 KM 47 28200                  CAPAO DA POR94770000VIAMAO         RS                                  00000000 000052
10209442991000137661600062425    00004743                     000047430000000000000109                     I01ORC001425/20031500000000085193410000001N100315000000000000000060000000000000000000000000000000000000000000000208440204000155JTC ENGRENAGENS E SERVICOS LTD          AV TIRADENTES 162                       FONTOURA    94850000ALVORADA       RS                                  00000000 000053
10209442991000137661600062425    00004744                     000047440000000000000109                     I01ORC001426/20031500000000085193410000001N100315000000000000000060000000000000000000000000000000000000000000000200119995000104K G INDUSTRIA DE ESTOJOS E EXP          RUA DOS TAPUIAS 175                     SAO GERALDO 94150420GRAVATAI       RS                                  00000000 000054
10209442991000137661600062425    00004745                     000047450000000000000109                     I01ORC001427/20031500000000154803410000001N100315000000000000000100000000000000000000000000000000000000000000000204190295000167KALLANGO LTDA                           RUA VILA MONJOLO 7849                   PRIMEIRO DIS95500000SANTO ANTONIO DRS                                  00000000 000055
10209442991000137661600062425    00004746                     000047460000000000000109                     I01ORC001428/20031500000000134223410000001N100315000000000000000090000000000000000000000000000000000000000000000209154124000104KEC PROCESSAMENTO DE DADOS              RUA CORONEL SARMENTO 1704               CENTRO      94010030GRAVATAI       RS                                  00000000 000056
10209442991000137661600062425    00004747                     000047470000000000000109                     I01ORC001429/20031500000000089003410000001N100315000000000000000060000000000000000000000000000000000000000000000204030976000168KONTOR MOVEIS DE ESCRITORIO LT          AVENIDA DORIVAL CANDIDO LUIZ DE OLIVEIRAEVEREST     94030000GRAVATAI       RS                                  00000000 000057
10209442991000137661600062425    00004748                     000047480000000000000109                     I01ORC001430/20031500000000085193410000001N100315000000000000000060000000000000000000000000000000000000000000000209564221000167LANA CALIBRACAO DE INSTRUMENTO          AV BRASIL 1660                          SAO GERALDO 94150000GRAVATAI       RS                                  00000000 000058
10209442991000137661600062425    00004749                     000047490000000000000109                     I01ORC001431/20031500000000082863410000001N100315000000000000000060000000000000000000000000000000000000000000000209247054000120LEANDRO BATISTA DE FRAGA                AVENIDA DORIVAL CANDIDO LUIZ DE OLIVEIRASAO VICENTE 94060000GRAVATAI       RS                                  00000000 000059
10209442991000137661600062425    00004750                     000047500000000000000109                     I01ORC001432/20031500000000081803410000001N100315000000000000000050000000000000000000000000000000000000000000000294064631000118LUCIA'S CONFECCOES LTDA ME              RUA ELVIS PRESLEY 195                   PARQUE GARIB94090050GRAVATAI       RS                                  00000000 000060
10209442991000137661600062425    00004751                     000047510000000000000109                     I01ORC001433/20031500000000096193410000001N100315000000000000000060000000000000000000000000000000000000000000000206352958000209M M FIALHO                              AV FLORES DA CUNHA 4001                 BOM PRINCIPI94950001CACHOEIRINHA   RS                                  00000000 000061
10209442991000137661600062425    00004752                     000047520000000000000109                     I01ORC001434/20031500000000120003410000001N100315000000000000000080000000000000000000000000000000000000000000000209292283000167M. DA ROSA MICROCERVEJARIA - M          R JOAO MARIA DA FONSECA 505             PASSO DAS PE94035190GRAVATAI       RS                                  00000000 000062
10209442991000137661600062425    00004753                     000047530000000000000109                     I01ORC001435/20031500000000083743410000001N100315000000000000000060000000000000000000000000000000000000000000000207854908000101MACDIESEL SERVICOS EM MOTORES           RUA PEDRO MAIA 191                      SAO GERALDO 94150361GRAVATAI       RS                                  00000000 000063
10209442991000137661600062425    00004754                     000047540000000000000109                     I01ORC001436/20031500000000169553410000001N100315000000000000000110000000000000000000000000000000000000000000000205461000000102MADECASA COM DE MAT DE CONSTRU          RUA ADRIAO MONTEIRO DOS SANTOS 2838     CENTRO      95552000CAPIVARI DO SULRS                                  00000000 000064
10209442991000137661600062425    00004755                     000047550000000000000109                     I01ORC001437/20031500000000088483410000001N100315000000000000000060000000000000000000000000000000000000000000000208266347000192MAQ SERVICE ASS. TEC. E LOC. E          AV. DORIVAL CANDIDO LUZ DE OLIVEIRA 1919COHAB C     94030001GRAVATAI       RS                                  00000000 000065
10209442991000137661600062425    00004756                     000047560000000000000109                     I01ORC001438/20031500000000088573410000001N100315000000000000000060000000000000000000000000000000000000000000000201100468000110MARIA DO CARMO GONCALVES                RUA BORBA GATO 1208                     BOM SUCESSO 94150200GRAVATAI       RS                                  00000000 000066
10209442991000137661600062425    00004757                     000047570000000000000109                     I01ORC001439/20031500000000083943410000001N100315000000000000000060000000000000000000000000000000000000000000000218378820000187MARIA E SILVEIRA DA SILVA E CI          RUA DR LUIZ BASTOS DO PRADO 1685        CENTRO      94010020GRAVATAI       RS                                  00000000 000067
10209442991000137661600062425    00004758                     000047580000000000000109                     I01ORC001440/20031500000000089003410000001N100315000000000000000060000000000000000000000000000000000000000000000219603070000162MAURICIO POCHARSKI HAUBERT 025          AV GENERAL FLORES DA CUNHA 903          VILA VERANOP94910001CACHOEIRINHA   RS                                  00000000 000068
10209442991000137661600062425    00004759                     000047590000000000000109                     I01ORC001441/20031500000000081323410000001N100315000000000000000050000000000000000000000000000000000000000000000204816321000110MD IND E COM DE MATRIZES LTDA           RUA LATERAL RS-020 1800                 MORADA DO VA94100250GRAVATAI       RS                                  00000000 000069
10209442991000137661600062425    00004760                     000047600000000000000109                     I01ORC001442/20031500000000054803410000001N100315000000000000000040000000000000000000000000000000000000000000000209285612000142METAL GRAVA LTDA                        RUA JOAO RIBEIRO 115                    RONDONIA    93420410NOVO HAMBURGO  RS                                  00000000 000070
10209442991000137661600062425    00004761                     000047610000000000000109                     I01ORC001443/20031500000000085353410000001N100315000000000000000060000000000000000000000000000000000000000000000200712325000105MK MONTAGEM DE KITS ELETRONICO          RUA BERNARDO JOAQUIM FERREIRA 735       CACA E PESCA94190000GRAVATAI       RS                                  00000000 000071
10209442991000137661600062425    00004762                     000047620000000000000109                     I01ORC001444/20031500000000105163410000001N100315000000000000000070000000000000000000000000000000000000000000000209022322000106MULTIMOBILE BRASIL SOLUCOES EM          ESTRADA MUNICIPAL 645                   NEOPOLIS    94100000GRAVATAI       RS                                  00000000 000072
10209442991000137661600062425    00004763                     000047630000000000000109                     I01ORC001445/20031500000000088573410000001N100315000000000000000060000000000000000000000000000000000000000000000202138738000145NERON MENGER                            AVENIDA PRESIDENTE GETULIO VARGAS 452   BELA VISTA  94810000ALVORADA       RS                                  00000000 000073
10209442991000137661600062425    00004764                     000047640000000000000109                     I01ORC001446/20031500000000081403410000001N100315000000000000000050000000000000000000000000000000000000000000000203314686000183NEW TECK EQUIPAMENTOS E SISTEM          RUA ELOI MACHADO 247                    CONCEICAO   94170370GRAVATAI       RS                                  00000000 000074
10209442991000137661600062425    00004765                     000047650000000000000109                     I01ORC001447/20031500000000084773410000001N100315000000000000000060000000000000000000000000000000000000000000000200614935000168NOGARE DIESEL MECANICA E AUTOP          RUA MACHADINHO 1320                     RIO BRANCO  92200440CANOAS         RS                                  00000000 000075
10209442991000137661600062425    00004766                     000047660000000000000109                     I01ORC001448/20031500000000085193410000001N100315000000000000000060000000000000000000000000000000000000000000000217765646000162OMX E CRISTIANE FERNANDES LTDA          AVENIDA ALEXANDRINO DE ALENCAR 157      MORADA DO VA94085120GRAVATAI       RS                                  00000000 000076
10209442991000137661600062425    00004767                     000047670000000000000109                     I01ORC001449/20031500000000082863410000001N100315000000000000000060000000000000000000000000000000000000000000000208390159000171PADRONIZA UNIFORMES IND E COM           RUA ZEFERINO DIAS 997                   SARANDI     91130480PORTO ALEGRE   RS                                  00000000 000077
10209442991000137661600062425    00004768                     000047680000000000000109                     I01ORC001450/20031500000000076693410000001N100315000000000000000050000000000000000000000000000000000000000000000293013217000117PAULO CESAR CORREA RIBEIRO              RUA INTENDENTE ALFREDO AZEVEDO 515      GLORIA      91710010PORTO ALEGRE   RS                                  00000000 000078
10209442991000137661600062425    00004769                     000047690000000000000109                     I01ORC001451/20031500000000089003410000001N100315000000000000000060000000000000000000000000000000000000000000000216658271000179PITBULL PECAS E ACESSORIOS AUT          RUA GUILHERME SCHMITZ 385               PARQUE OLIND94065200GRAVATAI       RS                                  00000000 000079
10209442991000137661600062425    00004770                     000047700000000000000109                     I01ORC001452/20031500000000094343410000001N100315000000000000000060000000000000000000000000000000000000000000000200084455000132PLASTICOS SCHMIDT LTDA                  RUA PEDRO ALVARES CABRAL 209            RIO BRANCO  93310330NOVO HAMBURGO  RS                                  00000000 000080
10209442991000137661600062425    00004771                     000047710000000000000109                     I01ORC001453/20031500000000081403410000001N100315000000000000000050000000000000000000000000000000000000000000000291688119000154PLASTICOS VAPA LTDA                     AVENIDA GENERAL FLORES DA CUNHA 4519    BOM PRINCIPI94950001CACHOEIRINHA   RS                                  00000000 000081
10209442991000137661600062425    00004772                     000047720000000000000109                     I01ORC001454/20031500000000088363410000001N100315000000000000000060000000000000000000000000000000000000000000000208964494000136POLYTEXTIL IND. E COM. LTDA             RUA VINTE DE SETEMBRO 1143              BARNABE     94150010GRAVATAI       RS                                  00000000 000082
10209442991000137661600062425    00004773                     000047730000000000000109                     I01ORC001455/20031500000000120003410000001N100315000000000000000080000000000000000000000000000000000000000000000214758149000220PPA3 COMERCIO E DISTRIBUICAO D          RUA ANGELO CHIARELLO 3246               PIO X       95032460CAXIAS DO SUL  RS                                  00000000 000083
10209442991000137661600062425    00004774                     000047740000000000000109                     I01ORC001456/20031500000000084773410000001N100315000000000000000060000000000000000000000000000000000000000000000214758149000149PPA3 COMERCIO E DISTRIBUICAO D          RUA OTAVIO SCHEMES 815                  BARNABE     94155000GRAVATAI       RS                                  00000000 000084
10209442991000137661600062425    00004775                     000047750000000000000109                     I01ORC001457/20031500000000089003410000001N100315000000000000000060000000000000000000000000000000000000000000000206970918000140QUALIPAR EQUIPAMENTOS INDUSTRI          RUA JOSE GOMES 82                       PASSAO DAS P94035220GRAVATAI       RS                                  00000000 000085
10209442991000137661600062425    00004776                     000047760000000000000109                     I01ORC001458/20031500000000120003410000001N100315000000000000000080000000000000000000000000000000000000000000000207025776000105RENOTEC MANUTENCAO INDUSTRIA E          R GUARULHOS 146                         PARQUE JARDI94075310GRAVATAI       RS                                  00000000 000086
10209442991000137661600062425    00004777                     000047770000000000000109                     I01ORC001459/20031500000000088363410000001N100315000000000000000060000000000000000000000000000000000000000000000206971699000113RODRIGO DE CAMPOS PEREIRA               RUA EDMAR BORBA ARAUJO 31               CHACARA VELH95540000PALMARES DO SULRS                                  00000000 000087
10209442991000137661600062425    00004778                     000047780000000000000109                     I01ORC001460/20031500000000077183410000001N100315000000000000000050000000000000000000000000000000000000000000000214502624000111RODRIGO NUNES GOULART                   AV. SENADOR SALGADO FILHO 6235          SAO LUCAS   94450000VIAMAO         RS                                  00000000 000088
10209442991000137661600062425    00004779                     000047790000000000000109                     I01ORC001461/20031500000000094343410000001N100315000000000000000060000000000000000000000000000000000000000000000210423779000101RTI LOCACOES EIRELI - EPP               AVENIDA CENTENARIO 1101                 VARZEA      94010050GRAVATAI       RS                                  00000000 000089
10209442991000137661600062425    00004780                     000047800000000000000109                     I01ORC001462/20031500000000088363410000001N100315000000000000000060000000000000000000000000000000000000000000000211436427000153SAO PEDRO LIVRARIA E PAPELARIA          AV SAO PEDRO 1951                       SAO GERALDO 90230120PORTO ALEGRE   RS                                  00000000 000090
10209442991000137661600062425    00004781                     000047810000000000000109                     I01ORC001463/20031500000000088363410000001N100315000000000000000060000000000000000000000000000000000000000000000274008459000178SERVICO E. ELETRO. PROLAR LTDA          RUA REVERENDO AMERICO VESPUCIO CABRAL 26CENTRO      94410300VIAMAO         RS                                  00000000 000091
10209442991000137661600062425    00004782                     000047820000000000000109                     I01ORC001464/20031500000000085823410000001N100315000000000000000060000000000000000000000000000000000000000000000291338624000179SINDICATO DOS TRAB. NAS IND. Q          AV. JOSE LOUREIRO DA SILVA 2358         SANTA LUZIA 94030001GRAVATAI       RS                                  00000000 000092
10209442991000137661600062425    00004783                     000047830000000000000109                     I01ORC001465/20031500000000088363410000001N100315000000000000000060000000000000000000000000000000000000000000000200515927000164STTILO ARTE REPRESENTACOES LTD          RUA JUVENAL GARCIA 75                   CENTRO      88302040ITAJAI         SC                                  00000000 000093
10209442991000137661600062425    00004784                     000047840000000000000109                     I01ORC001466/20031500000000089003410000001N100315000000000000000060000000000000000000000000000000000000000000000294860541000133THEC FER IND MET LTDA                   RUA JOAO BATISTA, SAO 681               PRQ DOS ANJO94190210GRAVATAI       RS                                  00000000 000094
10209442991000137661600062425    00004785                     000047850000000000000109                     I01ORC001467/20031500000000085193410000001N100315000000000000000060000000000000000000000000000000000000000000000210458626000108TOQUE PELE COM COSM LTDA                RUA LIBERDADE 42                        RIO BRANCO  90420090PORTO ALEGRE   RS                                  00000000 000095
10209442991000137661600062425    00004786                     000047860000000000000109                     I01ORC001468/20031500000000088483410000001N100315000000000000000060000000000000000000000000000000000000000000000203095532000148UBIRAJARA MOACIR BRAUN                  VILA PASSO DO ADAO 985                  MORUNGAVA   94000000GRAVATAI       RS                                  00000000 000096
10209442991000137661600062425    00004787                     000047870000000000000109                     I01ORC001469/20031500000000094343410000001N100315000000000000000060000000000000000000000000000000000000000000000297544043000170URBAN DOORS IMP, EXP E COM LTD          RUA FRANCISCO SILVEIRA BITTENCOURT 1400 SARANDI     91150010PORTO ALEGRE   RS                                  00000000 000097
10209442991000137661600062425    00004788                     000047880000000000000109                     I01ORC001470/20031500000000099543410000001N100315000000000000000070000000000000000000000000000000000000000000000221020213000155VANESSA GANDOLF                         RUA GALILEU 71                          CANUDOS     93544120NOVO HAMBURGO  RS                                  00000000 000098
10209442991000137661600062425    00004789                     000047890000000000000109                     I01ORC001471/20031500000000085193410000001N100315000000000000000060000000000000000000000000000000000000000000000219431575000197VIVIANE PASQUALIN EIRELI                RUA CATURRITA 921                       JARDIM ALGAR94858530ALVORADA       RS                                  00000000 000099
10209442991000137661600062425    00004790                     000047900000000000000109                     I01ORC001472/20031500000000120003410000001N100315000000000000000080000000000000000000000000000000000000000000000209623298000160ZANDONAI METALURGICA LTDA - ME          AV PRESIDENTE KENNEDY 1145              MARROCOS    94045160GRAVATAI       RS                                  00000000 000100
9                                                                                                                                                                                                                                                                                                                                                                                                         000101
