01REMESSA01COBRANCA       661600062425        ANEXO TECNOLOGIA E SISTEMAS EM341BANCO ITAU SA  130115                                                                                                                                                                                                                                                                                                      000001
10209442991000137661600062425    00004433                     000044330000000000000109                     I01ORC001168/20011500000000081413410000001N130115000000000000000060000000000000000000000000000000000000000000000207646678000195A SARMENTO DA SILVA DOCES               RUA PAULO CESAR BACH DE OLIVEIRA 53     ORICO       94010460GRAVATAI       RS                                  00000000 000002
10209442991000137661600062425    00004533                     000045330000000000000109                     I01NFE001010/20011500000000120003410000001N130115000000000000000090000000000000000000000000000000000000000000000210709107000167ACJ ENERGIA E CLIMATIZACAO LTD          AV TELMO SILVEIRA DORNELLES 604         JARDIM ATLAN94940250CACHOEIRINHA   RS                                  00000000 000003
10209442991000137661600062425    00004471                     000044710000000000000109                     I01ORC001169/20011500000000079003410000001N130115000000000000000060000000000000000000000000000000000000000000000212664100000100AFONSO FERNANDES DE OLIVEIRA            PRACA RUI BARBOSA 220                   CENTRO HISTO90030100PORTO ALEGRE   RS                                  00000000 000004
10209442991000137661600062425    00004472                     000044720000000000000109                     I01ORC001170/20011500000000085203410000001N130115000000000000000060000000000000000000000000000000000000000000000209481746000139AJ DIESEL COM PECAS E ACESS PA          AV ELY CORREA 1040                      PRQ DOS ANJO94185352GRAVATAI       RS                                  00000000 000005
10209442991000137661600062425    00004473                     000044730000000000000109                     I01ORC001171/20011500000000066003410000001N130115000000000000000050000000000000000000000000000000000000000000000201321540000210ALCIONE DE ARAUJO MUNIZ                 AV. ELY CORREA 2553                     PARQUE DOS A94010972GRAVATAI       RS                                  00000000 000006
10209442991000137661600062425    00004474                     000044740000000000000109                     I01ORC001172/20011500000000083953410000001N130115000000000000000060000000000000000000000000000000000000000000000208628149000121AMF DISTRIB DE ACESS AUTOMOTIV          AV BERLIM 147                           SAO GERALDO 90240581PORTO ALEGRE   RS                                  00000000 000007
10209442991000137661600062425    00004475                     000044750000000000000109                     I01ORC001173/20011500000000075383410000001N130115000000000000000060000000000000000000000000000000000000000000000290403700000110ANA MARIA SILVEIRA                      RUA LAJES 162                           PARQUE DOS A94180590GRAVATAI       RS                                  00000000 000008
10209442991000137661600062425    00004476                     000044760000000000000109                     I01ORC001174/20011500000000075033410000001N130115000000000000000060000000000000000000000000000000000000000000000273221301000119AUTO ELETRICA BRAUN LTDA                RUA BERNARDINO T. FONSECA 196           CACA E PESCA94190110GRAVATAI       RS                                  00000000 000009
10209442991000137661600062425    00004477                     000044770000000000000109                     I01ORC001175/20011500000000089003410000001N130115000000000000000060000000000000000000000000000000000000000000000206058292000108AUTO ELETRICA E LOCACOES AJS L          RUA CONSELHEIRO TRAVASSOS 368           SAO GERALDO 90230140PORTO ALEGRE   RS                                  00000000 000010
10209442991000137661600062425    00004534                     000045340000000000000109                     I01NFE001011/20011500000000066003410000001N130115000000000000000050000000000000000000000000000000000000000000000205385071000173BOM CORTE COMERCIO DE MAQUINAS          RUA VISCONDE DO RIO BRANCO 217          FLORESTA    90220230PORTO ALEGRE   RS                                  00000000 000011
10209442991000137661600062425    00004478                     000044780000000000000109                     I01ORC001176/20011500000000074963410000001N130115000000000000000050000000000000000000000000000000000000000000000201894407000172BOMBAS SINOS IND. E COM. LTDA           RUA ATILIO FORTES 30                    BOA SAUDE   93340000NOVO HAMBURGO  RS                                  00000000 000012
10209442991000137661600062425    00004479                     000044790000000000000109                     I01ORC001177/20011500000000089003410000001N130115000000000000000060000000000000000000000000000000000000000000000216906777000150BRECHO CHIC LTDA - ME                   R CORONEL BORDINI 169                   AUXILIADORA 90440000PORTO ALEGRE   RS                                  00000000 000013
10209442991000137661600062425    00004480                     000044800000000000000109                     I01ORC001178/20011500000000077193410000001N130115000000000000000060000000000000000000000000000000000000000000000213278006000177CANTECH EQUIPAMENTOS LTDA               AVENIDA AVELINO MACIEL NETO 2955        DISTRITO IND94380000GLORINHA       RS                                  00000000 000014
10209442991000137661600062425    00004481                     000044810000000000000109                     I01ORC001179/20011500000000083573410000001N130115000000000000000060000000000000000000000000000000000000000000000293678423000146CARLOS ROBERTO COUTINHO FOLTZ           RUA CURITIBA 791                        VILA FATIMA 94955130CACHOEIRINHA   RS                                  00000000 000015
10209442991000137661600062425    00004482                     000044820000000000000109                     I01ORC001180/20011500000000085203410000001N130115000000000000000060000000000000000000000000000000000000000000000274903808000115CC CENTROCAR CENTRO AUTOMOTIVO          AV. GENERAL OSORIO 105                  SALGADO FILH94020000GRAVATAI       RS                                  00000000 000016
10209442991000137661600062425    00004483                     000044830000000000000109                     I01ORC001181/20011500000000055943410000001N130115000000000000000040000000000000000000000000000000000000000000000288844030000125CERAMICA ATLETICO CLUBE                 AVENIDA JOSE LOUREIRO DA SILVA          CENTRO      94010001GRAVATAI       RS                                  00000000 000017
10209442991000137661600062425    00004535                     000045350000000000000109                     I01NFE001012/20011500000000181213410000001N130115000000000000000130000000000000000000000000000000000000000000000294989985000173CLAVEL COMERCIAL ELETRO-ELETRO          RUA ALMIRANTE BARROSO 389               FLORESTA    90220021PORTO ALEGRE   RS                                  00000000 000018
10209442991000137661600062425    00004484                     000044840000000000000109                     I01ORC001182/20011500000000083223410000001N130115000000000000000060000000000000000000000000000000000000000000000214885861000109COM DE TINTAS E FERRAGENS FONI          AV DORIVAL CANDIDO LUZ DE OLIVEIRA 364  CENTRO      94030000GRAVATAI       RS                                  00000000 000019
10209442991000137661600062425    00004485                     000044850000000000000109                     I01ORC001183/20011500000000083753410000001N130115000000000000000060000000000000000000000000000000000000000000000210486493000175COMERCIAL POHLFER LTDA.                 AV. ASSIS BRASIL 115                    SAO JOAO    91010004PORTO ALEGRE   RS                                  00000000 000020
10209442991000137661600062425    00004486                     000044860000000000000109                     I01ORC001184/20011500000000089003410000001N130115000000000000000060000000000000000000000000000000000000000000000219837271000124CONFIANCA CENTRO AUTOMOTIVO LT          RUA MAJOR ALBERTO BINS 221              VILA PARQUE 94935440CACHOEIRINHA   RS                                  00000000 000021
10209442991000137661600062425    00004487                     000044870000000000000109                     I01ORC001185/20011500000000089003410000001N130115000000000000000060000000000000000000000000000000000000000000000208935632000159COPCESKI CHAPEACAO E PINTURA L          AV DORIVAL CANDIDO LUZ DE OLIVEIRA 7328 BOM PRINCIPI94070000GRAVATAI       RS                                  00000000 000022
10209442991000137661600062425    00004488                     000044880000000000000109                     I01ORC001186/20011500000000083753410000001N130115000000000000000060000000000000000000000000000000000000000000000208381912000162CSP AUTO CENTER LTDA                    AV JOSE LOUREIRO DA SILVA 2484          SANTA LUZIA 94010000GRAVATAI       RS                                  00000000 000023
10209442991000137661600062425    00004489                     000044890000000000000109                     I01ORC001187/20011500000000088373410000001N130115000000000000000060000000000000000000000000000000000000000000000211929978000159CVB PECAS E ACESSORIOS LTDA             RUA ITAPININGA 635                      PQ. DA MATRI94950430CACHOEIRINHA   RS                                  00000000 000024
10209442991000137661600062425    00004490                     000044900000000000000109                     I01ORC001188/20011500000000071453410000001N130115000000000000000050000000000000000000000000000000000000000000000205000283000195DALLA NORA E SOUZA LTDA                 RUA 7 DE SETEMBRO 80                    CENTRO      95520000OSORIO         RS                                  00000000 000025
10209442991000137661600062425    00004491                     000044910000000000000109                     I01ORC001189/20011500000000054813410000001N130115000000000000000040000000000000000000000000000000000000000000000207698408000128DANIEL CELULARES                        RUA ANAPIO GOMES 1668                   CENTRO      94035330GRAVATAI       RS                                  00000000 000026
10209442991000137661600062425    00004492                     000044920000000000000109                     I01ORC001190/20011500000000088373410000001N130115000000000000000060000000000000000000000000000000000000000000000214118093000168DANIEL MARTINS R. E CIA LTDA -          RUA ESTREMOSA 169                       PARQUE GRANJ94960577CACHOEIRINHA   RS                                  00000000 000027
10209442991000137661600062425    00004493                     000044930000000000000109                     I01ORC001191/20011500000000088373410000001N130115000000000000000060000000000000000000000000000000000000000000000288210166000183DISPLAYS IND. E COM. DE ETIQUE          AVENIDA SALVADOR LEAO 756               SARANDI     91130700PORTO ALEGRE   RS                                  00000000 000028
10209442991000137661600062425    00004494                     000044940000000000000109                     I01ORC001192/20011500000000132813410000001N130115000000000000000090000000000000000000000000000000000000000000000213247845000128DISTRIBUIDORA DE ALIMENTOS BIL          RUA MARQUES DO POMBAL 460               SAO LUIS    93800000SAPIRANGA      RS                                  00000000 000029
10209442991000137661600062425    00004495                     000044950000000000000109                     I01ORC001193/20011500000000089003410000001N130115000000000000000060000000000000000000000000000000000000000000000212664100000100DOUGLAS DIHL KLEIN                      RUA JORGE AMADO 647                     SANTA CRUZ  94155030GRAVATAI       RS                                  00000000 000030
10209442991000137661600062425    00004536                     000045360000000000000109                     I01NFE001013/20011500000000054813410000001N130115000000000000000040000000000000000000000000000000000000000000000206195890000110DVR INDUSTRIA COMERCIO DE COMP          RUA CATARINO ANDREATHA 46               IDEAL       93332060NOVO HAMBURGO  RS                                  00000000 000031
10209442991000137661600062425    00004496                     000044960000000000000109                     I01ORC001194/20011500000000083573410000001N130115000000000000000060000000000000000000000000000000000000000000000204678387000190D’CAPA INDUSTRIA E COMERCIO DE          RS 020 8083                                         94175170GRAVATAI       RS                                  00000000 000032
10209442991000137661600062425    00004497                     000044970000000000000109                     I01ORC001195/20011500000000120003410000001N130115000000000000000090000000000000000000000000000000000000000000000211384828000107E M R CONFECCOES LTDA - EPP             R SALVADOR CANELAS SOBRINHO 150         CENTRO      94015010GRAVATAI       RS                                  00000000 000033
10209442991000137661600062425    00004498                     000044980000000000000109                     I01ORC001196/20011500000000083223410000001N130115000000000000000060000000000000000000000000000000000000000000000211467006000190ELIANE GALON MARTINS                    AVENIDA DA AZENHA 580                   AZENHA      90160005PORTO ALEGRE   RS                                  00000000 000034
10209442991000137661600062425    00004499                     000044990000000000000109                     I01ORC001197/20011500000000120003410000001N130115000000000000000090000000000000000000000000000000000000000000000216949616000143ENGLERT E SZINVELSKI AUTO-ELET          RUA CONSELHIEIRO TRAVASSOS 368          SAO GERALDO 90230140PORTO ALEGRE   RS                                  00000000 000035
10209442991000137661600062425    00004500                     000045000000000000000109                     I01ORC001198/20011500000000054813410000001N130115000000000000000040000000000000000000000000000000000000000000000292059013000154ESQUADRISUL ESQ. E VIDROS LTDA          RUA AMAPA 41                            PARQUE DOS A94180660GRAVATAI       RS                                  00000000 000036
10209442991000137661600062425    00004501                     000045010000000000000109                     I01ORC001199/20011500000000083223410000001N130115000000000000000060000000000000000000000000000000000000000000000218508573000196EVA E MARLICE DE ROUPAS LTDA M          RUA PREFEITO ARY TUBBS 659              CENTRO      94010180GRAVATAI       RS                                  00000000 000037
10209442991000137661600062425    00004502                     000045020000000000000109                     I01ORC001200/20011500000000089003410000001N130115000000000000000060000000000000000000000000000000000000000000000205474930000109EVERTON LUIS RAMOS PINTO                AVENIDA FERNANDO FERRARI 1001           ANCHIETA    90200041PORTO ALEGRE   RS                                  00000000 000038
10209442991000137661600062425    00004503                     000045030000000000000109                     I01ORC001201/20011500000000089003410000001N130115000000000000000060000000000000000000000000000000000000000000000208512218000137FABIANO CARDOSO CIECIELSKI - M          R BONIFACIO CARVALHO BERNARDES 110      BR. CARLOS W94930030CACHOEIRINHA   RS                                  00000000 000039
10209442991000137661600062425    00004504                     000045040000000000000109                     I01ORC001202/20011500000000089003410000001N130115000000000000000060000000000000000000000000000000000000000000000214290943000100FAGNER DA SILVA COIMBRA - ME            AV DO NAZARIO 274                       OLARIA      92035000CANOAS         RS                                  00000000 000040
10209442991000137661600062425    00004505                     000045050000000000000109                     I01ORC001203/20011500000000089003410000001N130115000000000000000060000000000000000000000000000000000000000000000209375693000171FERRAGEM ORSO LTDA                      RUA DR JORGE DA COSTA 275               SAO GERALDO 94150140GRAVATAI       RS                                  00000000 000041
10209442991000137661600062425    00004506                     000045060000000000000109                     I01ORC001204/20011500000000081343410000001N130115000000000000000060000000000000000000000000000000000000000000000205369972000171FUSE TECNOLOGIA LTDA                    AV SERGIPE 314                          GLORIA      91720110PORTO ALEGRE   RS                                  00000000 000042
10209442991000137661600062425    00004507                     000045070000000000000109                     I01ORC001205/20011500000000120713410000001N130115000000000000000090000000000000000000000000000000000000000000000291239897000166GG DIMELLO DOS SANTOS EPP               RUA VANIO ABILIO DOS SANTOS 4155        SANTO ANTONI94170303GRAVATAI       RS                                  00000000 000043
10209442991000137661600062425    00004508                     000045080000000000000109                     I01ORC001206/20011500000000085203410000001N130115000000000000000060000000000000000000000000000000000000000000000210686199000107GIOVANE ALGAYER DO NASCIMENTO           RUA HORACIO LADICEU DUTRA 148           PARQUE DOS A94190080GRAVATAI       RS                                  00000000 000044
10209442991000137661600062425    00004509                     000045090000000000000109                     I01ORC001207/20011500000000054813410000001N130115000000000000000040000000000000000000000000000000000000000000000206192960000187GRAFICA VERFLEX LTDA - ME               RUA JOSE PINHEIRO BORBA 38              PIRATINI    94838320ALVORADA       RS                                  00000000 000045
10209442991000137661600062425    00004510                     000045100000000000000109                     I01ORC001208/20011500000000083753410000001N130115000000000000000060000000000000000000000000000000000000000000000210856289000107GUILHERME HENRIQUE BITENCOURT           RUA NUTRELA 105                         NOVO MUNDO  94075500GRAVATAI       RS                                  00000000 000046
10209442991000137661600062425    00004537                     000045370000000000000109                     I01NFE001014/20011500000000054813410000001N130115000000000000000040000000000000000000000000000000000000000000000212070882000140H R METAIS LTDA ME                      RUA CATARINO ANDREATO 46                IDEAL       93332060NOVO HAMBURGO  RS                                  00000000 000047
10209442991000137661600062425    00004511                     000045110000000000000109                     I01ORC001209/20011500000000088373410000001N130115000000000000000060000000000000000000000000000000000000000000000204809012000112HELDT DESIGNER IND. E COM LTDA          RUA FRANCELINO SCHIMITZ 73              CRUZEIRO    94065340GRAVATAI       RS                                  00000000 000048
10209442991000137661600062425    00004512                     000045120000000000000109                     I01ORC001210/20011500000000120003410000001N130115000000000000000090000000000000000000000000000000000000000000000203551607000158HELPRINTERS RECICLAGEM DE CART          RUA BOA VISTA 158                       BOM PRINCIPI94950070CACHOEIRINHA   RS                                  00000000 000049
10209442991000137661600062425    00004513                     000045130000000000000109                     I01ORC001211/20011500000000145003410000001N130115000000000000000100000000000000000000000000000000000000000000000210562113000134ILUMY FLEX LTDA                         RUA MONTEIRO LOBATO 847                 PARQUE DA MA94940110CACHOEIRINHA   RS                                  00000000 000050
10209442991000137661600062425    00004514                     000045140000000000000109                     I01ORC001212/20011500000000073323410000001N130115000000000000000050000000000000000000000000000000000000000000000210274734000112INSTALEMOS MANUTENCOES E INSTA          RUA OSORIO RAMOS CORREIA 350            CENTRO      94010280GRAVATAI       RS                                  00000000 000051
10209442991000137661600062425    00004516                     000045160000000000000109                     I01ORC001214/20011500000000085203410000001N130115000000000000000060000000000000000000000000000000000000000000000210958923000104JANAINA AZEVEDO DA ROCHA                RUA MARIA CUNHA BUENO 452               SITIO GAUCHO94180290GRAVATAI       RS                                  00000000 000052
10209442991000137661600062425    00004515                     000045150000000000000109                     I01ORC001213/20011500000000082873410000001N130115000000000000000060000000000000000000000000000000000000000000000210958923000295JANAINA AZEVEDO DA ROCHA                RUA CORONEL FONSECA 696                 CENTRO      94010190GRAVATAI       RS                                  00000000 000053
10209442991000137661600062425    00004517                     000045170000000000000109                     I01ORC001215/20011500000000083573410000001N130115000000000000000060000000000000000000000000000000000000000000000294166204000140JLC COM DE VEICULOS LTDA                AV ROCCO ALOISE 30                      SARANDI     91110000PORTO ALEGRE   RS                                  00000000 000054
10209442991000137661600062425    00004518                     000045180000000000000109                     I01ORC001216/20011500000000127173410000001N130115000000000000000090000000000000000000000000000000000000000000000221490186000184JLF MATERIAIS DE CONSTRUCAO LT          ESTRADA DO MONJOLO 5670                 MONJOLO     95500000SANTO ANTONIO DRS                                  00000000 000055
10209442991000137661600062425    00004519                     000045190000000000000109                     I01ORC001217/20011500000000120003410000001N130115000000000000000090000000000000000000000000000000000000000000000205054785000107JOAO DA SILVA PEREIRA - ME              EST RS 040 KM 47 28200                  CAPAO DA POR94770000VIAMAO         RS                                  00000000 000056
10209442991000137661600062425    00004543                     000045430000000000000109                     I01NFE001015/20011500000000327003410000001N130115000000000000000220000000000000000000000000000000000000000000000216950484000250JOICE DA COSTA SOARES - ME              AV PRESIDENTE VARGAS 1894               CENTRO      93260064ESTEIO         RS                                  00000000 000057
10209442991000137661600062425    00004520                     000045200000000000000109                     I01ORC001218/20011500000000085203410000001N130115000000000000000060000000000000000000000000000000000000000000000208440204000155JTC ENGRENAGENS E SERVICOS LTD          AV TIRADENTES 162                       FONTOURA    94850000ALVORADA       RS                                  00000000 000058
10209442991000137661600062425    00004521                     000045210000000000000109                     I01ORC001219/20011500000000085203410000001N130115000000000000000060000000000000000000000000000000000000000000000200119995000104K G INDUSTRIA DE ESTOJOS E EXP          RUA DOS TAPUIAS 175                     SAO GERALDO 94150420GRAVATAI       RS                                  00000000 000059
10209442991000137661600062425    00004522                     000045220000000000000109                     I01ORC001220/20011500000000054813410000001N130115000000000000000040000000000000000000000000000000000000000000000204190295000167KALLANGO LTDA                           RUA VILA MONJOLO 7849                   PRIMEIRO DIS95500000SANTO ANTONIO DRS                                  00000000 000060
10209442991000137661600062425    00004523                     000045230000000000000109                     I01ORC001221/20011500000000134233410000001N130115000000000000000090000000000000000000000000000000000000000000000209154124000104KEC PROCESSAMENTO DE DADOS              RUA CORONEL SARMENTO 1704               CENTRO      94010030GRAVATAI       RS                                  00000000 000061
10209442991000137661600062425    00004524                     000045240000000000000109                     I01ORC001222/20011500000000089003410000001N130115000000000000000060000000000000000000000000000000000000000000000204030976000168KONTOR MOVEIS DE ESCRITORIO LT          AVENIDA DORIVAL CANDIDO LUIZ DE OLIVEIRAEVEREST     94030000GRAVATAI       RS                                  00000000 000062
10209442991000137661600062425    00004538                     000045380000000000000109                     I01NFE001016/20011500000000081413410000001N130115000000000000000060000000000000000000000000000000000000000000000203896574000188KS EQUIPAMENTOS INDUSTRIAIS LT          RUA SANTA FE 327                        SANTA FE    94060100GRAVATAI       RS                                  00000000 000063
10209442991000137661600062425    00004525                     000045250000000000000109                     I01ORC001223/20011500000000085203410000001N130115000000000000000060000000000000000000000000000000000000000000000209564221000167LANA CALIBRACAO DE INSTRUMENTO          AV BRASIL 1660                          SAO GERALDO 94150000GRAVATAI       RS                                  00000000 000064
10209442991000137661600062425    00004526                     000045260000000000000109                     I01ORC001224/20011500000000082873410000001N130115000000000000000060000000000000000000000000000000000000000000000209247054000120LEANDRO BATISTA DE FRAGA                AVENIDA DORIVAL CANDIDO LUIZ DE OLIVEIRASAO VICENTE 94060000GRAVATAI       RS                                  00000000 000065
10209442991000137661600062425    00004527                     000045270000000000000109                     I01ORC001225/20011500000000081813410000001N130115000000000000000060000000000000000000000000000000000000000000000294064631000118LUCIA'S CONFECCOES LTDA ME              RUA ELVIS PRESLEY 195                   PARQUE GARIB94090050GRAVATAI       RS                                  00000000 000066
10209442991000137661600062425    00004528                     000045280000000000000109                     I01ORC001226/20011500000000096203410000001N130115000000000000000070000000000000000000000000000000000000000000000206352958000209M M FIALHO                              AV FLORES DA CUNHA 4001                 BOM PRINCIPI94950001CACHOEIRINHA   RS                                  00000000 000067
10209442991000137661600062425    00004529                     000045290000000000000109                     I01ORC001227/20011500000000120003410000001N130115000000000000000090000000000000000000000000000000000000000000000209292283000167M. DA ROSA MICROCERVEJARIA - M          R JOAO MARIA DA FONSECA 505             PASSO DAS PE94035190GRAVATAI       RS                                  00000000 000068
10209442991000137661600062425    00004530                     000045300000000000000109                     I01ORC001228/20011500000000083753410000001N130115000000000000000060000000000000000000000000000000000000000000000207854908000101MACDIESEL SERVICOS EM MOTORES           RUA PEDRO MAIA 191                      SAO GERALDO 94150361GRAVATAI       RS                                  00000000 000069
10209442991000137661600062425    00004531                     000045310000000000000109                     I01ORC001229/20011500000000169563410000001N130115000000000000000120000000000000000000000000000000000000000000000205461000000102MADECASA COM DE MAT DE CONSTRU          RUA ADRIAO MONTEIRO DOS SANTOS 2838     CENTRO      95552000CAPIVARI DO SULRS                                  00000000 000070
10209442991000137661600062425    00004539                     000045390000000000000109                     I01NFE001017/20011500000000082873410000001N130115000000000000000060000000000000000000000000000000000000000000000204625815000117MAGNE SERVICOS E COMERCIO LTDA          RUA CARLOS CHAGAS 281                   ESTANCIA GRA94836200ALVORADA       RS                                  00000000 000071
10209442991000137661600062425    00004532                     000045320000000000000109                     I01ORC001230/20011500000000083483410000001N130115000000000000000060000000000000000000000000000000000000000000000208266347000192MAQ SERVICE ASS. TEC. E LOC. E          AV. DORIVAL CANDIDO LUZ DE OLIVEIRA 1919COHAB C     94030001GRAVATAI       RS                                  00000000 000072
10209442991000137661600062425    00004540                     000045400000000000000109                     I01NFE001018/20011500000000120003410000001N130115000000000000000090000000000000000000000000000000000000000000000215124197000148MARCELO MORIN NAIMAIER AUTOMAC          R DOUTOR ALFREDO ANGELO FILHO 1002      IGARA       92410535CANOAS         RS                                  00000000 000073
10209442991000137661600062425    00004434                     000044340000000000000109                     I01ORC001231/20011500000000120003410000001N130115000000000000000090000000000000000000000000000000000000000000000207713905000158MARIA CAROLINA MARTINS - ME             AVENIDA DORIVAL CANDIDO DE OLIVEIRA 814 SALGADO FILH94030001GRAVATAI       RS                                  00000000 000074
10209442991000137661600062425    00004435                     000044350000000000000109                     I01ORC001232/20011500000000083573410000001N130115000000000000000060000000000000000000000000000000000000000000000201100468000110MARIA DO CARMO GONCALVES                RUA BORBA GATO 1208                     BOM SUCESSO 94150200GRAVATAI       RS                                  00000000 000075
10209442991000137661600062425    00004436                     000044360000000000000109                     I01ORC001233/20011500000000083953410000001N130115000000000000000060000000000000000000000000000000000000000000000218378820000187MARIA E SILVEIRA DA SILVA E CI          RUA DR LUIZ BASTOS DO PRADO 1685        CENTRO      94010020GRAVATAI       RS                                  00000000 000076
10209442991000137661600062425    00004437                     000044370000000000000109                     I01ORC001234/20011500000000089003410000001N130115000000000000000060000000000000000000000000000000000000000000000203529707000188MAXIBOMBAS COMERCIO DE BOMBAS           RUA ROCHA POMBO 18                      SANTA TEREZA93037100SAO LEOPOLDO   RS                                  00000000 000077
10209442991000137661600062425    00004438                     000044380000000000000109                     I01ORC001235/20011500000000078963410000001N130115000000000000000060000000000000000000000000000000000000000000000204816321000110MD IND E COM DE MATRIZES LTDA           RUA LATERAL RS-020 1800                 MORADA DO VA94100250GRAVATAI       RS                                  00000000 000078
10209442991000137661600062425    00004439                     000044390000000000000109                     I01ORC001236/20011500000000054813410000001N130115000000000000000040000000000000000000000000000000000000000000000209285612000142METAL GRAVA LTDA                        RUA JOAO RIBEIRO 115                    RONDONIA    93420410NOVO HAMBURGO  RS                                  00000000 000079
10209442991000137661600062425    00004541                     000045410000000000000109                     I01NFE001019/20011500000000054813410000001N130115000000000000000040000000000000000000000000000000000000000000000294509320000115METALURGICA DRAWANZ LTDA                RUA LUIZ DE AZEVEDO 500                 JARDIM DAS A94197360GRAVATAI       RS                                  00000000 000080
10209442991000137661600062425    00004440                     000044400000000000000109                     I01ORC001237/20011500000000085363410000001N130115000000000000000060000000000000000000000000000000000000000000000200712325000105MK MONTAGEM DE KITS ELETRONICO          RUA BERNARDO JOAQUIM FERREIRA 735       CACA E PESCA94190000GRAVATAI       RS                                  00000000 000081
10209442991000137661600062425    00004441                     000044410000000000000109                     I01ORC001238/20011500000000105173410000001N130115000000000000000080000000000000000000000000000000000000000000000209022322000106MULTIMOBILE BRASIL SOLUCOES EM          ESTRADA MUNICIPAL 645                   NEOPOLIS    94100000GRAVATAI       RS                                  00000000 000082
10209442991000137661600062425    00004442                     000044420000000000000109                     I01ORC001239/20011500000000083483410000001N130115000000000000000060000000000000000000000000000000000000000000000217353713000131NEOCOR TINTAS LTDA                      RUA AMAPA 525                           VL PONTA POR94935050CACHOEIRINHA   RS                                  00000000 000083
10209442991000137661600062425    00004443                     000044430000000000000109                     I01ORC001240/20011500000000083573410000001N130115000000000000000060000000000000000000000000000000000000000000000202138738000145NERON MENGER                            AVENIDA PRESIDENTE GETULIO VARGAS 452   BELA VISTA  94810000ALVORADA       RS                                  00000000 000084
10209442991000137661600062425    00004444                     000044440000000000000109                     I01ORC001241/20011500000000081413410000001N130115000000000000000060000000000000000000000000000000000000000000000203314686000183NEW TECK EQUIPAMENTOS E SISTEM          RUA ELOI MACHADO 247                    CONCEICAO   94170370GRAVATAI       RS                                  00000000 000085
10209442991000137661600062425    00004445                     000044450000000000000109                     I01ORC001242/20011500000000084783410000001N130115000000000000000060000000000000000000000000000000000000000000000200614935000168NOGARE DIESEL MECANICA E AUTOP          RUA MACHADINHO 1320                     RIO BRANCO  92200440CANOAS         RS                                  00000000 000086
10209442991000137661600062425    00004446                     000044460000000000000109                     I01ORC001243/20011500000000085203410000001N130115000000000000000060000000000000000000000000000000000000000000000217765646000162OMX E CRISTIANE FERNANDES LTDA          AVENIDA ALEXANDRINO DE ALENCAR 157      MORADA DO VA94085120GRAVATAI       RS                                  00000000 000087
10209442991000137661600062425    00004447                     000044470000000000000109                     I01ORC001244/20011500000000082873410000001N130115000000000000000060000000000000000000000000000000000000000000000208390159000171PADRONIZA UNIFORMES IND E COM           RUA ZEFERINO DIAS 997                   SARANDI     91130480PORTO ALEGRE   RS                                  00000000 000088
10209442991000137661600062425    00004448                     000044480000000000000109                     I01ORC001245/20011500000000076703410000001N130115000000000000000060000000000000000000000000000000000000000000000293013217000117PAULO CESAR CORREA RIBEIRO              RUA INTENDENTE ALFREDO AZEVEDO 515      GLORIA      91710010PORTO ALEGRE   RS                                  00000000 000089
10209442991000137661600062425    00004449                     000044490000000000000109                     I01ORC001246/20011500000000089003410000001N130115000000000000000060000000000000000000000000000000000000000000000216658271000179PITBULL PECAS E ACESSORIOS AUT          RUA GUILHERME SCHMITZ 385               PARQUE OLIND94065200GRAVATAI       RS                                  00000000 000090
10209442991000137661600062425    00004450                     000044500000000000000109                     I01ORC001247/20011500000000089003410000001N130115000000000000000060000000000000000000000000000000000000000000000200084455000132PLASTICOS SCHMIDT LTDA                  RUA PEDRO ALVARES CABRAL 209            RIO BRANCO  93310330NOVO HAMBURGO  RS                                  00000000 000091
10209442991000137661600062425    00004451                     000044510000000000000109                     I01ORC001248/20011500000000081413410000001N130115000000000000000060000000000000000000000000000000000000000000000291688119000154PLASTICOS VAPA LTDA                     AVENIDA GENERAL FLORES DA CUNHA 4519    BOM PRINCIPI94950001CACHOEIRINHA   RS                                  00000000 000092
10209442991000137661600062425    00004452                     000044520000000000000109                     I01ORC001249/20011500000000088373410000001N130115000000000000000060000000000000000000000000000000000000000000000208964494000136POLYTEXTIL IND. E COM. LTDA             RUA VINTE DE SETEMBRO 1143              BARNABE     94150010GRAVATAI       RS                                  00000000 000093
10209442991000137661600062425    00004453                     000044530000000000000109                     I01ORC001250/20011500000000120003410000001N130115000000000000000090000000000000000000000000000000000000000000000214758149000220PPA3 COMERCIO E DISTRIBUICAO D          RUA ANGELO CHIARELLO 3246               PIO X       95032460CAXIAS DO SUL  RS                                  00000000 000094
10209442991000137661600062425    00004454                     000044540000000000000109                     I01ORC001251/20011500000000084783410000001N130115000000000000000060000000000000000000000000000000000000000000000214758149000149PPA3 COMERCIO E DISTRIBUICAO D          RUA OTAVIO SCHEMES 815                  BARNABE     94155000GRAVATAI       RS                                  00000000 000095
10209442991000137661600062425    00004455                     000044550000000000000109                     I01ORC001252/20011500000000089003410000001N130115000000000000000060000000000000000000000000000000000000000000000206970918000140QUALIPAR EQUIPAMENTOS INDUSTRI          RUA JOSE GOMES 82                       PASSAO DAS P94035220GRAVATAI       RS                                  00000000 000096
10209442991000137661600062425    00004456                     000044560000000000000109                     I01ORC001253/20011500000000072923410000001N130115000000000000000050000000000000000000000000000000000000000000000207354219000138RL COM DE FERRAMENTAS LTDA              RUA BRACO DO NORTE 36                   COHAB A     00000000GRAVATAI       RS                                  00000000 000097
10209442991000137661600062425    00004457                     000044570000000000000109                     I01ORC001254/20011500000000088373410000001N130115000000000000000060000000000000000000000000000000000000000000000206971699000113RODRIGO DE CAMPOS PEREIRA               RUA EDMAR BORBA ARAUJO 31               CHACARA VELH95540000PALMARES DO SULRS                                  00000000 000098
10209442991000137661600062425    00004458                     000044580000000000000109                     I01ORC001255/20011500000000077193410000001N130115000000000000000060000000000000000000000000000000000000000000000214502624000111RODRIGO NUNES GOULART                   AV. SENADOR SALGADO FILHO 6235          SAO LUCAS   94450000VIAMAO         RS                                  00000000 000099
10209442991000137661600062425    00004459                     000044590000000000000109                     I01ORC001256/20011500000000089003410000001N130115000000000000000060000000000000000000000000000000000000000000000210423779000101RTI LOCACOES EIRELI - EPP               AVENIDA CENTENARIO 1101                 VARZEA      94010050GRAVATAI       RS                                  00000000 000100
10209442991000137661600062425    00004460                     000044600000000000000109                     I01ORC001257/20011500000000088373410000001N130115000000000000000060000000000000000000000000000000000000000000000211436427000153SAO PEDRO LIVRARIA E PAPELARIA          AV SAO PEDRO 1951                       SAO GERALDO 90230120PORTO ALEGRE   RS                                  00000000 000101
10209442991000137661600062425    00004461                     000044610000000000000109                     I01ORC001258/20011500000000088373410000001N130115000000000000000060000000000000000000000000000000000000000000000274008459000178SERVICO E. ELETRO. PROLAR LTDA          RUA REVERENDO AMERICO VESPUCIO CABRAL 26CENTRO      94410300VIAMAO         RS                                  00000000 000102
10209442991000137661600062425    00004462                     000044620000000000000109                     I01ORC001259/20011500000000085833410000001N130115000000000000000060000000000000000000000000000000000000000000000291338624000179SINDICATO DOS TRAB. NAS IND. Q          AV. JOSE LOUREIRO DA SILVA 2358         SANTA LUZIA 94030001GRAVATAI       RS                                  00000000 000103
10209442991000137661600062425    00004542                     000045420000000000000109                     I01NFE001020/20011500000000053703410000001N130115000000000000000040000000000000000000000000000000000000000000000204864234000138STILL CAR CENTRO AUTOMOTIVO LT          RUA ANAPIO GOMES 1786                   CENTRO      94010010GRAVATAI       RS                                  00000000 000104
10209442991000137661600062425    00004463                     000044630000000000000109                     I01ORC001260/20011500000000088373410000001N130115000000000000000060000000000000000000000000000000000000000000000200515927000164STTILO ARTE REPRESENTACOES LTD          RUA JUVENAL GARCIA 75                   CENTRO      88302040ITAJAI         SC                                  00000000 000105
10209442991000137661600062425    00004464                     000044640000000000000109                     I01ORC001261/20011500000000089003410000001N130115000000000000000060000000000000000000000000000000000000000000000294860541000133THEC FER IND MET LTDA                   RUA JOAO BATISTA, SAO 681               PRQ DOS ANJO94190210GRAVATAI       RS                                  00000000 000106
10209442991000137661600062425    00004465                     000044650000000000000109                     I01ORC001262/20011500000000085203410000001N130115000000000000000060000000000000000000000000000000000000000000000210458626000108TOQUE PELE COM COSM LTDA                RUA LIBERDADE 42                        RIO BRANCO  90420090PORTO ALEGRE   RS                                  00000000 000107
10209442991000137661600062425    00004466                     000044660000000000000109                     I01ORC001263/20011500000000083483410000001N130115000000000000000060000000000000000000000000000000000000000000000203095532000148UBIRAJARA MOACIR BRAUN                  VILA PASSO DO ADAO 985                  MORUNGAVA   94000000GRAVATAI       RS                                  00000000 000108
10209442991000137661600062425    00004467                     000044670000000000000109                     I01ORC001264/20011500000000089003410000001N130115000000000000000060000000000000000000000000000000000000000000000297544043000170URBAN DOORS IMP, EXP E COM LTD          RUA FRANCISCO SILVEIRA BITTENCOURT 1400 SARANDI     91150010PORTO ALEGRE   RS                                  00000000 000109
10209442991000137661600062425    00004468                     000044680000000000000109                     I01ORC001265/20011500000000099553410000001N130115000000000000000070000000000000000000000000000000000000000000000221020213000155VANESSA GANDOLF                         RUA GALILEU 71                          CANUDOS     93544120NOVO HAMBURGO  RS                                  00000000 000110
10209442991000137661600062425    00004469                     000044690000000000000109                     I01ORC001266/20011500000000085203410000001N130115000000000000000060000000000000000000000000000000000000000000000219431575000197VIVIANE PASQUALIN EIRELI                RUA CATURRITA 921                       JARDIM ALGAR94858530ALVORADA       RS                                  00000000 000111
10209442991000137661600062425    00004470                     000044700000000000000109                     I01ORC001267/20011500000000120003410000001N130115000000000000000090000000000000000000000000000000000000000000000209623298000160ZANDONAI METALURGICA LTDA - ME          AV PRESIDENTE KENNEDY 1145              MARROCOS    94045160GRAVATAI       RS                                  00000000 000112
9                                                                                                                                                                                                                                                                                                                                                                                                         000113
