02RETORNO01COBRANCA       416070035008        DISTRIBUIDORA DE ALIMENTOS BIL041BANRISUL       24031501600BPI                                                                                                                                                                                                                                                                                              000001
10213247845000128416070035008805076  44579                    0004457919                                    03240315PED10212630004457919          2103150000000016550041       000000000000000000000000000000000000000000000000000000000000000000000000000000000000000000000000000000000000000000000                                                                                          09          000002
10213247845000128416070035008805076  44680                    0004468074                                    03240315PED10222630004468074          2703150000000010483041       000000000000000000000000000000000000000000000000000000000000000000000000000000000000000000000000000000000000000000000                                                                                          09          000003
10213247845000128416070035008805076  44697                    0004469712                                    03240315PED10222630004469712          0304150000000009854041       000000000000000000000000000000000000000000000000000000000000000000000000000000000000000000000000000000000000000000000                                                                                          09          000004
10213247845000128416070035008805076  44698                    0004469895                                    03240315PED10222630004469895          2303150000000017374041       000000000000000000000000000000000000000000000000000000000000000000000000000000000000000000000000000000000000000000000                                                                                          09          000005
10213247845000128416070035008805076  44703                    0004470370                                    03240315PED10192630004470370          2703150000000013085041       000000000000000000000000000000000000000000000000000000000000000000000000000000000000000000000000000000000000000000000                                                                                          09          000006
10213247845000128416070035008805076  43061                    0004306112                                   110240315PED40626030004306112          09031500000002051070414168808000000000000000000000062400000000000000000000000000000000000000000000000000000000000019886700000000000000000000000000   240315                                          7                                                  000007
10213247845000128416070035008805076  43150                    0004315022                                   110240315PED78826040004315022          04031500000000197190414168808000000000000000000000044000000000000000000000000000000000000000000000000000000000000001531900000000000000000000000000   240315                                          7                                                  000008
10213247845000128416070035008815055  43276                    0004327659          2014041630105001000003   306230315PED34426060004327659          20031500000000330090410109008000000000000000000000000000000000000000000000000000000000000000000000000000000000000003300900000000002970000000000000   240315                                         16                                                  000009
10213247845000128416070035008815055  43283                    0004328310          2014041630105001000003   306230315PED36726050004328310          20031500000000304820413087208000000000000000000000000000000000000000000000000000000000000000000000000000000000000003048200000000002730000000000000   240315                                         11                                                  000010
10213247845000128416070035008815055  43285                    0004328566          2014041630105001000003   306230315PED36726070004328566          20031500000000187800413087208000000000000000000000000000000000000000000000000000000000000000000000000000000000000001878000000000001680000000000000   240315                                         11                                                  000011
10213247845000128416070035008805076  43310                    0004331028                                   106230315PED020343/0004331028          23031500000000552000334135108000000000000000000000000000000000000000000000000000000000000000000000000000000000000005520000000000000000000000000000   240315                                         17                                                  000012
10213247845000128416070035008805076  43317                    0004331788                                   106230315PED78826100004331788          23031500000000386830334135108000000000000000000000000000000000000000000000000000000000000000000000000000000000000003868300000000000000000000000000   240315                                         17                                                  000013
10213247845000128416070035008805076  43321                    0004332199                                   106230315PED37526100004332199          23031500000000562711044135108000000000000000000000000000000000000000000000000000000000000000000000000000000000000005627100000000000000000000000000   240315                                         15                                                  000014
10213247845000128416070035008805076  43368                    0004336801                                   123240315PED40626100004336801          17031500000001214620414168808000000000000000000000000000000000000000000000000000000000000000000000000000000000000000000000000000000000000000000000                                                                                                      000015
10213247845000128416070035008805076  43417                    0004341759                                   123240315PED40626100004341759          17031500000000468790414168808000000000000000000000000000000000000000000000000000000000000000000000000000000000000000000000000000000000000000000000                                                                                                      000016
10213247845000128416070035008805076  43419                    0004341910                                   106230315PED34426100004341910          24031500000001204710410109008000000000000000000000000000000000000000000000000000000000000000000000000000000000000012047100000000000000000000000000   240315                                         16                                                  000017
10213247845000128416070035008815055  43468                    0004346882          2014041630105001000003   306230315PED40626110004346882          18031500000000226530410109008000000000000000000000000000000000000000000000000000000000000000000000000000000000000002265300000000003400000000000000   240315                                         16                                                  000018
10213247845000128416070035008805076  43485                    0004348524                                   123240315PED36726110004348524          18031500000000376430417914608000000000000000000000000000000000000000000000000000000000000000000000000000000000000000000000000000000000000000000000                                                                                                      000019
10213247845000128416070035008805076  43528                    0004352890                                   106230315PED78826120004352890          25031500000000832020419407208000000000000000000000000000000000000000000000000000000000000000000000000000000000000008320200000000000000000000000000   240315                                         11                                                  000020
10213247845000128416070035008815055  43538                    0004353889          2013041630105001000013   332240315PED34426120004353889          11031500000000105060414168801000000000000000000000000000000000000000000000000000000000000000000000000000000000000001050600000000000000000000000000   240315                                          1                                                  000021
10213247845000128416070035008815055  43579                    0004357922          2014041630105001000005   306230315PED78826130004357922          26031500000000216601044135108000000000000000000000000000000000000000000000000000000000000000000000000000000000000002166000000000000000000000000000   240315                                         15                                                  000022
10213247845000128416070035008815055  43580                    0004358007          2014041630105001000003   306230315PED78826130004358007          26031500000000142301044135108000000000000000000000000000000000000000000000000000000000000000000000000000000000000001423000000000000000000000000000   240315                                         15                                                  000023
10213247845000128416070035008805076  43593                    0004359348                                   123240315PED40626130004359348          19031500000000779400414168808000000000000000000000000000000000000000000000000000000000000000000000000000000000000000000000000000000000000000000000                                                                                                      000024
10213247845000128416070035008815055  43618                    0004361881          2014041630105001000005   306230315PED34426120004361881          20031500000000209030410109008000000000000000000000000000000000000000000000000000000000000000000000000000000000000002090300000000001890000000000000   240315                                         16                                                  000025
10213247845000128416070035008815055  43648                    0004364856          2014041630105001000003   306230315PED34426140004364856          20031500000000254980410109008000000000000000000000000000000000000000000000000000000000000000000000000000000000000002549800000000002280000000000000   240315                                         16                                                  000026
10213247845000128416070035008815055  43658                    0004365844          2014041630105001000005   306230315PED36726130004365844          20031500000000183610410109008000000000000000000000000000000000000000000000000000000000000000000000000000000000000001836100000000001650000000000000   240315                                         16                                                  000027
10213247845000128416070035008815055  43659                    0004365925          2014041630105001000003   306230315PED40626140004365925          20031500000000272280410109008000000000000000000000000000000000000000000000000000000000000000000000000000000000000002722800000000002460000000000000   240315                                         16                                                  000028
10213247845000128416070035008815055  43670                    0004367006          2013041630105001000013   306230315PED020507/0004367006          23031500000000194861044135108000000000000000000000000000000000000000000000000000000000000000000000000000000000000001948600000000000000000000000000   240315                                         15                                                  000029
10213247845000128416070035008815055  43672                    0004367251          2013041630105001000013   306230315PED40626170004367251          23031500000000180650410109008000000000000000000000000000000000000000000000000000000000000000000000000000000000000001806500000000000000000000000000   240315                                         16                                                  000030
10213247845000128416070035008815055  43685                    0004368576          2014041630105001000003   306230315PED40626170004368576          23031500000000315121044135108000000000000000000000000000000000000000000000000000000000000000000000000000000000000003151200000000000000000000000000   240315                                         15                                                  000031
10213247845000128416070035008815055  43687                    0004368738          2014041630105001000003   306230315PED36726140004368738          23031500000000180261044135108000000000000000000000000000000000000000000000000000000000000000000000000000000000000001802600000000000000000000000000   240315                                         15                                                  000032
10213247845000128416070035008805076  43700                    0004370058                                   123240315PED36726170004370058          17031500000000643710417914608000000000000000000000000000000000000000000000000000000000000000000000000000000000000000000000000000000000000000000000                                                                                                      000033
10213247845000128416070035008815055  43708                    0004370872          2014041630105001000003   306230315PED020515/0004370872          23031500000000139051044135108000000000000000000000000000000000000000000000000000000000000000000000000000000000000001390500000000000000000000000000   240315                                         15                                                  000034
10213247845000128416070035008815055  43720                    0004372026          2014041630105001000003   306230315PED020523/0004372026          24031500000000215211044135108000000000000000000000000000000000000000000000000000000000000000000000000000000000000002152100000000000000000000000000   240315                                         12                                                  000035
10213247845000128416070035008805076  43722                    0004372298                                   123240315PED40626170004372298          17031500000000744060414168808000000000000000000000000000000000000000000000000000000000000000000000000000000000000000000000000000000000000000000000                                                                                                      000036
10213247845000128416070035008815055  43746                    0004374673          2014041630105001000005   306230315PED10192610004374673          24031500000000101441044135108000000000000000000000000000000000000000000000000000000000000000000000000000000000000001014400000000000000000000000000   240315                                         15                                                  000037
10213247845000128416070035008815055  43804                    0004380444          2014041630105001000003   306230315PED78826180004380444          25031500000000151821044135108000000000000000000000000000000000000000000000000000000000000000000000000000000000000001518200000000000000000000000000   240315                                         15                                                  000038
10213247845000128416070035008815055  43808                    0004380851          2014041630105001000003   310240315PED78826180004380851          10031500000000147170414168808000000000114000000000000000000000000000000000000000000000000000000000000000000000000001471700000000000000000000000000   240315                                         1                                                   000039
10213247845000128416070035008805076  43813                    0004381351                                   106230315PED40626180004381351          17031500000000476620410109008000000000000000000000000000000000000000000000000000000000000000000000000000000000000004766200000000008580000000000000   240315                                         16                                                  000040
10213247845000128416070035008805076  43816                    0004381688                                   106230315PED36726190004381688          18031500000000411480410109008000000000000000000000000000000000000000000000000000000000000000000000000000000000000004114800000000006150000000000000   240315                                         16                                                  000041
10213247845000128416070035008815055  43823                    0004382358          2014041630105001000005   306230315PED10212610004382358          18031500000000313220410109008000000000000000000000000000000000000000000000000000000000000000000000000000000000000003132200000000004700000000000000   240315                                         16                                                  000042
10213247845000128416070035008805076  43838                    0004383826                                   106230315PED10192610004383826          18031500000000383540410109008000000000000000000000000000000000000000000000000000000000000000000000000000000000000003835400000000005750000000000000   240315                                         13                                                  000043
10213247845000128416070035008815055  43839                    0004383907          2014041630105001000003   306230315PED10192610004383907          25031500000000130581044135108000000000000000000000000000000000000000000000000000000000000000000000000000000000000001305800000000000000000000000000   240315                                         15                                                  000044
10213247845000128416070035008805076  43861                    0004386140                                   106230315PED10192610004386140          25031500000000446400014135108000000000000000000000000000000000000000000000000000000000000000000000000000000000000004464000000000000000000000000000   240315                                         11                                                  000045
10213247845000128416070035008815055  43885                    0004388534          2014041630105001000003   306230315PED78826190004388534          25031500000000256320419407208000000000000000000000000000000000000000000000000000000000000000000000000000000000000002563200000000000000000000000000   240315                                         11                                                  000046
10213247845000128416070035008805076  43890                    0004389034                                   106230315PED10192610004389034          19031500000000416620414168808000000000000000000000000000000000000000000000000000000000000000000000000000000000000004166200000000005000000000000000   240315                                         11                                                  000047
10213247845000128416070035008805076  43908                    0004390830                                   106230315PED78826190004390830          19031500000001015790419407208000000000000000000000000000000000000000000000000000000000000000000000000000000000000010157900000000012200000000000000   240315                                         11                                                  000048
10213247845000128416070035008805076  43946                    0004394631                                   106230315PED34426200004394631          20031500000000510460410109008000000000000000000000000000000000000000000000000000000000000000000000000000000000000005104600000000004590000000000000   240315                                         16                                                  000049
10213247845000128416070035008805076  43961                    0004396138                                   106230315PED020611/0004396138          20031500000000516110417914608000000000000000000000000000000000000000000000000000000000000000000000000000000000000005161100000000004650000000000000   240315                                         11                                                  000050
10213247845000128416070035008815055  43974                    0004397452          2013041630105001000013   306230315PED10222610004397452          20031500000000132770417856508000000000000000000000000000000000000000000000000000000000000000000000000000000000000001327700000000001200000000000000   240315                                         11                                                  000051
10213247845000128416070035008805076  43999                    0004399927                                   106230315PED020654/0004399927          23031500000001123450410109008000000000000000000000000000000000000000000000000000000000000000000000000000000000000011234500000000000000000000000000   240315                                         13                                                  000052
10213247845000128416070035008805076  44006                    0004400658                                   106230315PED34426240004400658          23031500000001921570410109008000000000000000000000000000000000000000000000000000000000000000000000000000000000000019215700000000000000000000000000   240315                                         11                                                  000053
10213247845000128416070035008805076  44008                    0004400828                                   106230315PED34426240004400828          23031500000000374652374135108000000000000000000000000000000000000000000000000000000000000000000000000000000000000003746500000000000000000000000000   240315                                         15                                                  000054
10213247845000128416070035008805076  44013                    0004401328                                   106230315PED40626240004401328          23031500000000404791044135108000000000000000000000000000000000000000000000000000000000000000000000000000000000000004047900000000000000000000000000   240315                                         15                                                  000055
10213247845000128416070035008805076  44014                    0004401492                                   106230315PED10212620004401492          23031500000000358011044135108000000000000000000000000000000000000000000000000000000000000000000000000000000000000003580100000000000000000000000000   240315                                         15                                                  000056
10213247845000128416070035008815055  44019                    0004401980          2014041630105001000003   306230315PED34426240004401980          23031500000000147961044135108000000000000000000000000000000000000000000000000000000000000000000000000000000000000001479600000000000000000000000000   240315                                         15                                                  000057
10213247845000128416070035008805076  44020                    0004402065                                   106230315PED36726240004402065          23031500000000352060410109008000000000000000000000000000000000000000000000000000000000000000000000000000000000000003520600000000000000000000000000   240315                                         16                                                  000058
10213247845000128416070035008805076  44023                    0004402308                                   106230315PED37526240004402308          23031500000000462650410109008000000000000000000000000000000000000000000000000000000000000000000000000000000000000004626500000000000000000000000000   240315                                         16                                                  000059
10213247845000128416070035008805076  44032                    0004403215                                   106230315PED40626240004403215          23031500000000473220410109008000000000000000000000000000000000000000000000000000000000000000000000000000000000000004732200000000000000000000000000   240315                                         16                                                  000060
10213247845000128416070035008815055  44037                    0004403703          2013041630105001000013   306230315PED40626240004403703          23031500000000105380014135108000000000000000000000000000000000000000000000000000000000000000000000000000000000000001053800000000000000000000000000   240315                                         11                                                  000061
10213247845000128416070035008815055  44039                    0004403967          2014041630105001000005   306230315PED34426240004403967          23031500000000259690410109008000000000000000000000000000000000000000000000000000000000000000000000000000000000000002596900000000000000000000000000   240315                                         16                                                  000062
10213247845000128416070035008805076  44041                    0004404122                                   106230315PED36726240004404122          23031500000000547022374135108000000000000000000000000000000000000000000000000000000000000000000000000000000000000005470200000000000000000000000000   240315                                         15                                                  000063
10213247845000128416070035008805076  44043                    0004404386                                   106230315PED37526240004404386          23031500000000402010014135108000000000000000000000000000000000000000000000000000000000000000000000000000000000000004020100000000000000000000000000   240315                                         13                                                  000064
10213247845000128416070035008815055  44051                    0004405110          2014041630105001000005   306230315PED37526240004405110          23031500000000246000334135108000000000000000000000000000000000000000000000000000000000000000000000000000000000000002460000000000000000000000000000   240315                                         12                                                  000065
10213247845000128416070035008815055  44053                    0004405374          2014041630105001000005   306230315PED10212620004405374          23031500000000249852374135108000000000000000000000000000000000000000000000000000000000000000000000000000000000000002498500000000000000000000000000   240315                                         11                                                  000066
10213247845000128416070035008805076  44074                    0004407431                                   106230315PED020681/0004407431          23031500000000449870417914608000000000000000000000000000000000000000000000000000000000000000000000000000000000000004498700000000000000000000000000   240315                                         11                                                  000067
10213247845000128416070035008815055  44079                    0004407938          2014041630105001000003   306230315PED37526240004407938          24031500000000222602374135108000000000000000000000000000000000000000000000000000000000000000000000000000000000000002226000000000000000000000000000   240315                                         15                                                  000068
10213247845000128416070035008805076  44082                    0004408268                                   106230315PED020674/0004408268          23031500000000556653414135108000000000000000000000000000000000000000000000000000000000000000000000000000000000000005566500000000000000000000000000   240315                                         17                                                  000069
10213247845000128416070035008805076  44084                    0004408438                                   106230315PED34426240004408438          23031500000000434850410109008000000000000000000000000000000000000000000000000000000000000000000000000000000000000004348500000000000000000000000000   240315                                         16                                                  000070
10213247845000128416070035008805076  44085                    0004408594                                   123240315PED37526240004408594          17031500000000430280411974708000000000000000000000000000000000000000000000000000000000000000000000000000000000000000000000000000000000000000000000                                                                                                      000071
10213247845000128416070035008815055  44104                    0004410483          2014041630105001000003   306230315PED78826240004410483          24031500000000206351044135108000000000000000000000000000000000000000000000000000000000000000000000000000000000000002063500000000000000000000000000   240315                                         15                                                  000072
10213247845000128416070035008815055  44117                    0004411706          2014041630105001000014   306230315PED10222620004411706          23031500000000101617484135108000000000000000000000000000000000000000000000000000000000000000000000000000000000000001016100000000000000000000000000   240315                                         15                                                  000073
10213247845000128416070035008805076  44119                    0004411978                                   106230315PED10222620004411978          23031500000000405850410109008000000000000000000000000000000000000000000000000000000000000000000000000000000000000004058500000000000000000000000000   240315                                         16                                                  000074
10213247845000128416070035008815055  44136                    0004413601          2013041630105001000013   306230315PED37526250004413601          18031500000000270170411636508000000000000000000000000000000000000000000000000000000000000000000000000000000000000002701700000000004050000000000000   240315                                         11                                                  000075
10213247845000128416070035008815055  44138                    0004413865          2014041630105001000003   306230315PED10222620004413865          25031500000000202561044135108000000000000000000000000000000000000000000000000000000000000000000000000000000000000002025600000000000000000000000000   240315                                         15                                                  000076
10213247845000128416070035008815055  44139                    0004413946          2013041630105001000013   306230315PED37526240004413946          25031500000000261900410109008000000000000000000000000000000000000000000000000000000000000000000000000000000000000002619000000000000000000000000000   240315                                         16                                                  000077
10213247845000128416070035008815055  44154                    0004415434          2014041630105001000003   306230315PED36726250004415434          25031500000000337901044135108000000000000000000000000000000000000000000000000000000000000000000000000000000000000003379000000000000000000000000000   240315                                         15                                                  000078
10213247845000128416070035008815055  44159                    0004415922          2014041630105001000003   306230315PED34426250004415922          25031500000000185720410109008000000000000000000000000000000000000000000000000000000000000000000000000000000000000001857200000000000000000000000000   240315                                         16                                                  000079
10213247845000128416070035008815055  44178                    0004417828          2014041630105001000003   306230315PED10192620004417828          25031500000000312300410109008000000000000000000000000000000000000000000000000000000000000000000000000000000000000003123000000000000000000000000000   240315                                         16                                                  000080
10213247845000128416070035008805076  44184                    0004418409                                   106230315PED36726260004418409          25031500000000533282374135108000000000000000000000000000000000000000000000000000000000000000000000000000000000000005332800000000000000000000000000   240315                                         15                                                  000081
10213247845000128416070035008815055  44189                    0004418999          2014041630105001000003   306230315PED40626250004418999          24031500000000222480410109008000000000000000000000000000000000000000000000000000000000000000000000000000000000000002224800000000000000000000000000   240315                                         11                                                  000082
10213247845000128416070035008815055  44215                    0004421523          2014041630105001000003   306230315PED37526260004421523          25031500000000164302374135108000000000000000000000000000000000000000000000000000000000000000000000000000000000000001643000000000000000000000000000   240315                                         15                                                  000083
10213247845000128416070035008805076  44216                    0004421604                                   102240315PED36726260004421604          01041500000000125650416700808000000000020000000000000000000000000000000000000000000000000000000000000000000000000000000000000000000000000000000000                                                                                                      000084
10213247845000128416070035008815055  44228                    0004422856          2014041630105001000005   306230315PED78826260004422856          25031500000000322091044135108000000000000000000000000000000000000000000000000000000000000000000000000000000000000003220900000000000000000000000000   240315                                         15                                                  000085
10213247845000128416070035008815055  44260                    0004426088          2014041630105001000003   306230315PED78826260004426088          25031500000000252282374135108000000000000000000000000000000000000000000000000000000000000000000000000000000000000002522800000000000000000000000000   240315                                         15                                                  000086
10213247845000128416070035008805076  44261                    0004426169                                   123240315PED34426260004426169          19031500000000318050412907608000000000000000000000000000000000000000000000000000000000000000000000000000000000000000000000000000000000000000000000                                                                                                      000087
10213247845000128416070035008815055  44280                    0004428064          2014041630105001000003   306230315PED34426250004428064          19031500000000149810411974708000000000000000000000000000000000000000000000000000000000000000000000000000000000000001498100000000001800000000000000   240315                                         11                                                  000088
10213247845000128416070035008805076  44283                    0004428307                                   132240315PED40626270004428307          02041500000000356040414168801000000000000000000000000000000000000000000000000000000000000000000000000000000000000003560400000000000000000000000000   240315                                          1                                                  000089
10213247845000128416070035008815055  44300                    0004430026          2014041630105001000005   306230315PED37526270004430026          20031500000000106370410109008000000000000000000000000000000000000000000000000000000000000000000000000000000000000001063700000000000960000000000000   240315                                         16                                                  000090
10213247845000128416070035008815055  44324                    0004432428          2014041630105001000003   306230315PED78826280004432428          20031500000000222440413087208000000000000000000000000000000000000000000000000000000000000000000000000000000000000002224400000000002010000000000000   240315                                         11                                                  000091
10213247845000128416070035008815055  44329                    0004432916          2014041630105001000005   306230315PED78826280004432916          20031500000000182730413087208000000000000000000000000000000000000000000000000000000000000000000000000000000000000001827300000000001650000000000000   240315                                         11                                                  000092
10213247845000128416070035008815055  44348                    0004434811          2014041630105001000014   306230315PED10222620004434811          27031500000000090891044135108000000000000000000000000000000000000000000000000000000000000000000000000000000000000000908900000000000000000000000000   240315                                         15                                                  000093
10213247845000128416070035008815055  44352                    0004435230          2014041630105001000003   306230315PED10222620004435230          20031500000000200400410109008000000000000000000000000000000000000000000000000000000000000000000000000000000000000002004000000000001800000000000000   240315                                         16                                                  000094
10213247845000128416070035008805076  44354                    0004435494                                   106230315PED40626280004435494          23031500000000697430410109008000000000000000000000000000000000000000000000000000000000000000000000000000000000000006974300000000000000000000000000   240315                                         16                                                  000095
10213247845000128416070035008815055  44365                    0004436555          2014041630105001000005   306230315PED10192620004436555          23031500000000181221044135108000000000000000000000000000000000000000000000000000000000000000000000000000000000000001812200000000000000000000000000   240315                                         15                                                  000096
10213247845000128416070035008805076  44368                    0004436806                                   106230315PED36726270004436806          26031500000000377500410109008000000000000000000000000000000000000000000000000000000000000000000000000000000000000003775000000000000000000000000000   240315                                         16                                                  000097
10213247845000128416070035008805076  44369                    0004436970                                   106230315PED78826310004436970          21031500000000398071044135108000000000000000000000000000000000000000000000000000000000000000000000000000000000000003980700000000000000000000000000   240315                                         15                                                  000098
10213247845000128416070035008815055  44372                    0004437217          2014041630105001000003   306230315PED020816/0004437217          23031500000000287911044135108000000000000000000000000000000000000000000000000000000000000000000000000000000000000002879100000000000000000000000000   240315                                         15                                                  000099
10213247845000128416070035008805076  44375                    0004437543                                   123240315PED40626310004437543          19031500000000230850414168808000000000000000000000000000000000000000000000000000000000000000000000000000000000000000000000000000000000000000000000                                                                                                      000100
10213247845000128416070035008805076  44380                    0004438043                                   106230315PED78826310004438043          23031500000000756270410109008000000000000000000000000000000000000000000000000000000000000000000000000000000000000007562700000000000000000000000000   240315                                         16                                                  000101
10213247845000128416070035008805076  44382                    0004438205                                   132240315PED78826270004438205          30031500000000347730414168801000000000000000000000000000000000000000000000000000000000000000000000000000000000000003477300000000000000000000000000   240315                                          1                                                  000102
10213247845000128416070035008815055  44386                    0004438612          2013041630105001000013   306230315PED10212630004438612          23031500000000124920410109008000000000000000000000000000000000000000000000000000000000000000000000000000000000000001249200000000000000000000000000   240315                                         16                                                  000103
10213247845000128416070035008815055  44392                    0004439295          2014041630105001000003   306230315PED10212630004439295          23031500000000183080410109008000000000000000000000000000000000000000000000000000000000000000000000000000000000000001830800000000000000000000000000   240315                                         13                                                  000104
10213247845000128416070035008805998                           0004440420                                   106230315          0004440420          23031500000000162902374135100000000000020000000000000000000000000000000000000000000000000000000000000000000000000001629000000000000000000000000000   240315                                         15                                                  000105
10213247845000128416070035008805076  44446                    0004444639                                   106230315PED40626310004444639          24031500000000657691044135108000000000000000000000000000000000000000000000000000000000000000000000000000000000000006576900000000000000000000000000   240315                                         15                                                  000106
10213247845000128416070035008805076  44447                    0004444728                                   106230315PED40626310004444728          24031500000000657681044135108000000000000000000000000000000000000000000000000000000000000000000000000000000000000006576800000000000000000000000000   240315                                         15                                                  000107
10213247845000128416070035008815055  44449                    0004444973          2014041630105001000003   306230315PED10192630004444973          24031500000000238700410109008000000000000000000000000000000000000000000000000000000000000000000000000000000000000002387000000000000000000000000000   240315                                         16                                                  000108
10213247845000128416070035008805076  44452                    0004445228                                   106230315PED10192630004445228          22031500000000491860410109008000000000000000000000000000000000000000000000000000000000000000000000000000000000000004918600000000000000000000000000   240315                                         16                                                  000109
10213247845000128416070035008805076  44454                    0004445473                                   106230315PED78826310004445473          20031500000000321620410109008000000000000000000000000000000000000000000000000000000000000000000000000000000000000003216200000000002880000000000000   240315                                         16                                                  000110
10213247845000128416070035008805076  44458                    0004445880                                   106230315PED36726320004445880          23031500000000889262374135108000000000000000000000000000000000000000000000000000000000000000000000000000000000000008892600000000000000000000000000   240315                                         15                                                  000111
10213247845000128416070035008805076  44463                    0004446380                                   132240315PED10222630004446380          31031500000000349430414168801000000000000000000000000000000000000000000000000000000000000000000000000000000000000003494300000000000000000000000000   240315                                          1                                                  000112
10213247845000128416070035008805076  44465                    0004446534                                   106230315PED10222630004446534          24031500000000140600410109008000000000000000000000000000000000000000000000000000000000000000000000000000000000000001406000000000000000000000000000   240315                                         16                                                  000113
10213247845000128416070035008805076  44466                    0004446615                                   132240315PED10222630004446615          31031500000000247840414168801000000000000000000000000000000000000000000000000000000000000000000000000000000000000002478400000000000000000000000000   240315                                          1                                                  000114
10213247845000128416070035008805076  44468                    0004446879                                   132240315PED78826310004446879          07041500000000249980414168801000000000000000000000000000000000000000000000000000000000000000000000000000000000000002499800000000000000000000000000   240315                                          1                                                  000115
10213247845000128416070035008805076  44474                    0004447468                                   106230315PED78826320004447468          24031500000000177810410109008000000000000000000000000000000000000000000000000000000000000000000000000000000000000001778100000000000000000000000000   240315                                         16                                                  000116
10213247845000128416070035008805076  44476                    0004447603                                   106230315PED10212630004447603          24031500000000160530410109008000000000000000000000000000000000000000000000000000000000000000000000000000000000000001605300000000000000000000000000   240315                                         16                                                  000117
10213247845000128416070035008805076  44479                    0004447948                                   132240315PED78826320004447948          07041500000000248340414168801000000000000000000000000000000000000000000000000000000000000000000000000000000000000002483400000000000000000000000000   240315                                          1                                                  000118
10213247845000128416070035008805076  44486                    0004448693                                   132240315PED10222630004448693          30031500000000359010414168801000000000000000000000000000000000000000000000000000000000000000000000000000000000000003590100000000000000000000000000   240315                                          1                                                  000119
10213247845000128416070035008805076  44488                    0004448855                                   106230315PED34426320004448855          22031500000000155502374135108000000000000000000000000000000000000000000000000000000000000000000000000000000000000001555000000000000000000000000000   240315                                         12                                                  000120
10213247845000128416070035008805076  44490                    0004449010                                   132240315PED36726320004449010          31031500000000215570414168801000000000000000000000000000000000000000000000000000000000000000000000000000000000000002155700000000000000000000000000   240315                                          1                                                  000121
10213247845000128416070035008805076  44492                    0004449274                                   106230315PED10192630004449274          24031500000000103920410109008000000000000000000000000000000000000000000000000000000000000000000000000000000000000001039200000000000000000000000000   240315                                         16                                                  000122
10213247845000128416070035008805076  44496                    0004449681                                   106230315PED10222630004449681          21031500000000605131044135108000000000000000000000000000000000000000000000000000000000000000000000000000000000000006051300000000000000000000000000   240315                                         15                                                  000123
10213247845000128416070035008805076  44497                    0004449762                                   106230315PED37526320004449762          25031500000000108701044135108000000000000000000000000000000000000000000000000000000000000000000000000000000000000001087000000000000000000000000000   240315                                         13                                                  000124
10213247845000128416070035008805076  44501                    0004450159                                   106230315PED10212630004450159          25031500000000557200334135108000000000000000000000000000000000000000000000000000000000000000000000000000000000000005572000000000000000000000000000   240315                                         17                                                  000125
10213247845000128416070035008805076  44506                    0004450647                                   132240315PED10192630004450647          08041500000000231660414168801000000000000000000000000000000000000000000000000000000000000000000000000000000000000002316600000000000000000000000000   240315                                          1                                                  000126
10213247845000128416070035008805076  44508                    0004450809                                   132240315PED020871/0004450809          01041500000000184490414168801000000000000000000000000000000000000000000000000000000000000000000000000000000000000001844900000000000000000000000000   240315                                          1                                                  000127
10213247845000128416070035008805076  44516                    0004451635                                   132240315PED36726320004451635          01041500000000280310414168801000000000000000000000000000000000000000000000000000000000000000000000000000000000000002803100000000000000000000000000   240315                                          1                                                  000128
10213247845000128416070035008805076  44519                    0004451988                                   132240315PED37526330004451988          01041500000000256000414168801000000000000000000000000000000000000000000000000000000000000000000000000000000000000002560000000000000000000000000000   240315                                          1                                                  000129
10213247845000128416070035008805076  44522                    0004452216                                   132240315PED40626320004452216          08041500000000302820414168801000000000000000000000000000000000000000000000000000000000000000000000000000000000000003028200000000000000000000000000   240315                                          1                                                  000130
10213247845000128416070035008805076  44525                    0004452542                                   106230315PED36726320004452542          25031500000000370260334135108000000000000000000000000000000000000000000000000000000000000000000000000000000000000003702600000000000000000000000000   240315                                         11                                                  000131
10213247845000128416070035008805076  44528                    0004452887                                   132240315PED37526320004452887          01041500000000193390414168801000000000000000000000000000000000000000000000000000000000000000000000000000000000000001933900000000000000000000000000   240315                                          1                                                  000132
10213247845000128416070035008805076  44540                    0004454030                                   132240315PED36726320004454030          31031500000000242040414168801000000000000000000000000000000000000000000000000000000000000000000000000000000000000002420400000000000000000000000000   240315                                          1                                                  000133
10213247845000128416070035008805076  44544                    0004454456                                   132240315PED40626320004454456          14041500000000214260414168801000000000000000000000000000000000000000000000000000000000000000000000000000000000000002142600000000000000000000000000   240315                                          1                                                  000134
10213247845000128416070035008805076  44545                    0004454529                                   106230315PED10192630004454529          28031500000000214750410109008000000000000000000000000000000000000000000000000000000000000000000000000000000000000002147500000000000000000000000000   240315                                         16                                                  000135
10213247845000128416070035008805076  44546                    0004454618                                   132240315PED40626320004454618          31031500000000203650414168801000000000000000000000000000000000000000000000000000000000000000000000000000000000000002036500000000000000000000000000   240315                                          1                                                  000136
10213247845000128416070035008805076  44547                    0004454782                                   132240315PED40626320004454782          31031500000000218880414168801000000000000000000000000000000000000000000000000000000000000000000000000000000000000002188800000000000000000000000000   240315                                          1                                                  000137
10213247845000128416070035008805076  44551                    0004455118                                   132240315PED34426330004455118          01041500000000293910414168801000000000000000000000000000000000000000000000000000000000000000000000000000000000000002939100000000000000000000000000   240315                                          1                                                  000138
10213247845000128416070035008805076  44556                    0004455606                                   132240315PED40626320004455606          08041500000000242080414168801000000000000000000000000000000000000000000000000000000000000000000000000000000000000002420800000000000000000000000000   240315                                          1                                                  000139
10213247845000128416070035008805076  44564                    0004456432                                   106230315PED37526330004456432          25031500000000137382374135108000000000000000000000000000000000000000000000000000000000000000000000000000000000000001373800000000000000000000000000   240315                                         15                                                  000140
10213247845000128416070035008805076  44566                    0004456688                                   102240315PED10212630004456688          01041500000000728500414101708000000000020000000000000000000000000000000000000000000000000000000000000000000000000000000000000000000000000000000000                                                                                                      000141
10213247845000128416070035008805076  44567                    0004456769                                   132240315PED10192630004456769          01041500000000177780414168801000000000000000000000000000000000000000000000000000000000000000000000000000000000000001777800000000000000000000000000   240315                                          1                                                  000142
10213247845000128416070035008805076  44568                    0004456858                                   132240315PED36726330004456858          01041500000000300140414168801000000000000000000000000000000000000000000000000000000000000000000000000000000000000003001400000000000000000000000000   240315                                          1                                                  000143
10213247845000128416070035008805076  44569                    0004456920                                   106230315PED36726330004456920          25031500000000510722374135108000000000000000000000000000000000000000000000000000000000000000000000000000000000000005107200000000000000000000000000   240315                                         11                                                  000144
10213247845000128416070035008805076  44574                    0004457420                                   132240315PED34426330004457420          28031500000000175840414168801000000000000000000000000000000000000000000000000000000000000000000000000000000000000001758400000000000000000000000000   240315                                          1                                                  000145
10213247845000128416070035008805076  44578                    0004457838                                   106230315PED34426330004457838          23031500000000164297484135108000000000000000000000000000000000000000000000000000000000000000000000000000000000000001642900000000000000000000000000   240315                                         11                                                  000146
10213247845000128416070035008805998                           0004457919                                   106230315          0004457919          21031500000000165500410109000000000000020000000000000000000000000000000000000000000000000000000000000000000000000001655000000000000000000000000000   240315                                         11                                                  000147
10213247845000128416070035008805076  44583                    0004458338                                   132240315PED37526330004458338          08041500000000181520414168801000000000000000000000000000000000000000000000000000000000000000000000000000000000000001815200000000000000000000000000   240315                                          1                                                  000148
10213247845000128416070035008805076  44584                    0004458419                                   106230315PED34426330004458419          21031500000000161281044135108000000000000000000000000000000000000000000000000000000000000000000000000000000000000001612800000000000000000000000000   240315                                         15                                                  000149
10213247845000128416070035008805076  44586                    0004458664                                   106230315PED10212630004458664          21031500000000080340334135108000000000000000000000000000000000000000000000000000000000000000000000000000000000000000803400000000000000000000000000   240315                                         13                                                  000150
10213247845000128416070035008805076  44600                    0004460057                                   132240315PED10192630004460057          02041500000000301960414168801000000000000000000000000000000000000000000000000000000000000000000000000000000000000003019600000000000000000000000000   240315                                          1                                                  000151
10213247845000128416070035008805076  44601                    0004460138                                   132240315PED37526330004460138          26031500000000183430414168801000000000000000000000000000000000000000000000000000000000000000000000000000000000000001834300000000000000000000000000   240315                                          1                                                  000152
10213247845000128416070035008805076  44604                    0004460472                                   132240315PED36726330004460472          01041500000000316410414168801000000000000000000000000000000000000000000000000000000000000000000000000000000000000003164100000000000000000000000000   240315                                          1                                                  000153
10213247845000128416070035008805076  44605                    0004460545                                   106230315PED10212630004460545          22031500000000086170412907608000000000000000000000000000000000000000000000000000000000000000000000000000000000000000861700000000000000000000000000   240315                                         11                                                  000154
10213247845000128416070035008805076  44607                    0004460707                                   132240315PED34426330004460707          09041500000000286710414168801000000000000000000000000000000000000000000000000000000000000000000000000000000000000002867100000000000000000000000000   240315                                          1                                                  000155
10213247845000128416070035008805076  44608                    0004460898                                   106230315PED78826330004460898          26031500000000264041044135108000000000000000000000000000000000000000000000000000000000000000000000000000000000000002640400000000000000000000000000   240315                                         15                                                  000156
10213247845000128416070035008805076  44611                    0004461126                                   132240315PED37526330004461126          26031500000000279500414168801000000000000000000000000000000000000000000000000000000000000000000000000000000000000002795000000000000000000000000000   240315                                          1                                                  000157
10213247845000128416070035008805076  44613                    0004461398                                   132240315PED020881/0004461398          08041500000000271590414168801000000000000000000000000000000000000000000000000000000000000000000000000000000000000002715900000000000000000000000000   240315                                          1                                                  000158
10213247845000128416070035008805076  44615                    0004461533                                   132240315PED78826320004461533          09041500000000241080414168801000000000000000000000000000000000000000000000000000000000000000000000000000000000000002410800000000000000000000000000   240315                                          1                                                  000159
10213247845000128416070035008805076  44617                    0004461797                                   132240315PED78826330004461797          01041500000000324750414168801000000000000000000000000000000000000000000000000000000000000000000000000000000000000003247500000000000000000000000000   240315                                          1                                                  000160
10213247845000128416070035008805076  44618                    0004461878                                   132240315PED78826330004461878          08041500000000324750414168801000000000000000000000000000000000000000000000000000000000000000000000000000000000000003247500000000000000000000000000   240315                                          1                                                  000161
10213247845000128416070035008805076  44619                    0004461959                                   106230315PED10212630004461959          26031500000000472260410109008000000000000000000000000000000000000000000000000000000000000000000000000000000000000004722600000000000000000000000000   240315                                         16                                                  000162
10213247845000128416070035008805076  44621                    0004462114                                   132240315PED10192630004462114          09041500000000191530414168801000000000000000000000000000000000000000000000000000000000000000000000000000000000000001915300000000000000000000000000   240315                                          1                                                  000163
10213247845000128416070035008805076  44626                    0004462602                                   106230315PED10192630004462602          21031500000000140810414168808000000000000000000000000000000000000000000000000000000000000000000000000000000000000001408100000000000000000000000000   240315                                         11                                                  000164
10213247845000128416070035008805076  44627                    0004462785                                   132240315PED10192630004462785          26031500000000172710414168801000000000000000000000000000000000000000000000000000000000000000000000000000000000000001727100000000000000000000000000   240315                                          1                                                  000165
10213247845000128416070035008805076  44628                    0004462866                                   132240315PED10192630004462866          26031500000000318370414168801000000000000000000000000000000000000000000000000000000000000000000000000000000000000003183700000000000000000000000000   240315                                          1                                                  000166
10213247845000128416070035008805076  44629                    0004462947                                   106230315PED020888/0004462947          26031500000000182560410109008000000000000000000000000000000000000000000000000000000000000000000000000000000000000001825600000000000000000000000000   240315                                         13                                                  000167
10213247845000128416070035008805076  44631                    0004463102                                   132240315PED020890/0004463102          02041500000000339730414168801000000000000000000000000000000000000000000000000000000000000000000000000000000000000003397300000000000000000000000000   240315                                          1                                                  000168
10213247845000128416070035008805076  44632                    0004463285                                   132240315PED36726340004463285          02041500000000294040414168801000000000000000000000000000000000000000000000000000000000000000000000000000000000000002940400000000000000000000000000   240315                                          1                                                  000169
10213247845000128416070035008805076  44636                    0004463692                                   132240315PED36726340004463692          09041500000000347220414168801000000000000000000000000000000000000000000000000000000000000000000000000000000000000003472200000000000000000000000000   240315                                          1                                                  000170
10213247845000128416070035008805076  44637                    0004463773                                   106230315PED34426340004463773          22031500000000449991044135108000000000000000000000000000000000000000000000000000000000000000000000000000000000000004499900000000000000000000000000   240315                                         15                                                  000171
10213247845000128416070035008805076  44639                    0004463935                                   132240315PED78826340004463935          09041500000000198780414168801000000000000000000000000000000000000000000000000000000000000000000000000000000000000001987800000000000000000000000000   240315                                          1                                                  000172
10213247845000128416070035008805076  44640                    0004464028                                   132240315PED36726330004464028          02041500000000244820414168801000000000000000000000000000000000000000000000000000000000000000000000000000000000000002448200000000000000000000000000   240315                                          1                                                  000173
10213247845000128416070035008805076  44642                    0004464273                                   110240315PED78826330004464273          22031500000000156540414168808000000000000000000000000000000000000000000000000000000000000000000000000000000000000001565400000000000000000000000000   240315                                         1                                                   000174
10213247845000128416070035008805076  44643                    0004464354                                   132240315PED10192630004464354          26031500000000256950414168801000000000000000000000000000000000000000000000000000000000000000000000000000000000000002569500000000000000000000000000   240315                                          1                                                  000175
10213247845000128416070035008805076  44644                    0004464435                                   132240315PED40626340004464435          02041500000000216600414168801000000000000000000000000000000000000000000000000000000000000000000000000000000000000002166000000000000000000000000000   240315                                          1                                                  000176
10213247845000128416070035008805076  44646                    0004464680                                   102240315PED40626340004464680          09041500000001844950414168808000000000020000000000000000000000000000000000000000000000000000000000000000000000000000000000000000000000000000000000                                                                                                      000177
10213247845000128416070035008805076  44647                    0004464761                                   102240315PED10192630004464761          15041500000000473430414168808000000000020000000000000000000000000000000000000000000000000000000000000000000000000000000000000000000000000000000000                                                                                                      000178
10213247845000128416070035008805076  44648                    0004464842                                   102240315PED36726340004464842          09041500000000236510414168808000000000020000000000000000000000000000000000000000000000000000000000000000000000000000000000000000000000000000000000                                                                                                      000179
10213247845000128416070035008805076  44649                    0004464923                                   102240315PED10192630004464923          07041500000000138000414168808000000000020000000000000000000000000000000000000000000000000000000000000000000000000000000000000000000000000000000000                                                                                                      000180
10213247845000128416070035008805076  44651                    0004465180                                   102240315PED36726340004465180          09041500000000328540414168808000000000020000000000000000000000000000000000000000000000000000000000000000000000000000000000000000000000000000000000                                                                                                      000181
10213247845000128416070035008805076  44653                    0004465342                                   102240315PED36726340004465342          09041500000000301850414168808000000000020000000000000000000000000000000000000000000000000000000000000000000000000000000000000000000000000000000000                                                                                                      000182
10213247845000128416070035008805076  44654                    0004465423                                   102240315PED34426340004465423          02041500000000337480414168808000000000020000000000000000000000000000000000000000000000000000000000000000000000000000000000000000000000000000000000                                                                                                      000183
10213247845000128416070035008805076  44655                    0004465598                                   102240315PED10192630004465598          26031500000000452720414168808000000000020000000000000000000000000000000000000000000000000000000000000000000000000000000000000000000000000000000000                                                                                                      000184
10213247845000128416070035008805076  44656                    0004465679                                   102240315PED40626340004465679          02041500000000357980414168808000000000020000000000000000000000000000000000000000000000000000000000000000000000000000000000000000000000000000000000                                                                                                      000185
10213247845000128416070035008805076  44657                    0004465768                                   102240315PED40626340004465768          09041500000000357970414168808000000000020000000000000000000000000000000000000000000000000000000000000000000000000000000000000000000000000000000000                                                                                                      000186
10213247845000128416070035008805076  44658                    0004465830                                   102240315PED34426340004465830          02041500000000147150414168808000000000020000000000000000000000000000000000000000000000000000000000000000000000000000000000000000000000000000000000                                                                                                      000187
10213247845000128416070035008805076  44659                    0004465911                                   102240315PED34426340004465911          16041500000000438650414168808000000000020000000000000000000000000000000000000000000000000000000000000000000000000000000000000000000000000000000000                                                                                                      000188
10213247845000128416070035008805076  44660                    0004466098                                   102240315PED34426340004466098          16041500000000317390414168808000000000020000000000000000000000000000000000000000000000000000000000000000000000000000000000000000000000000000000000                                                                                                      000189
10213247845000128416070035008805076  44661                    0004466179                                   102240315PED020898/0004466179          09041500000000200700414168808000000000020000000000000000000000000000000000000000000000000000000000000000000000000000000000000000000000000000000000                                                                                                      000190
10213247845000128416070035008805076  44662                    0004466268                                   102240315PED34426340004466268          16041500000000490360414168808000000000020000000000000000000000000000000000000000000000000000000000000000000000000000000000000000000000000000000000                                                                                                      000191
10213247845000128416070035008805076  44663                    0004466330                                   102240315PED10192630004466330          02041500000000220150414168808000000000020000000000000000000000000000000000000000000000000000000000000000000000000000000000000000000000000000000000                                                                                                      000192
10213247845000128416070035008805076  44664                    0004466411                                   102240315PED34426340004466411          02041500000000099420411636508000000000020000000000000000000000000000000000000000000000000000000000000000000000000000000000000000000000000000000000                                                                                                      000193
10213247845000128416070035008805076  44665                    0004466586                                   102240315PED37526340004466586          02041500000000246250414168808000000000020000000000000000000000000000000000000000000000000000000000000000000000000000000000000000000000000000000000                                                                                                      000194
10213247845000128416070035008805076  44666                    0004466667                                   102240315PED37526340004466667          26031500000000135250414168808000000000020000000000000000000000000000000000000000000000000000000000000000000000000000000000000000000000000000000000                                                                                                      000195
10213247845000128416070035008805076  44667                    0004466748                                   102240315PED78826340004466748          16041500000001388820411636508000000000020000000000000000000000000000000000000000000000000000000000000000000000000000000000000000000000000000000000                                                                                                      000196
10213247845000128416070035008805076  44668                    0004466829                                   102240315PED40626340004466829          09041500000000339720414168808000000000020000000000000000000000000000000000000000000000000000000000000000000000000000000000000000000000000000000000                                                                                                      000197
10213247845000128416070035008805076  44669                    0004466918                                   102240315PED10212630004466918          02041500000000411600412907608000000000020000000000000000000000000000000000000000000000000000000000000000000000000000000000000000000000000000000000                                                                                                      000198
10213247845000128416070035008805076  44671                    0004467167                                   102240315PED10192630004467167          02041500000000156960414168808000000000020000000000000000000000000000000000000000000000000000000000000000000000000000000000000000000000000000000000                                                                                                      000199
10213247845000128416070035008805076  44674                    0004467418                                   102240315PED34426340004467418          03041500000000361670414168808000000000020000000000000000000000000000000000000000000000000000000000000000000000000000000000000000000000000000000000                                                                                                      000200
10213247845000128416070035008805076  44675                    0004467574                                   102240315PED34426340004467574          27031500000000182550414168808000000000020000000000000000000000000000000000000000000000000000000000000000000000000000000000000000000000000000000000                                                                                                      000201
10213247845000128416070035008805076  44676                    0004467655                                   102240315PED10222630004467655          03041500000000257350417856508000000000020000000000000000000000000000000000000000000000000000000000000000000000000000000000000000000000000000000000                                                                                                      000202
10213247845000128416070035008805076  44677                    0004467736                                   102240315PED10222630004467736          27031500000000241730417856508000000000020000000000000000000000000000000000000000000000000000000000000000000000000000000000000000000000000000000000                                                                                                      000203
10213247845000128416070035008805076  44678                    0004467817                                   102240315PED10222630004467817          03041500000000179920417856508000000000020000000000000000000000000000000000000000000000000000000000000000000000000000000000000000000000000000000000                                                                                                      000204
10213247845000128416070035008805076  44679                    0004467906                                   102240315PED10222630004467906          25031500000000231510417856508000000000020000000000000000000000000000000000000000000000000000000000000000000000000000000000000000000000000000000000                                                                                                      000205
10213247845000128416070035008805998                           0004468074                                   106230315          0004468074          27031500000000104832374135100000000000020000000000000000000000000000000000000000000000000000000000000000000000000001048300000000000000000000000000   240315                                         11                                                  000206
10213247845000128416070035008805076  44681                    0004468155                                   102240315PED10212630004468155          01041500000000208150417856508000000000020000000000000000000000000000000000000000000000000000000000000000000000000000000000000000000000000000000000                                                                                                      000207
10213247845000128416070035008805076  44682                    0004468236                                   102240315PED78826340004468236          09041500000000567800416106908000000000020000000000000000000000000000000000000000000000000000000000000000000000000000000000000000000000000000000000                                                                                                      000208
10213247845000128416070035008805076  44683                    0004468317                                   102240315PED78826310004468317          26031500000000301050416106908000000000020000000000000000000000000000000000000000000000000000000000000000000000000000000000000000000000000000000000                                                                                                      000209
10213247845000128416070035008805076  44684                    0004468406                                   102240315PED40626330004468406          27031500000000505830419407208000000000020000000000000000000000000000000000000000000000000000000000000000000000000000000000000000000000000000000000                                                                                                      000210
10213247845000128416070035008805076  44686                    0004468643                                   102240315PED78826350004468643          03041500000000239540414168808000000000020000000000000000000000000000000000000000000000000000000000000000000000000000000000000000000000000000000000                                                                                                      000211
10213247845000128416070035008805076  44687                    0004468724                                   102240315PED78826350004468724          27031500000000182710414168808000000000020000000000000000000000000000000000000000000000000000000000000000000000000000000000000000000000000000000000                                                                                                      000212
10213247845000128416070035008805076  44688                    0004468805                                   102240315PED020925/0004468805          03041500000000401890417914608000000000020000000000000000000000000000000000000000000000000000000000000000000000000000000000000000000000000000000000                                                                                                      000213
10213247845000128416070035008805076  44689                    0004468988                                   102240315PED40626350004468988          10041500000000849540414168808000000000020000000000000000000000000000000000000000000000000000000000000000000000000000000000000000000000000000000000                                                                                                      000214
10213247845000128416070035008805076  44690                    0004469062                                   102240315PED10192630004469062          03041500000000138830414168808000000000020000000000000000000000000000000000000000000000000000000000000000000000000000000000000000000000000000000000                                                                                                      000215
10213247845000128416070035008805076  44692                    0004469224                                   102240315PED020931/0004469224          03041500000000161840414168808000000000020000000000000000000000000000000000000000000000000000000000000000000000000000000000000000000000000000000000                                                                                                      000216
10213247845000128416070035008805076  44693                    0004469305                                   102240315PED020930/0004469305          27031500000000228210414168808000000000020000000000000000000000000000000000000000000000000000000000000000000000000000000000000000000000000000000000                                                                                                      000217
10213247845000128416070035008805076  44694                    0004469488                                   102240315PED78826350004469488          17041500000000460750412907608000000000020000000000000000000000000000000000000000000000000000000000000000000000000000000000000000000000000000000000                                                                                                      000218
10213247845000128416070035008805076  44696                    0004469631                                   102240315PED10222630004469631          03041500000000419350417856508000000000020000000000000000000000000000000000000000000000000000000000000000000000000000000000000000000000000000000000                                                                                                      000219
10213247845000128416070035008805998                           0004469712                                   106230315          0004469712          03041500000000098547484135100000000000020000000000000000000000000000000000000000000000000000000000000000000000000000985400000000000000000000000000   240315                                         11                                                  000220
10213247845000128416070035008805998                           0004469895                                   106230315          0004469895          23031500000000173743414135100000000000020000000000000000000000000000000000000000000000000000000000000000000000000001737400000000000000000000000000   240315                                         11                                                  000221
10213247845000128416070035008805076  44699                    0004469976                                   102240315PED78826330004469976          23031500000001336590416106908000000000020000000000000000000000000000000000000000000000000000000000000000000000000000000000000000000000000000000000                                                                                                      000222
10213247845000128416070035008805076  44700                    0004470036                                   102240315PED10212630004470036          23031500000000162010417856508000000000020000000000000000000000000000000000000000000000000000000000000000000000000000000000000000000000000000000000                                                                                                      000223
10213247845000128416070035008805076  44702                    0004470206                                   102240315PED78826350004470206          10041500000000184730414168808000000000020000000000000000000000000000000000000000000000000000000000000000000000000000000000000000000000000000000000                                                                                                      000224
10213247845000128416070035008805998                           0004470370                                   106230315          0004470370          27031500000000130852374135100000000000020000000000000000000000000000000000000000000000000000000000000000000000000001308500000000000000000000000000   240315                                         15                                                  000225
10213247845000128416070035008805076  44704                    0004470451                                   102240315PED36726350004470451          10041500000000497450414168808000000000020000000000000000000000000000000000000000000000000000000000000000000000000000000000000000000000000000000000                                                                                                      000226
10213247845000128416070035008805076  44706                    0004470605                                   102240315PED020954/0004470605          27031500000000126640414168808000000000020000000000000000000000000000000000000000000000000000000000000000000000000000000000000000000000000000000000                                                                                                      000227
10213247845000128416070035008805076  44707                    0004470788                                   102240315PED37526350004470788          06041500000000198930419407208000000000020000000000000000000000000000000000000000000000000000000000000000000000000000000000000000000000000000000000                                                                                                      000228
10213247845000128416070035008805076  44708                    0004470869                                   102240315PED40626380004470869          06041500000000142040414168808000000000020000000000000000000000000000000000000000000000000000000000000000000000000000000000000000000000000000000000                                                                                                      000229
10213247845000128416070035008805076  44710                    0004471024                                   102240315PED020967/0004471024          30031500000000768280417914608000000000020000000000000000000000000000000000000000000000000000000000000000000000000000000000000000000000000000000000                                                                                                      000230
10213247845000128416070035008805076  44713                    0004471369                                   102240315PED34426350004471369          30031500000000538110411636508000000000020000000000000000000000000000000000000000000000000000000000000000000000000000000000000000000000000000000000                                                                                                      000231
10213247845000128416070035008805076  44714                    0004471458                                   102240315PED40626380004471458          06041500000000297700414168808000000000020000000000000000000000000000000000000000000000000000000000000000000000000000000000000000000000000000000000                                                                                                      000232
10213247845000128416070035008805076  44715                    0004471512                                   102240315PED40626380004471512          13041500000000297700414168808000000000020000000000000000000000000000000000000000000000000000000000000000000000000000000000000000000000000000000000                                                                                                      000233
10213247845000128416070035008805076  44717                    0004471776                                   102240315PED78826380004471776          20041500000000390720412907608000000000020000000000000000000000000000000000000000000000000000000000000000000000000000000000000000000000000000000000                                                                                                      000234
10213247845000128416070035008805076  44718                    0004471857                                   102240315PED78826380004471857          20041500000000249780412907608000000000020000000000000000000000000000000000000000000000000000000000000000000000000000000000000000000000000000000000                                                                                                      000235
10213247845000128416070035008805076  44719                    0004471938                                   102240315PED34426380004471938          06041500000002509770414168808000000000020000000000000000000000000000000000000000000000000000000000000000000000000000000000000000000000000000000000                                                                                                      000236
10213247845000128416070035008805076  44720                    0004472012                                   102240315PED37526350004472012          06041500000000115910412329908000000000020000000000000000000000000000000000000000000000000000000000000000000000000000000000000000000000000000000000                                                                                                      000237
10213247845000128416070035008805076  44721                    0004472195                                   102240315PED40626380004472195          20041500000000139200414168808000000000020000000000000000000000000000000000000000000000000000000000000000000000000000000000000000000000000000000000                                                                                                      000238
10213247845000128416070035008805076  44722                    0004472276                                   102240315PED34426380004472276          06041500000000369460414168808000000000020000000000000000000000000000000000000000000000000000000000000000000000000000000000000000000000000000000000                                                                                                      000239
10213247845000128416070035008805076  44726                    0004472683                                   102240315PED40626380004472683          13041500000000558160414168808000000000020000000000000000000000000000000000000000000000000000000000000000000000000000000000000000000000000000000000                                                                                                      000240
10213247845000128416070035008805076  44727                    0004472764                                   102240315PED36726380004472764          13041500000000601020414168808000000000020000000000000000000000000000000000000000000000000000000000000000000000000000000000000000000000000000000000                                                                                                      000241
10213247845000128416070035008805076  44728                    0004472845                                   102240315PED020966/0004472845          13041500000000240730414168808000000000020000000000000000000000000000000000000000000000000000000000000000000000000000000000000000000000000000000000                                                                                                      000242
10213247845000128416070035008805076  44729                    0004472926                                   102240315PED78826380004472926          30031500000000468870416106908000000000020000000000000000000000000000000000000000000000000000000000000000000000000000000000000000000000000000000000                                                                                                      000243
10213247845000128416070035008805076  44730                    0004473000                                   102240315PED78826380004473000          13041500000000409850416106908000000000020000000000000000000000000000000000000000000000000000000000000000000000000000000000000000000000000000000000                                                                                                      000244
10213247845000128416070035008805076  44731                    0004473183                                   102240315PED36726380004473183          13041500000000567480414168808000000000020000000000000000000000000000000000000000000000000000000000000000000000000000000000000000000000000000000000                                                                                                      000245
10213247845000128416070035008805076  44732                    0004473264                                   102240315PED36726380004473264          13041500000000352900414168808000000000020000000000000000000000000000000000000000000000000000000000000000000000000000000000000000000000000000000000                                                                                                      000246
10213247845000128416070035008805076  44733                    0004473345                                   102240315PED10212630004473345          06041500000000173500412907608000000000020000000000000000000000000000000000000000000000000000000000000000000000000000000000000000000000000000000000                                                                                                      000247
10213247845000128416070035008805076  44734                    0004473426                                   102240315PED40626380004473426          13041500000000979600414168808000000000020000000000000000000000000000000000000000000000000000000000000000000000000000000000000000000000000000000000                                                                                                      000248
